{
  "_format": "hh-sol-artifact-1",
  "contractName": "crowdFundFactory",
  "sourceName": "contracts/CrowdFundFactory.sol",
  "abi": [
    {
      "inputs": [
        {
          "internalType": "uint256",
          "name": "_index",
          "type": "uint256"
        }
      ],
      "name": "DonorsNFT",
      "outputs": [],
      "stateMutability": "payable",
      "type": "function"
    },
    {
      "inputs": [
        {
          "internalType": "address",
          "name": "_USDC",
          "type": "address"
        },
        {
          "internalType": "address",
          "name": "_ownersAddress",
          "type": "address"
        },
        {
          "internalType": "uint256",
          "name": "_salt",
          "type": "uint256"
        },
        {
          "internalType": "uint256",
          "name": "deadline",
          "type": "uint256"
        },
        {
          "internalType": "address",
          "name": "_nft",
          "type": "address"
        },
        {
          "internalType": "uint256",
          "name": "_amountProposed",
          "type": "uint256"
        },
        {
          "internalType": "string",
          "name": "_topic",
          "type": "string"
        },
        {
          "internalType": "bytes",
          "name": "_description",
          "type": "bytes"
        },
        {
          "internalType": "enum CrowdFund.Category",
          "name": "_cat",
          "type": "uint8"
        }
      ],
      "name": "createCrowdfund",
      "outputs": [
        {
          "internalType": "address",
          "name": "crowdFundAddr",
          "type": "address"
        },
        {
          "internalType": "address",
          "name": "manager",
          "type": "address"
        }
      ],
      "stateMutability": "nonpayable",
      "type": "function"
    },
    {
      "inputs": [
        {
          "internalType": "uint256",
          "name": "",
          "type": "uint256"
        }
      ],
      "name": "crowdfunds",
      "outputs": [
        {
          "internalType": "contract CrowdFund",
          "name": "",
          "type": "address"
        }
      ],
      "stateMutability": "view",
      "type": "function"
    },
    {
      "inputs": [
        {
          "internalType": "uint256",
          "name": "_index",
          "type": "uint256"
        }
      ],
      "name": "disburseDonation",
      "outputs": [],
      "stateMutability": "nonpayable",
      "type": "function"
    },
    {
      "inputs": [
        {
          "internalType": "uint256",
          "name": "_index",
          "type": "uint256"
        }
      ],
      "name": "getCrowdFund",
      "outputs": [
        {
          "internalType": "address",
          "name": "USDC",
          "type": "address"
        },
        {
          "internalType": "address",
          "name": "deployer",
          "type": "address"
        },
        {
          "internalType": "address",
          "name": "crowdFundAddr",
          "type": "address"
        },
        {
          "internalType": "address",
          "name": "owner",
          "type": "address"
        }
      ],
      "stateMutability": "view",
      "type": "function"
    },
    {
      "inputs": [
        {
          "internalType": "uint256",
          "name": "_index",
          "type": "uint256"
        }
      ],
      "name": "ownersNFT",
      "outputs": [],
      "stateMutability": "payable",
      "type": "function"
    },
    {
      "inputs": [],
      "name": "returnCrowdfund",
      "outputs": [
        {
          "internalType": "contract CrowdFund[]",
          "name": "",
          "type": "address[]"
        }
      ],
      "stateMutability": "view",
      "type": "function"
    }
  ],
  "bytecode": "0x608060405234801561001057600080fd5b5061434d806100206000396000f3fe6080604052600436106200007a5760003560e01c80638019e74811620000555780638019e7481462000106578063ac42b1d61462000134578063ec5e398f1462000178578063f21af2d914620001a8576200007a565b806303df3010146200007f5780632322820f146200009f5780632642540a14620000e6575b600080fd5b6200009d6004803603810190620000979190620009d0565b620001ed565b005b348015620000ac57600080fd5b50620000cb6004803603810190620000c59190620009d0565b62000309565b604051620000dd949392919062000a47565b60405180910390f35b620001046004803603810190620000fe9190620009d0565b6200052c565b005b3480156200011357600080fd5b506200013260048036038101906200012c9190620009d0565b62000648565b005b3480156200014157600080fd5b506200016060048036038101906200015a9190620009d0565b620006f3565b6040516200016f919062000aff565b60405180910390f35b3480156200018557600080fd5b506200019062000733565b6040516200019f919062000bea565b60405180910390f35b348015620001b557600080fd5b50620001d46004803603810190620001ce919062000e7d565b620007c3565b604051620001e492919062000f9a565b60405180910390f35b600080828154811062000205576200020462000fc7565b5b9060005260206000200160009054906101000a900473ffffffffffffffffffffffffffffffffffffffff1690508073ffffffffffffffffffffffffffffffffffffffff16633bf8f3b46040518163ffffffff1660e01b8152600401602060405180830381865afa1580156200027e573d6000803e3d6000fd5b505050506040513d601f19601f82011682018060405250810190620002a491906200100d565b73ffffffffffffffffffffffffffffffffffffffff16637e534b666040518163ffffffff1660e01b8152600401600060405180830381600087803b158015620002ec57600080fd5b505af115801562000301573d6000803e3d6000fd5b505050505050565b600080600080600080868154811062000327576200032662000fc7565b5b9060005260206000200160009054906101000a900473ffffffffffffffffffffffffffffffffffffffff1690508073ffffffffffffffffffffffffffffffffffffffff166389a302716040518163ffffffff1660e01b8152600401602060405180830381865afa158015620003a0573d6000803e3d6000fd5b505050506040513d601f19601f82011682018060405250810190620003c691906200100d565b8173ffffffffffffffffffffffffffffffffffffffff1663481c6a756040518163ffffffff1660e01b8152600401602060405180830381865afa15801562000412573d6000803e3d6000fd5b505050506040513d601f19601f820116820180604052508101906200043891906200100d565b8273ffffffffffffffffffffffffffffffffffffffff16633bf8f3b46040518163ffffffff1660e01b8152600401602060405180830381865afa15801562000484573d6000803e3d6000fd5b505050506040513d601f19601f82011682018060405250810190620004aa91906200100d565b8373ffffffffffffffffffffffffffffffffffffffff16639a4d51986040518163ffffffff1660e01b8152600401602060405180830381865afa158015620004f6573d6000803e3d6000fd5b505050506040513d601f19601f820116820180604052508101906200051c91906200100d565b9450945094509450509193509193565b600080828154811062000544576200054362000fc7565b5b9060005260206000200160009054906101000a900473ffffffffffffffffffffffffffffffffffffffff1690508073ffffffffffffffffffffffffffffffffffffffff16633bf8f3b46040518163ffffffff1660e01b8152600401602060405180830381865afa158015620005bd573d6000803e3d6000fd5b505050506040513d601f19601f82011682018060405250810190620005e391906200100d565b73ffffffffffffffffffffffffffffffffffffffff1663335150a86040518163ffffffff1660e01b8152600401600060405180830381600087803b1580156200062b57600080fd5b505af115801562000640573d6000803e3d6000fd5b505050505050565b600080828154811062000660576200065f62000fc7565b5b9060005260206000200160009054906101000a900473ffffffffffffffffffffffffffffffffffffffff1690508073ffffffffffffffffffffffffffffffffffffffff1663bea47a376040518163ffffffff1660e01b8152600401600060405180830381600087803b158015620006d657600080fd5b505af1158015620006eb573d6000803e3d6000fd5b505050505050565b600081815481106200070457600080fd5b906000526020600020016000915054906101000a900473ffffffffffffffffffffffffffffffffffffffff1681565b60606000805480602002602001604051908101604052809291908181526020018280548015620007b957602002820191906000526020600020905b8160009054906101000a900473ffffffffffffffffffffffffffffffffffffffff1673ffffffffffffffffffffffffffffffffffffffff16815260200190600101908083116200076e575b5050505050905090565b60008060008960001b8c8c8b8b8b8b8b8b604051620007e29062000973565b620007f5989796959493929190620011b6565b8190604051809103906000f590508015801562000816573d6000803e3d6000fd5b5090506000819080600181540180825580915050600190039060005260206000200160009091909190916101000a81548173ffffffffffffffffffffffffffffffffffffffff021916908373ffffffffffffffffffffffffffffffffffffffff1602179055508073ffffffffffffffffffffffffffffffffffffffff16633bf8f3b46040518163ffffffff1660e01b8152600401602060405180830381865afa158015620008c8573d6000803e3d6000fd5b505050506040513d601f19601f82011682018060405250810190620008ee91906200100d565b8173ffffffffffffffffffffffffffffffffffffffff16639a4d51986040518163ffffffff1660e01b8152600401602060405180830381865afa1580156200093a573d6000803e3d6000fd5b505050506040513d601f19601f820116820180604052508101906200096091906200100d565b9250925050995099975050505050505050565b6130c5806200125383390190565b6000604051905090565b600080fd5b600080fd5b6000819050919050565b620009aa8162000995565b8114620009b657600080fd5b50565b600081359050620009ca816200099f565b92915050565b600060208284031215620009e957620009e86200098b565b5b6000620009f984828501620009b9565b91505092915050565b600073ffffffffffffffffffffffffffffffffffffffff82169050919050565b600062000a2f8262000a02565b9050919050565b62000a418162000a22565b82525050565b600060808201905062000a5e600083018762000a36565b62000a6d602083018662000a36565b62000a7c604083018562000a36565b62000a8b606083018462000a36565b95945050505050565b6000819050919050565b600062000abf62000ab962000ab38462000a02565b62000a94565b62000a02565b9050919050565b600062000ad38262000a9e565b9050919050565b600062000ae78262000ac6565b9050919050565b62000af98162000ada565b82525050565b600060208201905062000b16600083018462000aee565b92915050565b600081519050919050565b600082825260208201905092915050565b6000819050602082019050919050565b62000b538162000ada565b82525050565b600062000b67838362000b48565b60208301905092915050565b6000602082019050919050565b600062000b8d8262000b1c565b62000b99818562000b27565b935062000ba68362000b38565b8060005b8381101562000bdd57815162000bc1888262000b59565b975062000bce8362000b73565b92505060018101905062000baa565b5085935050505092915050565b6000602082019050818103600083015262000c06818462000b80565b905092915050565b62000c198162000a22565b811462000c2557600080fd5b50565b60008135905062000c398162000c0e565b92915050565b600080fd5b600080fd5b6000601f19601f8301169050919050565b7f4e487b7100000000000000000000000000000000000000000000000000000000600052604160045260246000fd5b62000c948262000c49565b810181811067ffffffffffffffff8211171562000cb65762000cb562000c5a565b5b80604052505050565b600062000ccb62000981565b905062000cd9828262000c89565b919050565b600067ffffffffffffffff82111562000cfc5762000cfb62000c5a565b5b62000d078262000c49565b9050602081019050919050565b82818337600083830152505050565b600062000d3a62000d348462000cde565b62000cbf565b90508281526020810184848401111562000d595762000d5862000c44565b5b62000d6684828562000d14565b509392505050565b600082601f83011262000d865762000d8562000c3f565b5b813562000d9884826020860162000d23565b91505092915050565b600067ffffffffffffffff82111562000dbf5762000dbe62000c5a565b5b62000dca8262000c49565b9050602081019050919050565b600062000dee62000de88462000da1565b62000cbf565b90508281526020810184848401111562000e0d5762000e0c62000c44565b5b62000e1a84828562000d14565b509392505050565b600082601f83011262000e3a5762000e3962000c3f565b5b813562000e4c84826020860162000dd7565b91505092915050565b6006811062000e6357600080fd5b50565b60008135905062000e778162000e55565b92915050565b60008060008060008060008060006101208a8c03121562000ea35762000ea26200098b565b5b600062000eb38c828d0162000c28565b995050602062000ec68c828d0162000c28565b985050604062000ed98c828d01620009b9565b975050606062000eec8c828d01620009b9565b965050608062000eff8c828d0162000c28565b95505060a062000f128c828d01620009b9565b94505060c08a013567ffffffffffffffff81111562000f365762000f3562000990565b5b62000f448c828d0162000d6e565b93505060e08a013567ffffffffffffffff81111562000f685762000f6762000990565b5b62000f768c828d0162000e22565b92505061010062000f8a8c828d0162000e66565b9150509295985092959850929598565b600060408201905062000fb1600083018562000a36565b62000fc0602083018462000a36565b9392505050565b7f4e487b7100000000000000000000000000000000000000000000000000000000600052603260045260246000fd5b600081519050620010078162000c0e565b92915050565b6000602082840312156200102657620010256200098b565b5b6000620010368482850162000ff6565b91505092915050565b6200104a8162000995565b82525050565b600081519050919050565b600082825260208201905092915050565b60005b838110156200108c5780820151818401526020810190506200106f565b60008484015250505050565b6000620010a58262001050565b620010b181856200105b565b9350620010c38185602086016200106c565b620010ce8162000c49565b840191505092915050565b600081519050919050565b600082825260208201905092915050565b60006200110282620010d9565b6200110e8185620010e4565b9350620011208185602086016200106c565b6200112b8162000c49565b840191505092915050565b7f4e487b7100000000000000000000000000000000000000000000000000000000600052602160045260246000fd5b6006811062001179576200117862001136565b5b50565b60008190506200118c8262001165565b919050565b60006200119e826200117c565b9050919050565b620011b08162001191565b82525050565b600061010082019050620011ce600083018b62000a36565b620011dd602083018a62000a36565b620011ec60408301896200103f565b620011fb606083018862000a36565b6200120a60808301876200103f565b81810360a08301526200121e818662001098565b905081810360c0830152620012348185620010f5565b90506200124560e0830184620011a5565b999850505050505050505056fe60806040523480156200001157600080fd5b50604051620030c5380380620030c5833981810160405281019062000037919062000554565b866000806101000a81548173ffffffffffffffffffffffffffffffffffffffff021916908373ffffffffffffffffffffffffffffffffffffffff16021790555033600160006101000a81548173ffffffffffffffffffffffffffffffffffffffff021916908373ffffffffffffffffffffffffffffffffffffffff16021790555030600860006101000a81548173ffffffffffffffffffffffffffffffffffffffff021916908373ffffffffffffffffffffffffffffffffffffffff16021790555087600960006101000a81548173ffffffffffffffffffffffffffffffffffffffff021916908373ffffffffffffffffffffffffffffffffffffffff16021790555085600c819055504262015180876200015391906200068a565b6200015f9190620006d5565b600d8190555084600260006101000a81548173ffffffffffffffffffffffffffffffffffffffff021916908373ffffffffffffffffffffffffffffffffffffffff160217905550836005819055508260039081620001be919062000951565b50670de0b6b3a7640000600554620001d791906200068a565b6005819055508160049081620001ee919062000aa8565b5080600660146101000a81548160ff0219169083600581111562000217576200021662000b8f565b5b02179055506001600b60016101000a81548160ff021916908315150217905550505050505050505062000bbe565b6000604051905090565b600080fd5b600080fd5b600073ffffffffffffffffffffffffffffffffffffffff82169050919050565b6000620002868262000259565b9050919050565b620002988162000279565b8114620002a457600080fd5b50565b600081519050620002b8816200028d565b92915050565b6000819050919050565b620002d381620002be565b8114620002df57600080fd5b50565b600081519050620002f381620002c8565b92915050565b600080fd5b600080fd5b6000601f19601f8301169050919050565b7f4e487b7100000000000000000000000000000000000000000000000000000000600052604160045260246000fd5b6200034e8262000303565b810181811067ffffffffffffffff8211171562000370576200036f62000314565b5b80604052505050565b60006200038562000245565b905062000393828262000343565b919050565b600067ffffffffffffffff821115620003b657620003b562000314565b5b620003c18262000303565b9050602081019050919050565b60005b83811015620003ee578082015181840152602081019050620003d1565b60008484015250505050565b6000620004116200040b8462000398565b62000379565b90508281526020810184848401111562000430576200042f620002fe565b5b6200043d848285620003ce565b509392505050565b600082601f8301126200045d576200045c620002f9565b5b81516200046f848260208601620003fa565b91505092915050565b600067ffffffffffffffff82111562000496576200049562000314565b5b620004a18262000303565b9050602081019050919050565b6000620004c5620004bf8462000478565b62000379565b905082815260208101848484011115620004e457620004e3620002fe565b5b620004f1848285620003ce565b509392505050565b600082601f830112620005115762000510620002f9565b5b815162000523848260208601620004ae565b91505092915050565b600681106200053a57600080fd5b50565b6000815190506200054e816200052c565b92915050565b600080600080600080600080610100898b0312156200057857620005776200024f565b5b6000620005888b828c01620002a7565b98505060206200059b8b828c01620002a7565b9750506040620005ae8b828c01620002e2565b9650506060620005c18b828c01620002a7565b9550506080620005d48b828c01620002e2565b94505060a089015167ffffffffffffffff811115620005f857620005f762000254565b5b620006068b828c0162000445565b93505060c089015167ffffffffffffffff8111156200062a576200062962000254565b5b620006388b828c01620004f9565b92505060e06200064b8b828c016200053d565b9150509295985092959890939650565b7f4e487b7100000000000000000000000000000000000000000000000000000000600052601160045260246000fd5b60006200069782620002be565b9150620006a483620002be565b9250828202620006b481620002be565b91508282048414831517620006ce57620006cd6200065b565b5b5092915050565b6000620006e282620002be565b9150620006ef83620002be565b92508282019050808211156200070a57620007096200065b565b5b92915050565b600081519050919050565b7f4e487b7100000000000000000000000000000000000000000000000000000000600052602260045260246000fd5b600060028204905060018216806200076357607f821691505b6020821081036200077957620007786200071b565b5b50919050565b60008190508160005260206000209050919050565b60006020601f8301049050919050565b600082821b905092915050565b600060088302620007e37fffffffffffffffffffffffffffffffffffffffffffffffffffffffffffffffff82620007a4565b620007ef8683620007a4565b95508019841693508086168417925050509392505050565b6000819050919050565b6000620008326200082c6200082684620002be565b62000807565b620002be565b9050919050565b6000819050919050565b6200084e8362000811565b620008666200085d8262000839565b848454620007b1565b825550505050565b600090565b6200087d6200086e565b6200088a81848462000843565b505050565b5b81811015620008b257620008a660008262000873565b60018101905062000890565b5050565b601f8211156200090157620008cb816200077f565b620008d68462000794565b81016020851015620008e6578190505b620008fe620008f58562000794565b8301826200088f565b50505b505050565b600082821c905092915050565b6000620009266000198460080262000906565b1980831691505092915050565b600062000941838362000913565b9150826002028217905092915050565b6200095c8262000710565b67ffffffffffffffff81111562000978576200097762000314565b5b6200098482546200074a565b62000991828285620008b6565b600060209050601f831160018114620009c95760008415620009b4578287015190505b620009c0858262000933565b86555062000a30565b601f198416620009d9866200077f565b60005b8281101562000a0357848901518255600182019150602085019450602081019050620009dc565b8683101562000a23578489015162000a1f601f89168262000913565b8355505b6001600288020188555050505b505050505050565b600081519050919050565b60008190508160005260206000209050919050565b601f82111562000aa35762000a6d8162000a43565b62000a788462000794565b8101602085101562000a88578190505b62000aa062000a978562000794565b8301826200088f565b50505b505050565b62000ab38262000a38565b67ffffffffffffffff81111562000acf5762000ace62000314565b5b62000adb82546200074a565b62000ae882828562000a58565b600060209050601f83116001811462000b20576000841562000b0b578287015190505b62000b17858262000933565b86555062000b87565b601f19841662000b308662000a43565b60005b8281101562000b5a5784890151825560018201915060208501945060208101905062000b33565b8683101562000b7a578489015162000b76601f89168262000913565b8355505b6001600288020188555050505b505050505050565b7f4e487b7100000000000000000000000000000000000000000000000000000000600052602160045260246000fd5b6124f78062000bce6000396000f3fe6080604052600436106101235760003560e01c80636f9fb98a116100a05780639a4d5198116100645780639a4d519814610360578063b0fb6bf51461038b578063bea47a37146103b6578063c7e284b8146103c0578063fbeb46ff146103eb5761012a565b80636f9fb98a146102aa5780637b3e5e7b146102d55780637e534b661461030057806389a302711461030a578063953b8fb8146103355761012a565b80633ccfd60b116100e75780633ccfd60b146101d35780633cfd1ccc146101ea578063481c6a75146102155780635eed3dcb146102405780636b7868a71461027f5761012a565b806306fdde031461012c5780630c91472214610157578063335150a8146101735780633bde5ba81461017d5780633bf8f3b4146101a85761012a565b3661012a57005b005b34801561013857600080fd5b50610141610428565b60405161014e91906119ca565b60405180910390f35b610171600480360381019061016c9190611a27565b6104b6565b005b61017b610adc565b005b34801561018957600080fd5b50610192610d1c565b60405161019f9190611a6f565b60405180910390f35b3480156101b457600080fd5b506101bd610d2f565b6040516101ca9190611acb565b60405180910390f35b3480156101df57600080fd5b506101e8610d55565b005b3480156101f657600080fd5b506101ff6110dd565b60405161020c9190611af5565b60405180910390f35b34801561022157600080fd5b5061022a611180565b6040516102379190611acb565b60405180910390f35b34801561024c57600080fd5b5061026760048036038101906102629190611a27565b6111a6565b60405161027693929190611b10565b60405180910390f35b34801561028b57600080fd5b50610294611200565b6040516102a19190611af5565b60405180910390f35b3480156102b657600080fd5b506102bf61120d565b6040516102cc9190611af5565b60405180910390f35b3480156102e157600080fd5b506102ea6112a3565b6040516102f79190611af5565b60405180910390f35b6103086112a9565b005b34801561031657600080fd5b5061031f61150e565b60405161032c9190611acb565b60405180910390f35b34801561034157600080fd5b5061034a611534565b6040516103579190611af5565b60405180910390f35b34801561036c57600080fd5b5061037561153a565b6040516103829190611acb565b60405180910390f35b34801561039757600080fd5b506103a061155e565b6040516103ad9190611c56565b60405180910390f35b6103be611627565b005b3480156103cc57600080fd5b506103d56118c5565b6040516103e29190611af5565b60405180910390f35b3480156103f757600080fd5b50610412600480360381019061040d9190611ca4565b6118ee565b60405161041f9190611af5565b60405180910390f35b6003805461043590611d00565b80601f016020809104026020016040519081016040528092919081815260200182805461046190611d00565b80156104ae5780601f10610483576101008083540402835291602001916104ae565b820191906000526020600020905b81548152906001019060200180831161049157829003601f168201915b505050505081565b60011515600f6000600660009054906101000a900473ffffffffffffffffffffffffffffffffffffffff1673ffffffffffffffffffffffffffffffffffffffff1673ffffffffffffffffffffffffffffffffffffffff16815260200190815260200160002060009054906101000a900460ff1615150361056b576040517f44519f6800000000000000000000000000000000000000000000000000000000815260040161056290611d7d565b60405180910390fd5b60011515600b60009054906101000a900460ff161515036105c1576040517f46ed27ee0000000000000000000000000000000000000000000000000000000081526004016105b890611de9565b60405180910390fd5b600d54421115610606576040517fe097847d0000000000000000000000000000000000000000000000000000000081526004016105fd90611e55565b60405180910390fd5b60011515600b60019054906101000a900460ff1615151461065c576040517f08c379a000000000000000000000000000000000000000000000000000000000815260040161065390611ec1565b60405180910390fd5b6000670de0b6b3a7640000826106729190611f10565b9050600081116106b7576040517f08c379a00000000000000000000000000000000000000000000000000000000081526004016106ae90611fc4565b60405180910390fd5b60055481600a60008282546106cc9190611fe4565b925050819055106107a657600960009054906101000a900473ffffffffffffffffffffffffffffffffffffffff1673ffffffffffffffffffffffffffffffffffffffff166323b872dd3330846040518463ffffffff1660e01b815260040161073693929190612018565b6020604051808303816000875af1158015610755573d6000803e3d6000fd5b505050506040513d601f19601f82011682018060405250810190610779919061207b565b610786576107856120a8565b5b6001600b60006101000a81548160ff021916908315150217905550610856565b600960009054906101000a900473ffffffffffffffffffffffffffffffffffffffff1673ffffffffffffffffffffffffffffffffffffffff166323b872dd3330846040518463ffffffff1660e01b815260040161080593929190612018565b6020604051808303816000875af1158015610824573d6000803e3d6000fd5b505050506040513d601f19601f82011682018060405250810190610848919061207b565b610855576108546120a8565b5b5b6000600e60003373ffffffffffffffffffffffffffffffffffffffff1673ffffffffffffffffffffffffffffffffffffffff168152602001908152602001600020905060011515601060003373ffffffffffffffffffffffffffffffffffffffff1673ffffffffffffffffffffffffffffffffffffffff16815260200190815260200160002060009054906101000a900460ff1615150361091157828160010160008282546109059190611fe4565b92505081905550610a3a565b338160000160006101000a81548173ffffffffffffffffffffffffffffffffffffffff021916908373ffffffffffffffffffffffffffffffffffffffff160217905550828160010160008282546109689190611fe4565b925050819055504281600201819055506007600081548092919061098b906120d7565b919050555060118190806001815401808255809150506001900390600052602060002090600302016000909190919091506000820160009054906101000a900473ffffffffffffffffffffffffffffffffffffffff168160000160006101000a81548173ffffffffffffffffffffffffffffffffffffffff021916908373ffffffffffffffffffffffffffffffffffffffff160217905550600182015481600101556002820154816002015550505b6001601060003373ffffffffffffffffffffffffffffffffffffffff1673ffffffffffffffffffffffffffffffffffffffff16815260200190815260200160002060006101000a81548160ff02191690831515021790555042833373ffffffffffffffffffffffffffffffffffffffff167f49bb2edd8608e46c3b9823ec2dabe8ddf219c00870a4a112ff60a1a70669f45760405160405180910390a4505050565b3373ffffffffffffffffffffffffffffffffffffffff16600160009054906101000a900473ffffffffffffffffffffffffffffffffffffffff1673ffffffffffffffffffffffffffffffffffffffff1614610b6c576040517f08c379a0000000000000000000000000000000000000000000000000000000008152600401610b639061216b565b60405180910390fd5b60011515600b60009054906101000a900460ff16151503610bc2576040517f46ed27ee000000000000000000000000000000000000000000000000000000008152600401610bb990611de9565b60405180910390fd5b600d544211610c06576040517f08c379a0000000000000000000000000000000000000000000000000000000008152600401610bfd906121d7565b60405180910390fd5b60003411610c49576040517f08c379a0000000000000000000000000000000000000000000000000000000008152600401610c4090612243565b60405180910390fd5b60005b601180549050811015610d1957600260009054906101000a900473ffffffffffffffffffffffffffffffffffffffff1673ffffffffffffffffffffffffffffffffffffffff166340d097c360008054906101000a900473ffffffffffffffffffffffffffffffffffffffff166040518263ffffffff1660e01b8152600401610cd49190611acb565b600060405180830381600087803b158015610cee57600080fd5b505af1158015610d02573d6000803e3d6000fd5b505050508080610d11906120d7565b915050610c4c565b50565b600b60009054906101000a900460ff1681565b600860009054906101000a900473ffffffffffffffffffffffffffffffffffffffff1681565b3373ffffffffffffffffffffffffffffffffffffffff1660008054906101000a900473ffffffffffffffffffffffffffffffffffffffff1673ffffffffffffffffffffffffffffffffffffffff1614610de3576040517f08c379a0000000000000000000000000000000000000000000000000000000008152600401610dda906122d5565b60405180910390fd5b600073ffffffffffffffffffffffffffffffffffffffff163373ffffffffffffffffffffffffffffffffffffffff1603610e52576040517f08c379a0000000000000000000000000000000000000000000000000000000008152600401610e4990612341565b60405180910390fd5b6000600960009054906101000a900473ffffffffffffffffffffffffffffffffffffffff1673ffffffffffffffffffffffffffffffffffffffff166370a08231306040518263ffffffff1660e01b8152600401610eaf9190611acb565b602060405180830381865afa158015610ecc573d6000803e3d6000fd5b505050506040513d601f19601f82011682018060405250810190610ef09190612376565b9050600554811015610f37576040517f08c379a0000000000000000000000000000000000000000000000000000000008152600401610f2e90612415565b60405180910390fd5b600960009054906101000a900473ffffffffffffffffffffffffffffffffffffffff1673ffffffffffffffffffffffffffffffffffffffff1663a9059cbb600660009054906101000a900473ffffffffffffffffffffffffffffffffffffffff16836040518363ffffffff1660e01b8152600401610fb6929190612435565b6020604051808303816000875af1158015610fd5573d6000803e3d6000fd5b505050506040513d601f19601f82011682018060405250810190610ff9919061207b565b506001600f6000600660009054906101000a900473ffffffffffffffffffffffffffffffffffffffff1673ffffffffffffffffffffffffffffffffffffffff1673ffffffffffffffffffffffffffffffffffffffff16815260200190815260200160002060006101000a81548160ff02191690831515021790555080600660009054906101000a900473ffffffffffffffffffffffffffffffffffffffff1673ffffffffffffffffffffffffffffffffffffffff167ff7c8d22184a19fedec4f912372de389d54cbfcb8ee4f98befe14fabe4e549f9560405160405180910390a350565b6000600960009054906101000a900473ffffffffffffffffffffffffffffffffffffffff1673ffffffffffffffffffffffffffffffffffffffff166370a08231306040518263ffffffff1660e01b815260040161113a9190611acb565b602060405180830381865afa158015611157573d6000803e3d6000fd5b505050506040513d601f19601f8201168201806040525081019061117b9190612376565b905090565b600160009054906101000a900473ffffffffffffffffffffffffffffffffffffffff1681565b601181815481106111b657600080fd5b90600052602060002090600302016000915090508060000160009054906101000a900473ffffffffffffffffffffffffffffffffffffffff16908060010154908060020154905083565b6000601180549050905090565b60003373ffffffffffffffffffffffffffffffffffffffff1660008054906101000a900473ffffffffffffffffffffffffffffffffffffffff1673ffffffffffffffffffffffffffffffffffffffff161461129d576040517f08c379a0000000000000000000000000000000000000000000000000000000008152600401611294906122d5565b60405180910390fd5b47905090565b600a5481565b3373ffffffffffffffffffffffffffffffffffffffff16600160009054906101000a900473ffffffffffffffffffffffffffffffffffffffff1673ffffffffffffffffffffffffffffffffffffffff1614611339576040517f08c379a00000000000000000000000000000000000000000000000000000000081526004016113309061216b565b60405180910390fd5b60011515600b60009054906101000a900460ff1615150361138f576040517f46ed27ee00000000000000000000000000000000000000000000000000000000815260040161138690611de9565b60405180910390fd5b600d5442116113d3576040517f08c379a00000000000000000000000000000000000000000000000000000000081526004016113ca906121d7565b60405180910390fd5b60003411611416576040517f08c379a000000000000000000000000000000000000000000000000000000000815260040161140d90612243565b60405180910390fd5b60005b60118054905081101561150b57600260009054906101000a900473ffffffffffffffffffffffffffffffffffffffff1673ffffffffffffffffffffffffffffffffffffffff166340d097c3601183815481106114785761147761245e565b5b906000526020600020906003020160000160009054906101000a900473ffffffffffffffffffffffffffffffffffffffff166040518263ffffffff1660e01b81526004016114c69190611acb565b600060405180830381600087803b1580156114e057600080fd5b505af11580156114f4573d6000803e3d6000fd5b505050508080611503906120d7565b915050611419565b50565b600960009054906101000a900473ffffffffffffffffffffffffffffffffffffffff1681565b60055481565b60008054906101000a900473ffffffffffffffffffffffffffffffffffffffff1681565b60606011805480602002602001604051908101604052809291908181526020016000905b8282101561161e57838290600052602060002090600302016040518060600160405290816000820160009054906101000a900473ffffffffffffffffffffffffffffffffffffffff1673ffffffffffffffffffffffffffffffffffffffff1673ffffffffffffffffffffffffffffffffffffffff1681526020016001820154815260200160028201548152505081526020019060010190611582565b50505050905090565b3373ffffffffffffffffffffffffffffffffffffffff16600160009054906101000a900473ffffffffffffffffffffffffffffffffffffffff1673ffffffffffffffffffffffffffffffffffffffff16146116b7576040517f08c379a00000000000000000000000000000000000000000000000000000000081526004016116ae9061216b565b60405180910390fd5b60011515600b60009054906101000a900460ff1615150361170d576040517f46ed27ee00000000000000000000000000000000000000000000000000000000815260040161170490611de9565b60405180910390fd5b600d544211611751576040517f08c379a0000000000000000000000000000000000000000000000000000000008152600401611748906121d7565b60405180910390fd5b60003411611794576040517f08c379a000000000000000000000000000000000000000000000000000000000815260040161178b90612243565b60405180910390fd5b60005b6011805490508110156118c257600960009054906101000a900473ffffffffffffffffffffffffffffffffffffffff1673ffffffffffffffffffffffffffffffffffffffff1663a9059cbb601183815481106117f6576117f561245e565b5b906000526020600020906003020160000160009054906101000a900473ffffffffffffffffffffffffffffffffffffffff166011848154811061183c5761183b61245e565b5b9060005260206000209060030201600101546040518363ffffffff1660e01b815260040161186b929190612435565b6020604051808303816000875af115801561188a573d6000803e3d6000fd5b505050506040513d601f19601f820116820180604052508101906118ae919061207b565b5080806118ba906120d7565b915050611797565b50565b600042600d5410156118da57600090506118eb565b42600d546118e8919061248d565b90505b90565b6000600e60008373ffffffffffffffffffffffffffffffffffffffff1673ffffffffffffffffffffffffffffffffffffffff168152602001908152602001600020600101549050919050565b600081519050919050565b600082825260208201905092915050565b60005b83811015611974578082015181840152602081019050611959565b60008484015250505050565b6000601f19601f8301169050919050565b600061199c8261193a565b6119a68185611945565b93506119b6818560208601611956565b6119bf81611980565b840191505092915050565b600060208201905081810360008301526119e48184611991565b905092915050565b600080fd5b6000819050919050565b611a04816119f1565b8114611a0f57600080fd5b50565b600081359050611a21816119fb565b92915050565b600060208284031215611a3d57611a3c6119ec565b5b6000611a4b84828501611a12565b91505092915050565b60008115159050919050565b611a6981611a54565b82525050565b6000602082019050611a846000830184611a60565b92915050565b600073ffffffffffffffffffffffffffffffffffffffff82169050919050565b6000611ab582611a8a565b9050919050565b611ac581611aaa565b82525050565b6000602082019050611ae06000830184611abc565b92915050565b611aef816119f1565b82525050565b6000602082019050611b0a6000830184611ae6565b92915050565b6000606082019050611b256000830186611abc565b611b326020830185611ae6565b611b3f6040830184611ae6565b949350505050565b600081519050919050565b600082825260208201905092915050565b6000819050602082019050919050565b611b7c81611aaa565b82525050565b611b8b816119f1565b82525050565b606082016000820151611ba76000850182611b73565b506020820151611bba6020850182611b82565b506040820151611bcd6040850182611b82565b50505050565b6000611bdf8383611b91565b60608301905092915050565b6000602082019050919050565b6000611c0382611b47565b611c0d8185611b52565b9350611c1883611b63565b8060005b83811015611c49578151611c308882611bd3565b9750611c3b83611beb565b925050600181019050611c1c565b5085935050505092915050565b60006020820190508181036000830152611c708184611bf8565b905092915050565b611c8181611aaa565b8114611c8c57600080fd5b50565b600081359050611c9e81611c78565b92915050565b600060208284031215611cba57611cb96119ec565b5b6000611cc884828501611c8f565b91505092915050565b7f4e487b7100000000000000000000000000000000000000000000000000000000600052602260045260246000fd5b60006002820490506001821680611d1857607f821691505b602082108103611d2b57611d2a611cd1565b5b50919050565b7f446f6e6174696f6e2068617320656e6465642c20726561636820676f616c7300600082015250565b6000611d67601f83611945565b9150611d7282611d31565b602082019050919050565b60006020820190508181036000830152611d9681611d5a565b9050919050565b7f54617267657420526561636865642e205468616e6b20796f7500000000000000600082015250565b6000611dd3601983611945565b9150611dde82611d9d565b602082019050919050565b60006020820190508181036000830152611e0281611dc6565b9050919050565b7f736f7272792c20646561646c696e6520656c6170736564000000000000000000600082015250565b6000611e3f601783611945565b9150611e4a82611e09565b602082019050919050565b60006020820190508181036000830152611e6e81611e32565b9050919050565b7f206e6f7420637265617465640000000000000000000000000000000000000000600082015250565b6000611eab600c83611945565b9150611eb682611e75565b602082019050919050565b60006020820190508181036000830152611eda81611e9e565b9050919050565b7f4e487b7100000000000000000000000000000000000000000000000000000000600052601160045260246000fd5b6000611f1b826119f1565b9150611f26836119f1565b9250828202611f34816119f1565b91508282048414831517611f4b57611f4a611ee1565b5b5092915050565b7f416d6f756e742073686f756c642062652067726561746572207468616e207a6560008201527f726f210000000000000000000000000000000000000000000000000000000000602082015250565b6000611fae602383611945565b9150611fb982611f52565b604082019050919050565b60006020820190508181036000830152611fdd81611fa1565b9050919050565b6000611fef826119f1565b9150611ffa836119f1565b925082820190508082111561201257612011611ee1565b5b92915050565b600060608201905061202d6000830186611abc565b61203a6020830185611abc565b6120476040830184611ae6565b949350505050565b61205881611a54565b811461206357600080fd5b50565b6000815190506120758161204f565b92915050565b600060208284031215612091576120906119ec565b5b600061209f84828501612066565b91505092915050565b7f4e487b7100000000000000000000000000000000000000000000000000000000600052600160045260246000fd5b60006120e2826119f1565b91507fffffffffffffffffffffffffffffffffffffffffffffffffffffffffffffffff820361211457612113611ee1565b5b600182019050919050565b7f796f7520617265206e6f74207065726d69747465640000000000000000000000600082015250565b6000612155601583611945565b91506121608261211f565b602082019050919050565b6000602082019050818103600083015261218481612148565b9050919050565b7f54496d6520666f7220646f6e6174696f6e207374696c6c206f6e000000000000600082015250565b60006121c1601a83611945565b91506121cc8261218b565b602082019050919050565b600060208201905081810360008301526121f0816121b4565b9050919050565b7f657468657220666f72207472616e73616374696f6e20636f7374000000000000600082015250565b600061222d601a83611945565b9150612238826121f7565b602082019050919050565b6000602082019050818103600083015261225c81612220565b9050919050565b7f596f7520617265206e6f74207065726d697474656420746f20706572666f726d60008201527f2074686973206f7065726174696f6e2100000000000000000000000000000000602082015250565b60006122bf603083611945565b91506122ca82612263565b604082019050919050565b600060208201905081810360008301526122ee816122b2565b9050919050565b7f696e76616c696420616464726573730000000000000000000000000000000000600082015250565b600061232b600f83611945565b9150612336826122f5565b602082019050919050565b6000602082019050818103600083015261235a8161231e565b9050919050565b600081519050612370816119fb565b92915050565b60006020828403121561238c5761238b6119ec565b5b600061239a84828501612361565b91505092915050565b7f43726f776446756e64696e67206973206e6f7420636f6d706c6574652079657460008201527f2100000000000000000000000000000000000000000000000000000000000000602082015250565b60006123ff602183611945565b915061240a826123a3565b604082019050919050565b6000602082019050818103600083015261242e816123f2565b9050919050565b600060408201905061244a6000830185611abc565b6124576020830184611ae6565b9392505050565b7f4e487b7100000000000000000000000000000000000000000000000000000000600052603260045260246000fd5b6000612498826119f1565b91506124a3836119f1565b92508282039050818111156124bb576124ba611ee1565b5b9291505056fea264697066735822122070ab30382812937dfc88b029f50fd8c90f87a7ecd5bc72b7c66824787ec26afe64736f6c63430008110033a2646970667358221220ea12a716b47bcca104845436696cbc32556afd5087e31894e9c8707fa289b07b64736f6c63430008110033",
  "linkReferences": {},
  "deployedLinkReferences": {}
}