{
  "_format": "hh-sol-artifact-1",
  "contractName": "CrowdFund",
  "sourceName": "contracts/CrowdFund.sol",
  "abi": [
    {
      "inputs": [
        {
          "internalType": "address",
          "name": "_USDC",
          "type": "address"
        },
        {
          "internalType": "address",
          "name": "_ownersAddress",
          "type": "address"
        },
        {
          "internalType": "uint256",
          "name": "_time",
          "type": "uint256"
        },
        {
          "internalType": "address",
          "name": "_nft",
          "type": "address"
        },
        {
          "internalType": "uint256",
          "name": "_amountProposed",
          "type": "uint256"
        },
        {
          "internalType": "string",
          "name": "_topic",
          "type": "string"
        }
      ],
      "stateMutability": "nonpayable",
      "type": "constructor"
    },
    {
      "inputs": [
        {
          "internalType": "string",
          "name": "",
          "type": "string"
        }
      ],
      "name": "deadlineElapsed",
      "type": "error"
    },
    {
      "inputs": [
        {
          "internalType": "string",
          "name": "",
          "type": "string"
        }
      ],
      "name": "reached",
      "type": "error"
    },
    {
      "inputs": [
        {
          "internalType": "string",
          "name": "",
          "type": "string"
        }
      ],
      "name": "withdrawn",
      "type": "error"
    },
    {
      "anonymous": false,
      "inputs": [
        {
          "indexed": true,
          "internalType": "address",
          "name": "_benef",
          "type": "address"
        },
        {
          "indexed": true,
          "internalType": "uint256",
          "name": "_targ",
          "type": "uint256"
        },
        {
          "indexed": true,
          "internalType": "string",
          "name": "name",
          "type": "string"
        },
        {
          "indexed": false,
          "internalType": "enum CrowdFund.Category",
          "name": "_cat",
          "type": "uint8"
        }
      ],
      "name": "CreateCrowdFund",
      "type": "event"
    },
    {
      "anonymous": false,
      "inputs": [
        {
          "indexed": true,
          "internalType": "address",
          "name": "donor",
          "type": "address"
        },
        {
          "indexed": true,
          "internalType": "uint256",
          "name": "amount",
          "type": "uint256"
        },
        {
          "indexed": true,
          "internalType": "uint256",
          "name": "time",
          "type": "uint256"
        }
      ],
      "name": "Donate",
      "type": "event"
    },
    {
      "anonymous": false,
      "inputs": [
        {
          "indexed": true,
          "internalType": "address",
          "name": "_benef",
          "type": "address"
        },
        {
          "indexed": true,
          "internalType": "uint256",
          "name": "amount",
          "type": "uint256"
        }
      ],
      "name": "withdrawFund",
      "type": "event"
    },
    {
      "stateMutability": "payable",
      "type": "fallback"
    },
    {
      "inputs": [],
      "name": "USDC",
      "outputs": [
        {
          "internalType": "address",
          "name": "",
          "type": "address"
        }
      ],
      "stateMutability": "view",
      "type": "function"
    },
    {
      "inputs": [
        {
          "internalType": "address",
          "name": "_donor",
          "type": "address"
        }
      ],
      "name": "amountDonated",
      "outputs": [
        {
          "internalType": "uint256",
          "name": "",
          "type": "uint256"
        }
      ],
      "stateMutability": "view",
      "type": "function"
    },
    {
      "inputs": [],
      "name": "amountRaised",
      "outputs": [
        {
          "internalType": "uint256",
          "name": "",
          "type": "uint256"
        }
      ],
      "stateMutability": "view",
      "type": "function"
    },
    {
      "inputs": [
        {
          "internalType": "address",
          "name": "_beneficiary",
          "type": "address"
        },
        {
          "internalType": "enum CrowdFund.Category",
          "name": "_cat",
          "type": "uint8"
        }
      ],
      "name": "createCrowdFund",
      "outputs": [],
      "stateMutability": "nonpayable",
      "type": "function"
    },
    {
      "inputs": [],
      "name": "crowdFundOwner",
      "outputs": [
        {
          "internalType": "address",
          "name": "",
          "type": "address"
        }
      ],
      "stateMutability": "view",
      "type": "function"
    },
    {
      "inputs": [],
      "name": "crowdfundAddr",
      "outputs": [
        {
          "internalType": "address",
          "name": "",
          "type": "address"
        }
      ],
      "stateMutability": "view",
      "type": "function"
    },
    {
      "inputs": [],
      "name": "disburseDonation",
      "outputs": [],
      "stateMutability": "payable",
      "type": "function"
    },
    {
      "inputs": [
        {
          "internalType": "uint256",
          "name": "_amount",
          "type": "uint256"
        }
      ],
      "name": "donateFund",
      "outputs": [],
      "stateMutability": "payable",
      "type": "function"
    },
    {
      "inputs": [],
      "name": "donatorsNft",
      "outputs": [],
      "stateMutability": "payable",
      "type": "function"
    },
    {
      "inputs": [
        {
          "internalType": "uint256",
          "name": "",
          "type": "uint256"
        }
      ],
      "name": "donorList",
      "outputs": [
        {
          "internalType": "address",
          "name": "addr",
          "type": "address"
        },
        {
          "internalType": "uint256",
          "name": "amount",
          "type": "uint256"
        },
        {
          "internalType": "uint256",
          "name": "time",
          "type": "uint256"
        }
      ],
      "stateMutability": "view",
      "type": "function"
    },
    {
      "inputs": [],
      "name": "getAllDonor",
      "outputs": [
        {
          "components": [
            {
              "internalType": "address",
              "name": "addr",
              "type": "address"
            },
            {
              "internalType": "uint256",
              "name": "amount",
              "type": "uint256"
            },
            {
              "internalType": "uint256",
              "name": "time",
              "type": "uint256"
            }
          ],
          "internalType": "struct CrowdFund.DonatedInfo[]",
          "name": "",
          "type": "tuple[]"
        }
      ],
      "stateMutability": "view",
      "type": "function"
    },
    {
      "inputs": [],
      "name": "getContractBalance",
      "outputs": [
        {
          "internalType": "uint256",
          "name": "",
          "type": "uint256"
        }
      ],
      "stateMutability": "view",
      "type": "function"
    },
    {
      "inputs": [],
      "name": "getDonorLenght",
      "outputs": [
        {
          "internalType": "uint256",
          "name": "",
          "type": "uint256"
        }
      ],
      "stateMutability": "view",
      "type": "function"
    },
    {
      "inputs": [],
      "name": "getTimeLeft",
      "outputs": [
        {
          "internalType": "uint256",
          "name": "",
          "type": "uint256"
        }
      ],
      "stateMutability": "view",
      "type": "function"
    },
    {
      "inputs": [],
      "name": "getUSDCBalance",
      "outputs": [
        {
          "internalType": "uint256",
          "name": "",
          "type": "uint256"
        }
      ],
      "stateMutability": "view",
      "type": "function"
    },
    {
      "inputs": [],
      "name": "manager",
      "outputs": [
        {
          "internalType": "address",
          "name": "",
          "type": "address"
        }
      ],
      "stateMutability": "view",
      "type": "function"
    },
    {
      "inputs": [],
      "name": "name",
      "outputs": [
        {
          "internalType": "string",
          "name": "",
          "type": "string"
        }
      ],
      "stateMutability": "view",
      "type": "function"
    },
    {
      "inputs": [],
      "name": "ownersNFT",
      "outputs": [],
      "stateMutability": "payable",
      "type": "function"
    },
    {
      "inputs": [],
      "name": "targetAmount",
      "outputs": [
        {
          "internalType": "uint256",
          "name": "",
          "type": "uint256"
        }
      ],
      "stateMutability": "view",
      "type": "function"
    },
    {
      "inputs": [],
      "name": "targetReached",
      "outputs": [
        {
          "internalType": "bool",
          "name": "",
          "type": "bool"
        }
      ],
      "stateMutability": "view",
      "type": "function"
    },
    {
      "inputs": [],
      "name": "withdraw",
      "outputs": [],
      "stateMutability": "nonpayable",
      "type": "function"
    },
    {
      "stateMutability": "payable",
      "type": "receive"
    }
  ],
  "bytecode": "0x60806040523480156200001157600080fd5b5060405162003168380380620031688339818101604052810190620000379190620003da565b846000806101000a81548173ffffffffffffffffffffffffffffffffffffffff021916908373ffffffffffffffffffffffffffffffffffffffff16021790555033600160006101000a81548173ffffffffffffffffffffffffffffffffffffffff021916908373ffffffffffffffffffffffffffffffffffffffff16021790555030600760006101000a81548173ffffffffffffffffffffffffffffffffffffffff021916908373ffffffffffffffffffffffffffffffffffffffff16021790555085600860006101000a81548173ffffffffffffffffffffffffffffffffffffffff021916908373ffffffffffffffffffffffffffffffffffffffff16021790555083600b8190555082600260006101000a81548173ffffffffffffffffffffffffffffffffffffffff021916908373ffffffffffffffffffffffffffffffffffffffff1602179055508160048190555080600390816200019a9190620006d6565b50505050505050620007bd565b6000604051905090565b600080fd5b600080fd5b600073ffffffffffffffffffffffffffffffffffffffff82169050919050565b6000620001e882620001bb565b9050919050565b620001fa81620001db565b81146200020657600080fd5b50565b6000815190506200021a81620001ef565b92915050565b6000819050919050565b620002358162000220565b81146200024157600080fd5b50565b60008151905062000255816200022a565b92915050565b600080fd5b600080fd5b6000601f19601f8301169050919050565b7f4e487b7100000000000000000000000000000000000000000000000000000000600052604160045260246000fd5b620002b08262000265565b810181811067ffffffffffffffff82111715620002d257620002d162000276565b5b80604052505050565b6000620002e7620001a7565b9050620002f58282620002a5565b919050565b600067ffffffffffffffff82111562000318576200031762000276565b5b620003238262000265565b9050602081019050919050565b60005b838110156200035057808201518184015260208101905062000333565b60008484015250505050565b6000620003736200036d84620002fa565b620002db565b90508281526020810184848401111562000392576200039162000260565b5b6200039f84828562000330565b509392505050565b600082601f830112620003bf57620003be6200025b565b5b8151620003d18482602086016200035c565b91505092915050565b60008060008060008060c08789031215620003fa57620003f9620001b1565b5b60006200040a89828a0162000209565b96505060206200041d89828a0162000209565b95505060406200043089828a0162000244565b94505060606200044389828a0162000209565b93505060806200045689828a0162000244565b92505060a087015167ffffffffffffffff8111156200047a5762000479620001b6565b5b6200048889828a01620003a7565b9150509295509295509295565b600081519050919050565b7f4e487b7100000000000000000000000000000000000000000000000000000000600052602260045260246000fd5b60006002820490506001821680620004e857607f821691505b602082108103620004fe57620004fd620004a0565b5b50919050565b60008190508160005260206000209050919050565b60006020601f8301049050919050565b600082821b905092915050565b600060088302620005687fffffffffffffffffffffffffffffffffffffffffffffffffffffffffffffffff8262000529565b62000574868362000529565b95508019841693508086168417925050509392505050565b6000819050919050565b6000620005b7620005b1620005ab8462000220565b6200058c565b62000220565b9050919050565b6000819050919050565b620005d38362000596565b620005eb620005e282620005be565b84845462000536565b825550505050565b600090565b62000602620005f3565b6200060f818484620005c8565b505050565b5b8181101562000637576200062b600082620005f8565b60018101905062000615565b5050565b601f8211156200068657620006508162000504565b6200065b8462000519565b810160208510156200066b578190505b620006836200067a8562000519565b83018262000614565b50505b505050565b600082821c905092915050565b6000620006ab600019846008026200068b565b1980831691505092915050565b6000620006c6838362000698565b9150826002028217905092915050565b620006e18262000495565b67ffffffffffffffff811115620006fd57620006fc62000276565b5b620007098254620004cf565b620007168282856200063b565b600060209050601f8311600181146200074e576000841562000739578287015190505b620007458582620006b8565b865550620007b5565b601f1984166200075e8662000504565b60005b82811015620007885784890151825560018201915060208501945060208101905062000761565b86831015620007a85784890151620007a4601f89168262000698565b8355505b6001600288020188555050505b505050505050565b61299b80620007cd6000396000f3fe60806040526004361061012e5760003560e01c80636b7868a7116100ab578063953b8fb81161006f578063953b8fb8146103695780639a4d519814610394578063b0fb6bf5146103bf578063bea47a37146103ea578063c7e284b8146103f4578063fbeb46ff1461041f57610135565b80636b7868a7146102b35780636f9fb98a146102de5780637b3e5e7b146103095780637e534b661461033457806389a302711461033e57610135565b80633ccfd60b116100f25780633ccfd60b146101de5780633cfd1ccc146101f5578063481c6a7514610220578063577ac77c1461024b5780635eed3dcb1461027457610135565b806306fdde03146101375780630c91472214610162578063335150a81461017e5780633bde5ba8146101885780633bf8f3b4146101b357610135565b3661013557005b005b34801561014357600080fd5b5061014c61045c565b6040516101599190611c2b565b60405180910390f35b61017c60048036038101906101779190611c88565b6104ea565b005b610186610b10565b005b34801561019457600080fd5b5061019d610d50565b6040516101aa9190611cd0565b60405180910390f35b3480156101bf57600080fd5b506101c8610d63565b6040516101d59190611d2c565b60405180910390f35b3480156101ea57600080fd5b506101f3610d89565b005b34801561020157600080fd5b5061020a611111565b6040516102179190611d56565b60405180910390f35b34801561022c57600080fd5b506102356111b4565b6040516102429190611d2c565b60405180910390f35b34801561025757600080fd5b50610272600480360381019061026d9190611dc2565b6111da565b005b34801561028057600080fd5b5061029b60048036038101906102969190611c88565b611407565b6040516102aa93929190611e02565b60405180910390f35b3480156102bf57600080fd5b506102c8611461565b6040516102d59190611d56565b60405180910390f35b3480156102ea57600080fd5b506102f361146e565b6040516103009190611d56565b60405180910390f35b34801561031557600080fd5b5061031e611504565b60405161032b9190611d56565b60405180910390f35b61033c61150a565b005b34801561034a57600080fd5b5061035361176f565b6040516103609190611d2c565b60405180910390f35b34801561037557600080fd5b5061037e611795565b60405161038b9190611d56565b60405180910390f35b3480156103a057600080fd5b506103a961179b565b6040516103b69190611d2c565b60405180910390f35b3480156103cb57600080fd5b506103d46117bf565b6040516103e19190611f48565b60405180910390f35b6103f2611888565b005b34801561040057600080fd5b50610409611b26565b6040516104169190611d56565b60405180910390f35b34801561042b57600080fd5b5061044660048036038101906104419190611f6a565b611b4f565b6040516104539190611d56565b60405180910390f35b6003805461046990611fc6565b80601f016020809104026020016040519081016040528092919081815260200182805461049590611fc6565b80156104e25780601f106104b7576101008083540402835291602001916104e2565b820191906000526020600020905b8154815290600101906020018083116104c557829003601f168201915b505050505081565b60011515600e6000600560009054906101000a900473ffffffffffffffffffffffffffffffffffffffff1673ffffffffffffffffffffffffffffffffffffffff1673ffffffffffffffffffffffffffffffffffffffff16815260200190815260200160002060009054906101000a900460ff1615150361059f576040517f44519f6800000000000000000000000000000000000000000000000000000000815260040161059690612043565b60405180910390fd5b60011515600a60009054906101000a900460ff161515036105f5576040517f46ed27ee0000000000000000000000000000000000000000000000000000000081526004016105ec906120af565b60405180910390fd5b600c5442111561063a576040517fe097847d0000000000000000000000000000000000000000000000000000000081526004016106319061211b565b60405180910390fd5b60011515600a60019054906101000a900460ff16151514610690576040517f08c379a000000000000000000000000000000000000000000000000000000000815260040161068790612187565b60405180910390fd5b6000670de0b6b3a7640000826106a691906121d6565b9050600081116106eb576040517f08c379a00000000000000000000000000000000000000000000000000000000081526004016106e29061228a565b60405180910390fd5b600454816009600082825461070091906122aa565b925050819055106107da57600860009054906101000a900473ffffffffffffffffffffffffffffffffffffffff1673ffffffffffffffffffffffffffffffffffffffff166323b872dd3330846040518463ffffffff1660e01b815260040161076a939291906122de565b6020604051808303816000875af1158015610789573d6000803e3d6000fd5b505050506040513d601f19601f820116820180604052508101906107ad9190612341565b6107ba576107b961236e565b5b6001600a60006101000a81548160ff02191690831515021790555061088a565b600860009054906101000a900473ffffffffffffffffffffffffffffffffffffffff1673ffffffffffffffffffffffffffffffffffffffff166323b872dd3330846040518463ffffffff1660e01b8152600401610839939291906122de565b6020604051808303816000875af1158015610858573d6000803e3d6000fd5b505050506040513d601f19601f8201168201806040525081019061087c9190612341565b6108895761088861236e565b5b5b6000600d60003373ffffffffffffffffffffffffffffffffffffffff1673ffffffffffffffffffffffffffffffffffffffff168152602001908152602001600020905060011515600f60003373ffffffffffffffffffffffffffffffffffffffff1673ffffffffffffffffffffffffffffffffffffffff16815260200190815260200160002060009054906101000a900460ff16151503610945578281600101600082825461093991906122aa565b92505081905550610a6e565b338160000160006101000a81548173ffffffffffffffffffffffffffffffffffffffff021916908373ffffffffffffffffffffffffffffffffffffffff1602179055508281600101600082825461099c91906122aa565b92505081905550428160020181905550600660008154809291906109bf9061239d565b919050555060108190806001815401808255809150506001900390600052602060002090600302016000909190919091506000820160009054906101000a900473ffffffffffffffffffffffffffffffffffffffff168160000160006101000a81548173ffffffffffffffffffffffffffffffffffffffff021916908373ffffffffffffffffffffffffffffffffffffffff160217905550600182015481600101556002820154816002015550505b6001600f60003373ffffffffffffffffffffffffffffffffffffffff1673ffffffffffffffffffffffffffffffffffffffff16815260200190815260200160002060006101000a81548160ff02191690831515021790555042833373ffffffffffffffffffffffffffffffffffffffff167f49bb2edd8608e46c3b9823ec2dabe8ddf219c00870a4a112ff60a1a70669f45760405160405180910390a4505050565b3373ffffffffffffffffffffffffffffffffffffffff16600160009054906101000a900473ffffffffffffffffffffffffffffffffffffffff1673ffffffffffffffffffffffffffffffffffffffff1614610ba0576040517f08c379a0000000000000000000000000000000000000000000000000000000008152600401610b9790612431565b60405180910390fd5b60011515600a60009054906101000a900460ff16151503610bf6576040517f46ed27ee000000000000000000000000000000000000000000000000000000008152600401610bed906120af565b60405180910390fd5b600c544211610c3a576040517f08c379a0000000000000000000000000000000000000000000000000000000008152600401610c319061249d565b60405180910390fd5b60003411610c7d576040517f08c379a0000000000000000000000000000000000000000000000000000000008152600401610c7490612509565b60405180910390fd5b60005b601080549050811015610d4d57600260009054906101000a900473ffffffffffffffffffffffffffffffffffffffff1673ffffffffffffffffffffffffffffffffffffffff166340d097c360008054906101000a900473ffffffffffffffffffffffffffffffffffffffff166040518263ffffffff1660e01b8152600401610d089190611d2c565b600060405180830381600087803b158015610d2257600080fd5b505af1158015610d36573d6000803e3d6000fd5b505050508080610d459061239d565b915050610c80565b50565b600a60009054906101000a900460ff1681565b600760009054906101000a900473ffffffffffffffffffffffffffffffffffffffff1681565b3373ffffffffffffffffffffffffffffffffffffffff1660008054906101000a900473ffffffffffffffffffffffffffffffffffffffff1673ffffffffffffffffffffffffffffffffffffffff1614610e17576040517f08c379a0000000000000000000000000000000000000000000000000000000008152600401610e0e9061259b565b60405180910390fd5b600073ffffffffffffffffffffffffffffffffffffffff163373ffffffffffffffffffffffffffffffffffffffff1603610e86576040517f08c379a0000000000000000000000000000000000000000000000000000000008152600401610e7d90612607565b60405180910390fd5b6000600860009054906101000a900473ffffffffffffffffffffffffffffffffffffffff1673ffffffffffffffffffffffffffffffffffffffff166370a08231306040518263ffffffff1660e01b8152600401610ee39190611d2c565b602060405180830381865afa158015610f00573d6000803e3d6000fd5b505050506040513d601f19601f82011682018060405250810190610f24919061263c565b9050600454811015610f6b576040517f08c379a0000000000000000000000000000000000000000000000000000000008152600401610f62906126db565b60405180910390fd5b600860009054906101000a900473ffffffffffffffffffffffffffffffffffffffff1673ffffffffffffffffffffffffffffffffffffffff1663a9059cbb600560009054906101000a900473ffffffffffffffffffffffffffffffffffffffff16836040518363ffffffff1660e01b8152600401610fea9291906126fb565b6020604051808303816000875af1158015611009573d6000803e3d6000fd5b505050506040513d601f19601f8201168201806040525081019061102d9190612341565b506001600e6000600560009054906101000a900473ffffffffffffffffffffffffffffffffffffffff1673ffffffffffffffffffffffffffffffffffffffff1673ffffffffffffffffffffffffffffffffffffffff16815260200190815260200160002060006101000a81548160ff02191690831515021790555080600560009054906101000a900473ffffffffffffffffffffffffffffffffffffffff1673ffffffffffffffffffffffffffffffffffffffff167ff7c8d22184a19fedec4f912372de389d54cbfcb8ee4f98befe14fabe4e549f9560405160405180910390a350565b6000600860009054906101000a900473ffffffffffffffffffffffffffffffffffffffff1673ffffffffffffffffffffffffffffffffffffffff166370a08231306040518263ffffffff1660e01b815260040161116e9190611d2c565b602060405180830381865afa15801561118b573d6000803e3d6000fd5b505050506040513d601f19601f820116820180604052508101906111af919061263c565b905090565b600160009054906101000a900473ffffffffffffffffffffffffffffffffffffffff1681565b3373ffffffffffffffffffffffffffffffffffffffff1660008054906101000a900473ffffffffffffffffffffffffffffffffffffffff1673ffffffffffffffffffffffffffffffffffffffff1614611268576040517f08c379a000000000000000000000000000000000000000000000000000000000815260040161125f9061259b565b60405180910390fd5b600073ffffffffffffffffffffffffffffffffffffffff168273ffffffffffffffffffffffffffffffffffffffff16036112d7576040517f08c379a00000000000000000000000000000000000000000000000000000000081526004016112ce90612796565b60405180910390fd5b670de0b6b3a76400006004546112ed91906121d6565b60048190555081600560006101000a81548173ffffffffffffffffffffffffffffffffffffffff021916908373ffffffffffffffffffffffffffffffffffffffff16021790555080600560146101000a81548160ff02191690836005811115611359576113586127b6565b5b02179055506001600a60016101000a81548160ff0219169083151502179055504262015180600b5461138b91906121d6565b61139591906122aa565b600c8190555060036040516113aa9190612888565b60405180910390206004548373ffffffffffffffffffffffffffffffffffffffff167fa00cd2723ebf501f926e3a413c853d2c0ea229f632f8329c7f905e1046f779c3846040516113fb91906128e7565b60405180910390a45050565b6010818154811061141757600080fd5b90600052602060002090600302016000915090508060000160009054906101000a900473ffffffffffffffffffffffffffffffffffffffff16908060010154908060020154905083565b6000601080549050905090565b60003373ffffffffffffffffffffffffffffffffffffffff1660008054906101000a900473ffffffffffffffffffffffffffffffffffffffff1673ffffffffffffffffffffffffffffffffffffffff16146114fe576040517f08c379a00000000000000000000000000000000000000000000000000000000081526004016114f59061259b565b60405180910390fd5b47905090565b60095481565b3373ffffffffffffffffffffffffffffffffffffffff16600160009054906101000a900473ffffffffffffffffffffffffffffffffffffffff1673ffffffffffffffffffffffffffffffffffffffff161461159a576040517f08c379a000000000000000000000000000000000000000000000000000000000815260040161159190612431565b60405180910390fd5b60011515600a60009054906101000a900460ff161515036115f0576040517f46ed27ee0000000000000000000000000000000000000000000000000000000081526004016115e7906120af565b60405180910390fd5b600c544211611634576040517f08c379a000000000000000000000000000000000000000000000000000000000815260040161162b9061249d565b60405180910390fd5b60003411611677576040517f08c379a000000000000000000000000000000000000000000000000000000000815260040161166e90612509565b60405180910390fd5b60005b60108054905081101561176c57600260009054906101000a900473ffffffffffffffffffffffffffffffffffffffff1673ffffffffffffffffffffffffffffffffffffffff166340d097c3601083815481106116d9576116d8612902565b5b906000526020600020906003020160000160009054906101000a900473ffffffffffffffffffffffffffffffffffffffff166040518263ffffffff1660e01b81526004016117279190611d2c565b600060405180830381600087803b15801561174157600080fd5b505af1158015611755573d6000803e3d6000fd5b5050505080806117649061239d565b91505061167a565b50565b600860009054906101000a900473ffffffffffffffffffffffffffffffffffffffff1681565b60045481565b60008054906101000a900473ffffffffffffffffffffffffffffffffffffffff1681565b60606010805480602002602001604051908101604052809291908181526020016000905b8282101561187f57838290600052602060002090600302016040518060600160405290816000820160009054906101000a900473ffffffffffffffffffffffffffffffffffffffff1673ffffffffffffffffffffffffffffffffffffffff1673ffffffffffffffffffffffffffffffffffffffff16815260200160018201548152602001600282015481525050815260200190600101906117e3565b50505050905090565b3373ffffffffffffffffffffffffffffffffffffffff16600160009054906101000a900473ffffffffffffffffffffffffffffffffffffffff1673ffffffffffffffffffffffffffffffffffffffff1614611918576040517f08c379a000000000000000000000000000000000000000000000000000000000815260040161190f90612431565b60405180910390fd5b60011515600a60009054906101000a900460ff1615150361196e576040517f46ed27ee000000000000000000000000000000000000000000000000000000008152600401611965906120af565b60405180910390fd5b600c5442116119b2576040517f08c379a00000000000000000000000000000000000000000000000000000000081526004016119a99061249d565b60405180910390fd5b600034116119f5576040517f08c379a00000000000000000000000000000000000000000000000000000000081526004016119ec90612509565b60405180910390fd5b60005b601080549050811015611b2357600860009054906101000a900473ffffffffffffffffffffffffffffffffffffffff1673ffffffffffffffffffffffffffffffffffffffff1663a9059cbb60108381548110611a5757611a56612902565b5b906000526020600020906003020160000160009054906101000a900473ffffffffffffffffffffffffffffffffffffffff1660108481548110611a9d57611a9c612902565b5b9060005260206000209060030201600101546040518363ffffffff1660e01b8152600401611acc9291906126fb565b6020604051808303816000875af1158015611aeb573d6000803e3d6000fd5b505050506040513d601f19601f82011682018060405250810190611b0f9190612341565b508080611b1b9061239d565b9150506119f8565b50565b600042600c541015611b3b5760009050611b4c565b42600c54611b499190612931565b90505b90565b6000600d60008373ffffffffffffffffffffffffffffffffffffffff1673ffffffffffffffffffffffffffffffffffffffff168152602001908152602001600020600101549050919050565b600081519050919050565b600082825260208201905092915050565b60005b83811015611bd5578082015181840152602081019050611bba565b60008484015250505050565b6000601f19601f8301169050919050565b6000611bfd82611b9b565b611c078185611ba6565b9350611c17818560208601611bb7565b611c2081611be1565b840191505092915050565b60006020820190508181036000830152611c458184611bf2565b905092915050565b600080fd5b6000819050919050565b611c6581611c52565b8114611c7057600080fd5b50565b600081359050611c8281611c5c565b92915050565b600060208284031215611c9e57611c9d611c4d565b5b6000611cac84828501611c73565b91505092915050565b60008115159050919050565b611cca81611cb5565b82525050565b6000602082019050611ce56000830184611cc1565b92915050565b600073ffffffffffffffffffffffffffffffffffffffff82169050919050565b6000611d1682611ceb565b9050919050565b611d2681611d0b565b82525050565b6000602082019050611d416000830184611d1d565b92915050565b611d5081611c52565b82525050565b6000602082019050611d6b6000830184611d47565b92915050565b611d7a81611d0b565b8114611d8557600080fd5b50565b600081359050611d9781611d71565b92915050565b60068110611daa57600080fd5b50565b600081359050611dbc81611d9d565b92915050565b60008060408385031215611dd957611dd8611c4d565b5b6000611de785828601611d88565b9250506020611df885828601611dad565b9150509250929050565b6000606082019050611e176000830186611d1d565b611e246020830185611d47565b611e316040830184611d47565b949350505050565b600081519050919050565b600082825260208201905092915050565b6000819050602082019050919050565b611e6e81611d0b565b82525050565b611e7d81611c52565b82525050565b606082016000820151611e996000850182611e65565b506020820151611eac6020850182611e74565b506040820151611ebf6040850182611e74565b50505050565b6000611ed18383611e83565b60608301905092915050565b6000602082019050919050565b6000611ef582611e39565b611eff8185611e44565b9350611f0a83611e55565b8060005b83811015611f3b578151611f228882611ec5565b9750611f2d83611edd565b925050600181019050611f0e565b5085935050505092915050565b60006020820190508181036000830152611f628184611eea565b905092915050565b600060208284031215611f8057611f7f611c4d565b5b6000611f8e84828501611d88565b91505092915050565b7f4e487b7100000000000000000000000000000000000000000000000000000000600052602260045260246000fd5b60006002820490506001821680611fde57607f821691505b602082108103611ff157611ff0611f97565b5b50919050565b7f446f6e6174696f6e2068617320656e6465642c20726561636820676f616c7300600082015250565b600061202d601f83611ba6565b915061203882611ff7565b602082019050919050565b6000602082019050818103600083015261205c81612020565b9050919050565b7f54617267657420526561636865642e205468616e6b20796f7500000000000000600082015250565b6000612099601983611ba6565b91506120a482612063565b602082019050919050565b600060208201905081810360008301526120c88161208c565b9050919050565b7f736f7272792c20646561646c696e6520656c6170736564000000000000000000600082015250565b6000612105601783611ba6565b9150612110826120cf565b602082019050919050565b60006020820190508181036000830152612134816120f8565b9050919050565b7f206e6f7420637265617465640000000000000000000000000000000000000000600082015250565b6000612171600c83611ba6565b915061217c8261213b565b602082019050919050565b600060208201905081810360008301526121a081612164565b9050919050565b7f4e487b7100000000000000000000000000000000000000000000000000000000600052601160045260246000fd5b60006121e182611c52565b91506121ec83611c52565b92508282026121fa81611c52565b91508282048414831517612211576122106121a7565b5b5092915050565b7f416d6f756e742073686f756c642062652067726561746572207468616e207a6560008201527f726f210000000000000000000000000000000000000000000000000000000000602082015250565b6000612274602383611ba6565b915061227f82612218565b604082019050919050565b600060208201905081810360008301526122a381612267565b9050919050565b60006122b582611c52565b91506122c083611c52565b92508282019050808211156122d8576122d76121a7565b5b92915050565b60006060820190506122f36000830186611d1d565b6123006020830185611d1d565b61230d6040830184611d47565b949350505050565b61231e81611cb5565b811461232957600080fd5b50565b60008151905061233b81612315565b92915050565b60006020828403121561235757612356611c4d565b5b60006123658482850161232c565b91505092915050565b7f4e487b7100000000000000000000000000000000000000000000000000000000600052600160045260246000fd5b60006123a882611c52565b91507fffffffffffffffffffffffffffffffffffffffffffffffffffffffffffffffff82036123da576123d96121a7565b5b600182019050919050565b7f796f7520617265206e6f74207065726d69747465640000000000000000000000600082015250565b600061241b601583611ba6565b9150612426826123e5565b602082019050919050565b6000602082019050818103600083015261244a8161240e565b9050919050565b7f54496d6520666f7220646f6e6174696f6e207374696c6c206f6e000000000000600082015250565b6000612487601a83611ba6565b915061249282612451565b602082019050919050565b600060208201905081810360008301526124b68161247a565b9050919050565b7f657468657220666f72207472616e73616374696f6e20636f7374000000000000600082015250565b60006124f3601a83611ba6565b91506124fe826124bd565b602082019050919050565b60006020820190508181036000830152612522816124e6565b9050919050565b7f596f7520617265206e6f74207065726d697474656420746f20706572666f726d60008201527f2074686973206f7065726174696f6e2100000000000000000000000000000000602082015250565b6000612585603083611ba6565b915061259082612529565b604082019050919050565b600060208201905081810360008301526125b481612578565b9050919050565b7f696e76616c696420616464726573730000000000000000000000000000000000600082015250565b60006125f1600f83611ba6565b91506125fc826125bb565b602082019050919050565b60006020820190508181036000830152612620816125e4565b9050919050565b60008151905061263681611c5c565b92915050565b60006020828403121561265257612651611c4d565b5b600061266084828501612627565b91505092915050565b7f43726f776446756e64696e67206973206e6f7420636f6d706c6574652079657460008201527f2100000000000000000000000000000000000000000000000000000000000000602082015250565b60006126c5602183611ba6565b91506126d082612669565b604082019050919050565b600060208201905081810360008301526126f4816126b8565b9050919050565b60006040820190506127106000830185611d1d565b61271d6020830184611d47565b9392505050565b7f46756e642072616973696e672063616e6e6f7420626520646f6e6520666f722060008201527f61646472657373207a65726f0000000000000000000000000000000000000000602082015250565b6000612780602c83611ba6565b915061278b82612724565b604082019050919050565b600060208201905081810360008301526127af81612773565b9050919050565b7f4e487b7100000000000000000000000000000000000000000000000000000000600052602160045260246000fd5b600081905092915050565b60008190508160005260206000209050919050565b6000815461281281611fc6565b61281c81866127e5565b94506001821660008114612837576001811461284c5761287f565b60ff198316865281151582028601935061287f565b612855856127f0565b60005b8381101561287757815481890152600182019150602081019050612858565b838801955050505b50505092915050565b60006128948284612805565b915081905092915050565b600681106128b0576128af6127b6565b5b50565b60008190506128c18261289f565b919050565b60006128d1826128b3565b9050919050565b6128e1816128c6565b82525050565b60006020820190506128fc60008301846128d8565b92915050565b7f4e487b7100000000000000000000000000000000000000000000000000000000600052603260045260246000fd5b600061293c82611c52565b915061294783611c52565b925082820390508181111561295f5761295e6121a7565b5b9291505056fea2646970667358221220da23ace39a962f1d39ea42739080d413d8b3f777bef035bbcf412c9525b71f5e64736f6c63430008110033",
  "linkReferences": {},
  "deployedLinkReferences": {}
}