{
  "_format": "hh-sol-artifact-1",
  "contractName": "DAO",
  "sourceName": "contracts/DAO.sol",
  "abi": [
    {
      "inputs": [
        {
          "internalType": "address",
          "name": "_DAOtokenAddress",
          "type": "address"
        },
        {
          "internalType": "address",
          "name": "_USDC",
          "type": "address"
        },
        {
          "internalType": "address",
          "name": "_crowdFundFactoryaddr",
          "type": "address"
        },
        {
          "internalType": "address",
          "name": "_nft",
          "type": "address"
        }
      ],
      "stateMutability": "nonpayable",
      "type": "constructor"
    },
    {
      "inputs": [
        {
          "internalType": "string",
          "name": "",
          "type": "string"
        }
      ],
      "name": "AlreadyJoined",
      "type": "error"
    },
    {
      "inputs": [
        {
          "internalType": "string",
          "name": "",
          "type": "string"
        }
      ],
      "name": "AlreadyVoted",
      "type": "error"
    },
    {
      "inputs": [
        {
          "internalType": "string",
          "name": "",
          "type": "string"
        }
      ],
      "name": "ContractNotFunded",
      "type": "error"
    },
    {
      "inputs": [
        {
          "internalType": "uint256",
          "name": "amountInputed",
          "type": "uint256"
        },
        {
          "internalType": "uint256",
          "name": "amountExpected",
          "type": "uint256"
        }
      ],
      "name": "EtherNotSufficient",
      "type": "error"
    },
    {
      "inputs": [
        {
          "internalType": "uint256",
          "name": "amountAvailable",
          "type": "uint256"
        },
        {
          "internalType": "uint256",
          "name": "amountExpected",
          "type": "uint256"
        }
      ],
      "name": "InsufficientToken",
      "type": "error"
    },
    {
      "inputs": [
        {
          "internalType": "string",
          "name": "",
          "type": "string"
        }
      ],
      "name": "NotAdmin",
      "type": "error"
    },
    {
      "inputs": [
        {
          "internalType": "string",
          "name": "",
          "type": "string"
        }
      ],
      "name": "NotEligible",
      "type": "error"
    },
    {
      "inputs": [
        {
          "internalType": "string",
          "name": "",
          "type": "string"
        }
      ],
      "name": "ProposalNotApproved",
      "type": "error"
    },
    {
      "inputs": [
        {
          "internalType": "string",
          "name": "",
          "type": "string"
        }
      ],
      "name": "TooMuch",
      "type": "error"
    },
    {
      "inputs": [
        {
          "internalType": "uint256",
          "name": "amountAvailable",
          "type": "uint256"
        },
        {
          "internalType": "uint256",
          "name": "amountExpected",
          "type": "uint256"
        }
      ],
      "name": "ToomuchToken",
      "type": "error"
    },
    {
      "inputs": [
        {
          "internalType": "string",
          "name": "",
          "type": "string"
        }
      ],
      "name": "ZeroAddress",
      "type": "error"
    },
    {
      "inputs": [
        {
          "internalType": "string",
          "name": "",
          "type": "string"
        }
      ],
      "name": "ZeroEther",
      "type": "error"
    },
    {
      "inputs": [
        {
          "internalType": "string",
          "name": "",
          "type": "string"
        }
      ],
      "name": "ZeroToken",
      "type": "error"
    },
    {
      "inputs": [
        {
          "internalType": "string",
          "name": "",
          "type": "string"
        }
      ],
      "name": "crowdFundCreated",
      "type": "error"
    },
    {
      "inputs": [],
      "name": "insufficientToken",
      "type": "error"
    },
    {
      "inputs": [
        {
          "internalType": "string",
          "name": "",
          "type": "string"
        }
      ],
      "name": "invalidTime",
      "type": "error"
    },
    {
      "inputs": [
        {
          "internalType": "string",
          "name": "",
          "type": "string"
        }
      ],
      "name": "n0tEnoughDaoMembers",
      "type": "error"
    },
    {
      "inputs": [],
      "name": "proposalAlreadyCancelled",
      "type": "error"
    },
    {
      "inputs": [
        {
          "internalType": "string",
          "name": "",
          "type": "string"
        }
      ],
      "name": "votingAlreadyStarted",
      "type": "error"
    },
    {
      "anonymous": false,
      "inputs": [
        {
          "indexed": false,
          "internalType": "address",
          "name": "oldAdmin",
          "type": "address"
        },
        {
          "indexed": false,
          "internalType": "address",
          "name": "newAdmin",
          "type": "address"
        }
      ],
      "name": "AdminUpdated",
      "type": "event"
    },
    {
      "anonymous": false,
      "inputs": [
        {
          "indexed": false,
          "internalType": "address",
          "name": "depositor",
          "type": "address"
        },
        {
          "indexed": false,
          "internalType": "uint256",
          "name": "amountDeposited",
          "type": "uint256"
        }
      ],
      "name": "EtherDeposited",
      "type": "event"
    },
    {
      "anonymous": false,
      "inputs": [
        {
          "indexed": true,
          "internalType": "address",
          "name": "member",
          "type": "address"
        },
        {
          "indexed": true,
          "internalType": "uint256",
          "name": "time",
          "type": "uint256"
        }
      ],
      "name": "Joined",
      "type": "event"
    },
    {
      "anonymous": false,
      "inputs": [
        {
          "indexed": true,
          "internalType": "uint256",
          "name": "_proposalID",
          "type": "uint256"
        },
        {
          "indexed": true,
          "internalType": "uint256",
          "name": "ApproveTime",
          "type": "uint256"
        }
      ],
      "name": "ProposalApproved",
      "type": "event"
    },
    {
      "anonymous": false,
      "inputs": [
        {
          "indexed": true,
          "internalType": "uint256",
          "name": "_proposalID",
          "type": "uint256"
        },
        {
          "indexed": true,
          "internalType": "uint256",
          "name": "cancellationTime",
          "type": "uint256"
        }
      ],
      "name": "ProposalCancelled",
      "type": "event"
    },
    {
      "anonymous": false,
      "inputs": [
        {
          "indexed": true,
          "internalType": "address",
          "name": "propInitiator",
          "type": "address"
        },
        {
          "indexed": true,
          "internalType": "string",
          "name": "topic",
          "type": "string"
        },
        {
          "indexed": true,
          "internalType": "uint256",
          "name": "time",
          "type": "uint256"
        }
      ],
      "name": "ProposalCreated",
      "type": "event"
    },
    {
      "anonymous": false,
      "inputs": [
        {
          "indexed": true,
          "internalType": "address",
          "name": "voter",
          "type": "address"
        },
        {
          "indexed": true,
          "internalType": "uint256",
          "name": "proposalID",
          "type": "uint256"
        },
        {
          "indexed": true,
          "internalType": "uint256",
          "name": "voteP",
          "type": "uint256"
        }
      ],
      "name": "ProposalVoted",
      "type": "event"
    },
    {
      "anonymous": false,
      "inputs": [
        {
          "indexed": false,
          "internalType": "address",
          "name": "_USDC",
          "type": "address"
        },
        {
          "indexed": true,
          "internalType": "address",
          "name": "manager",
          "type": "address"
        },
        {
          "indexed": true,
          "internalType": "address",
          "name": "crowdFundAddr",
          "type": "address"
        },
        {
          "indexed": true,
          "internalType": "address",
          "name": "owner",
          "type": "address"
        }
      ],
      "name": "newCrowdfundDetails",
      "type": "event"
    },
    {
      "stateMutability": "payable",
      "type": "fallback"
    },
    {
      "inputs": [],
      "name": "Admin",
      "outputs": [
        {
          "internalType": "address",
          "name": "",
          "type": "address"
        }
      ],
      "stateMutability": "view",
      "type": "function"
    },
    {
      "inputs": [
        {
          "internalType": "address",
          "name": "_memberAddress",
          "type": "address"
        }
      ],
      "name": "approveApplicant",
      "outputs": [],
      "stateMutability": "nonpayable",
      "type": "function"
    },
    {
      "inputs": [
        {
          "internalType": "uint256",
          "name": "_proposalID",
          "type": "uint256"
        }
      ],
      "name": "approveProposal",
      "outputs": [],
      "stateMutability": "nonpayable",
      "type": "function"
    },
    {
      "inputs": [
        {
          "internalType": "uint256",
          "name": "_proposalID",
          "type": "uint256"
        }
      ],
      "name": "cancelProposal",
      "outputs": [],
      "stateMutability": "nonpayable",
      "type": "function"
    },
    {
      "inputs": [
        {
          "internalType": "address",
          "name": "newAdmin",
          "type": "address"
        }
      ],
      "name": "changeAdmin",
      "outputs": [],
      "stateMutability": "nonpayable",
      "type": "function"
    },
    {
      "inputs": [
        {
          "internalType": "address",
          "name": "_crowdFundFactory",
          "type": "address"
        }
      ],
      "name": "changeCrowdfundFactory",
      "outputs": [],
      "stateMutability": "nonpayable",
      "type": "function"
    },
    {
      "inputs": [],
      "name": "contractBalance",
      "outputs": [
        {
          "internalType": "uint256",
          "name": "",
          "type": "uint256"
        }
      ],
      "stateMutability": "view",
      "type": "function"
    },
    {
      "inputs": [
        {
          "internalType": "string",
          "name": "_topic",
          "type": "string"
        },
        {
          "internalType": "string",
          "name": "_description",
          "type": "string"
        },
        {
          "internalType": "uint256",
          "name": "amount",
          "type": "uint256"
        },
        {
          "internalType": "uint256",
          "name": "_deadline",
          "type": "uint256"
        },
        {
          "internalType": "enum CrowdFund.Category",
          "name": "cat",
          "type": "uint8"
        }
      ],
      "name": "createProposal",
      "outputs": [],
      "stateMutability": "nonpayable",
      "type": "function"
    },
    {
      "inputs": [],
      "name": "depositIntoDAO",
      "outputs": [],
      "stateMutability": "payable",
      "type": "function"
    },
    {
      "inputs": [],
      "name": "getAllProposalCount",
      "outputs": [
        {
          "internalType": "uint256",
          "name": "",
          "type": "uint256"
        }
      ],
      "stateMutability": "view",
      "type": "function"
    },
    {
      "inputs": [],
      "name": "getAllProposals",
      "outputs": [
        {
          "components": [
            {
              "internalType": "uint256",
              "name": "proposalID",
              "type": "uint256"
            },
            {
              "internalType": "string",
              "name": "topic",
              "type": "string"
            },
            {
              "internalType": "bytes",
              "name": "description",
              "type": "bytes"
            },
            {
              "internalType": "address",
              "name": "proposalInitiator",
              "type": "address"
            },
            {
              "internalType": "uint256",
              "name": "amountProposed",
              "type": "uint256"
            },
            {
              "internalType": "uint256",
              "name": "votes",
              "type": "uint256"
            },
            {
              "internalType": "bool",
              "name": "approved",
              "type": "bool"
            },
            {
              "internalType": "bool",
              "name": "created",
              "type": "bool"
            },
            {
              "internalType": "enum CrowdFund.Category",
              "name": "category",
              "type": "uint8"
            },
            {
              "internalType": "bool",
              "name": "cancelled",
              "type": "bool"
            },
            {
              "internalType": "uint256",
              "name": "totalVoteCount",
              "type": "uint256"
            },
            {
              "internalType": "uint256",
              "name": "cancellationTime",
              "type": "uint256"
            },
            {
              "internalType": "uint256",
              "name": "approvedTime",
              "type": "uint256"
            },
            {
              "internalType": "uint256",
              "name": "deadline",
              "type": "uint256"
            },
            {
              "internalType": "address[]",
              "name": "voters",
              "type": "address[]"
            }
          ],
          "internalType": "struct DAO.Proposals[]",
          "name": "Pl",
          "type": "tuple[]"
        }
      ],
      "stateMutability": "view",
      "type": "function"
    },
    {
      "inputs": [
        {
          "internalType": "uint256",
          "name": "_proposalID",
          "type": "uint256"
        }
      ],
      "name": "getAllVoters",
      "outputs": [
        {
          "internalType": "address[]",
          "name": "",
          "type": "address[]"
        }
      ],
      "stateMutability": "view",
      "type": "function"
    },
    {
      "inputs": [],
      "name": "getDAOMemberCount",
      "outputs": [
        {
          "internalType": "uint256",
          "name": "",
          "type": "uint256"
        }
      ],
      "stateMutability": "view",
      "type": "function"
    },
    {
      "inputs": [
        {
          "internalType": "uint256",
          "name": "_proposalId",
          "type": "uint256"
        }
      ],
      "name": "getProposalDeadline",
      "outputs": [
        {
          "internalType": "uint256",
          "name": "",
          "type": "uint256"
        }
      ],
      "stateMutability": "view",
      "type": "function"
    },
    {
      "inputs": [
        {
          "internalType": "uint256",
          "name": "_proposalID",
          "type": "uint256"
        }
      ],
      "name": "getProposalStatus",
      "outputs": [
        {
          "internalType": "string",
          "name": "",
          "type": "string"
        }
      ],
      "stateMutability": "view",
      "type": "function"
    },
    {
      "inputs": [
        {
          "internalType": "string",
          "name": "_name",
          "type": "string"
        }
      ],
      "name": "joinDAO",
      "outputs": [],
      "stateMutability": "nonpayable",
      "type": "function"
    },
    {
      "inputs": [
        {
          "internalType": "uint256",
          "name": "_minimumrequiredDAOTokenAmount",
          "type": "uint256"
        },
        {
          "internalType": "uint256",
          "name": "_maximumrequiredDAOTokenAmount",
          "type": "uint256"
        }
      ],
      "name": "minandmaxDAOtokenrequired",
      "outputs": [],
      "stateMutability": "nonpayable",
      "type": "function"
    },
    {
      "inputs": [
        {
          "internalType": "uint256",
          "name": "tokenAmount",
          "type": "uint256"
        }
      ],
      "name": "purchaseDAOToken",
      "outputs": [],
      "stateMutability": "payable",
      "type": "function"
    },
    {
      "inputs": [
        {
          "internalType": "address",
          "name": "_memberAddress",
          "type": "address"
        }
      ],
      "name": "rejectApplicant",
      "outputs": [],
      "stateMutability": "nonpayable",
      "type": "function"
    },
    {
      "inputs": [],
      "name": "showAllDAOMemberDetails",
      "outputs": [
        {
          "components": [
            {
              "internalType": "string",
              "name": "name",
              "type": "string"
            },
            {
              "internalType": "address",
              "name": "memberAddress",
              "type": "address"
            },
            {
              "internalType": "uint64",
              "name": "memberID",
              "type": "uint64"
            },
            {
              "internalType": "bool",
              "name": "joined",
              "type": "bool"
            },
            {
              "internalType": "uint256",
              "name": "timeJoined",
              "type": "uint256"
            }
          ],
          "internalType": "struct DAO.DAOMemberInfo[]",
          "name": "memberInfo",
          "type": "tuple[]"
        }
      ],
      "stateMutability": "view",
      "type": "function"
    },
    {
      "inputs": [
        {
          "internalType": "address",
          "name": "tokenAddress",
          "type": "address"
        }
      ],
      "name": "transferLockedToken",
      "outputs": [],
      "stateMutability": "nonpayable",
      "type": "function"
    },
    {
      "inputs": [],
      "name": "usdcBalance",
      "outputs": [
        {
          "internalType": "uint256",
          "name": "",
          "type": "uint256"
        }
      ],
      "stateMutability": "view",
      "type": "function"
    },
    {
      "inputs": [
        {
          "internalType": "address",
          "name": "memberAddr",
          "type": "address"
        }
      ],
      "name": "viewDAOMemberInfo",
      "outputs": [
        {
          "components": [
            {
              "internalType": "string",
              "name": "name",
              "type": "string"
            },
            {
              "internalType": "address",
              "name": "memberAddress",
              "type": "address"
            },
            {
              "internalType": "uint64",
              "name": "memberID",
              "type": "uint64"
            },
            {
              "internalType": "bool",
              "name": "joined",
              "type": "bool"
            },
            {
              "internalType": "uint256",
              "name": "timeJoined",
              "type": "uint256"
            }
          ],
          "internalType": "struct DAO.DAOMemberInfo",
          "name": "",
          "type": "tuple"
        }
      ],
      "stateMutability": "view",
      "type": "function"
    },
    {
      "inputs": [
        {
          "internalType": "uint256",
          "name": "prosalID",
          "type": "uint256"
        }
      ],
      "name": "viewProposal",
      "outputs": [
        {
          "components": [
            {
              "internalType": "uint256",
              "name": "proposalID",
              "type": "uint256"
            },
            {
              "internalType": "string",
              "name": "topic",
              "type": "string"
            },
            {
              "internalType": "bytes",
              "name": "description",
              "type": "bytes"
            },
            {
              "internalType": "address",
              "name": "proposalInitiator",
              "type": "address"
            },
            {
              "internalType": "uint256",
              "name": "amountProposed",
              "type": "uint256"
            },
            {
              "internalType": "uint256",
              "name": "votes",
              "type": "uint256"
            },
            {
              "internalType": "bool",
              "name": "approved",
              "type": "bool"
            },
            {
              "internalType": "bool",
              "name": "created",
              "type": "bool"
            },
            {
              "internalType": "enum CrowdFund.Category",
              "name": "category",
              "type": "uint8"
            },
            {
              "internalType": "bool",
              "name": "cancelled",
              "type": "bool"
            },
            {
              "internalType": "uint256",
              "name": "totalVoteCount",
              "type": "uint256"
            },
            {
              "internalType": "uint256",
              "name": "cancellationTime",
              "type": "uint256"
            },
            {
              "internalType": "uint256",
              "name": "approvedTime",
              "type": "uint256"
            },
            {
              "internalType": "uint256",
              "name": "deadline",
              "type": "uint256"
            },
            {
              "internalType": "address[]",
              "name": "voters",
              "type": "address[]"
            }
          ],
          "internalType": "struct DAO.Proposals",
          "name": "",
          "type": "tuple"
        }
      ],
      "stateMutability": "view",
      "type": "function"
    },
    {
      "inputs": [
        {
          "internalType": "uint256",
          "name": "ID",
          "type": "uint256"
        }
      ],
      "name": "voteCount",
      "outputs": [
        {
          "internalType": "uint256",
          "name": "",
          "type": "uint256"
        }
      ],
      "stateMutability": "view",
      "type": "function"
    },
    {
      "inputs": [
        {
          "internalType": "uint256",
          "name": "prosalID",
          "type": "uint256"
        }
      ],
      "name": "voteProposal",
      "outputs": [],
      "stateMutability": "nonpayable",
      "type": "function"
    },
    {
      "stateMutability": "payable",
      "type": "receive"
    }
  ],
  "bytecode": "0x608060405260016008556001600a60006101000a81548167ffffffffffffffff021916908367ffffffffffffffff1602179055503480156200004057600080fd5b50604051620062853803806200628583398181016040528101906200006691906200021e565b83600260006101000a81548173ffffffffffffffffffffffffffffffffffffffff021916908373ffffffffffffffffffffffffffffffffffffffff160217905550336000806101000a81548173ffffffffffffffffffffffffffffffffffffffff021916908373ffffffffffffffffffffffffffffffffffffffff16021790555082600160006101000a81548173ffffffffffffffffffffffffffffffffffffffff021916908373ffffffffffffffffffffffffffffffffffffffff16021790555081600360006101000a81548173ffffffffffffffffffffffffffffffffffffffff021916908373ffffffffffffffffffffffffffffffffffffffff16021790555080600560006101000a81548173ffffffffffffffffffffffffffffffffffffffff021916908373ffffffffffffffffffffffffffffffffffffffff1602179055505050505062000290565b600080fd5b600073ffffffffffffffffffffffffffffffffffffffff82169050919050565b6000620001e682620001b9565b9050919050565b620001f881620001d9565b81146200020457600080fd5b50565b6000815190506200021881620001ed565b92915050565b600080600080608085870312156200023b576200023a620001b4565b5b60006200024b8782880162000207565b94505060206200025e8782880162000207565b9350506040620002718782880162000207565b9250506060620002848782880162000207565b91505092959194509250565b615fe580620002a06000396000f3fe6080604052600436106101855760003560e01c80637ea34527116100d1578063bff3375e1161008a578063e179e46f11610064578063e179e46f14610558578063e3fec1d014610581578063ec2bbc79146105be578063ff1b636d146105e75761018c565b8063bff3375e146104c7578063cceb68f514610504578063e0a8f6f51461052f5761018c565b80637ea34527146103da578063807896d5146103e45780638b7afe2e1461040d5780638f283970146104385780638f3632001461046157806398951b561461049e5761018c565b8063401853b71161013e57806371b9acf01161011857806371b9acf01461033f57806373688e561461036a57806376c63958146103955780637db41eae146103b15761018c565b8063401853b71461029a5780634fc8a20d146102d7578063575fcdf8146103145761018c565b80631292a2821461018e5780631e6a6c7e146101b75780631ffeff2c146101e2578063273f868e1461020b57806329b8bdc4146102345780633041fc0f146102715761018c565b3661018c57005b005b34801561019a57600080fd5b506101b560048036038101906101b09190613f86565b610612565b005b3480156101c357600080fd5b506101cc6107fb565b6040516101d991906141e1565b60405180910390f35b3480156101ee57600080fd5b5061020960048036038101906102049190613f86565b610999565b005b34801561021757600080fd5b50610232600480360381019061022d9190613f86565b610a6b565b005b34801561024057600080fd5b5061025b60048036038101906102569190613f86565b610d74565b6040516102689190614279565b60405180910390f35b34801561027d57600080fd5b5061029860048036038101906102939190614421565b610f0c565b005b3480156102a657600080fd5b506102c160048036038101906102bc91906144d4565b611473565b6040516102ce919061454b565b60405180910390f35b3480156102e357600080fd5b506102fe60048036038101906102f991906144d4565b61156e565b60405161030b919061457c565b60405180910390f35b34801561032057600080fd5b5061032961187a565b604051610336919061457c565b60405180910390f35b34801561034b57600080fd5b50610354611884565b604051610361919061457c565b60405180910390f35b34801561037657600080fd5b5061037f61188e565b60405161038c919061457c565b60405180910390f35b6103af60048036038101906103aa91906144d4565b611931565b005b3480156103bd57600080fd5b506103d860048036038101906103d39190613f86565b611d62565b005b6103e2611ef1565b005b3480156103f057600080fd5b5061040b600480360381019061040691906144d4565b611f88565b005b34801561041957600080fd5b5061042261294c565b60405161042f919061457c565b60405180910390f35b34801561044457600080fd5b5061045f600480360381019061045a9190613f86565b612954565b005b34801561046d57600080fd5b50610488600480360381019061048391906144d4565b612acd565b604051610495919061457c565b60405180910390f35b3480156104aa57600080fd5b506104c560048036038101906104c091906144d4565b612aed565b005b3480156104d357600080fd5b506104ee60048036038101906104e991906144d4565b612d0c565b6040516104fb9190614646565b60405180910390f35b34801561051057600080fd5b50610519612db0565b60405161052691906149b6565b60405180910390f35b34801561053b57600080fd5b50610556600480360381019061055191906144d4565b6130ea565b005b34801561056457600080fd5b5061057f600480360381019061057a91906149d8565b6132a8565b005b34801561058d57600080fd5b506105a860048036038101906105a391906144d4565b6138a6565b6040516105b59190614b72565b60405180910390f35b3480156105ca57600080fd5b506105e560048036038101906105e09190614b94565b613bae565b005b3480156105f357600080fd5b506105fc613c4e565b6040516106099190614be3565b60405180910390f35b60008054906101000a900473ffffffffffffffffffffffffffffffffffffffff1673ffffffffffffffffffffffffffffffffffffffff163373ffffffffffffffffffffffffffffffffffffffff16146106a0576040517f7625245e00000000000000000000000000000000000000000000000000000000815260040161069790614c4a565b60405180910390fd5b6000601360008373ffffffffffffffffffffffffffffffffffffffff1673ffffffffffffffffffffffffffffffffffffffff1681526020019081526020016000206002015403610725576040517f08c379a000000000000000000000000000000000000000000000000000000000815260040161071c90614cb6565b60405180910390fd5b6001601360008373ffffffffffffffffffffffffffffffffffffffff1673ffffffffffffffffffffffffffffffffffffffff168152602001908152602001600020600101601c6101000a81548160ff021916908315150217905550600160045461078f9190614d05565b600481905550600f339080600181540180825580915050600190039060005260206000200160009091909190916101000a81548173ffffffffffffffffffffffffffffffffffffffff021916908373ffffffffffffffffffffffffffffffffffffffff16021790555050565b60606010805480602002602001604051908101604052809291908181526020016000905b8282101561099057838290600052602060002090600302016040518060a001604052908160008201805461085290614d68565b80601f016020809104026020016040519081016040528092919081815260200182805461087e90614d68565b80156108cb5780601f106108a0576101008083540402835291602001916108cb565b820191906000526020600020905b8154815290600101906020018083116108ae57829003601f168201915b505050505081526020016001820160009054906101000a900473ffffffffffffffffffffffffffffffffffffffff1673ffffffffffffffffffffffffffffffffffffffff1673ffffffffffffffffffffffffffffffffffffffff1681526020016001820160149054906101000a900467ffffffffffffffff1667ffffffffffffffff1667ffffffffffffffff16815260200160018201601c9054906101000a900460ff161515151581526020016002820154815250508152602001906001019061081f565b50505050905090565b60008054906101000a900473ffffffffffffffffffffffffffffffffffffffff1673ffffffffffffffffffffffffffffffffffffffff163373ffffffffffffffffffffffffffffffffffffffff1614610a27576040517f7625245e000000000000000000000000000000000000000000000000000000008152600401610a1e90614e0b565b60405180910390fd5b80600360006101000a81548173ffffffffffffffffffffffffffffffffffffffff021916908373ffffffffffffffffffffffffffffffffffffffff16021790555050565b60008054906101000a900473ffffffffffffffffffffffffffffffffffffffff1673ffffffffffffffffffffffffffffffffffffffff163373ffffffffffffffffffffffffffffffffffffffff1614610af9576040517f7625245e000000000000000000000000000000000000000000000000000000008152600401610af090614c4a565b60405180910390fd5b6000601360008373ffffffffffffffffffffffffffffffffffffffff1673ffffffffffffffffffffffffffffffffffffffff1681526020019081526020016000206002015403610b7e576040517f08c379a0000000000000000000000000000000000000000000000000000000008152600401610b7590614cb6565b60405180910390fd5b6000601360008373ffffffffffffffffffffffffffffffffffffffff1673ffffffffffffffffffffffffffffffffffffffff168152602001908152602001600020600101601c6101000a81548160ff0219169083151502179055506000601460008373ffffffffffffffffffffffffffffffffffffffff1673ffffffffffffffffffffffffffffffffffffffff16815260200190815260200160002060006101000a81548160ff021916908315150217905550600160009054906101000a900473ffffffffffffffffffffffffffffffffffffffff1673ffffffffffffffffffffffffffffffffffffffff1663a9059cbb82678ac7230489e800006040518363ffffffff1660e01b8152600401610c96929190614e70565b6020604051808303816000875af1158015610cb5573d6000803e3d6000fd5b505050506040513d601f19601f82011682018060405250810190610cd99190614ec5565b50600260009054906101000a900473ffffffffffffffffffffffffffffffffffffffff1673ffffffffffffffffffffffffffffffffffffffff166379cc679082678ac7230489e800006040518363ffffffff1660e01b8152600401610d3f929190614e70565b600060405180830381600087803b158015610d5957600080fd5b505af1158015610d6d573d6000803e3d6000fd5b5050505050565b610d7c613db0565b601360008373ffffffffffffffffffffffffffffffffffffffff1673ffffffffffffffffffffffffffffffffffffffff1681526020019081526020016000206040518060a0016040529081600082018054610dd690614d68565b80601f0160208091040260200160405190810160405280929190818152602001828054610e0290614d68565b8015610e4f5780601f10610e2457610100808354040283529160200191610e4f565b820191906000526020600020905b815481529060010190602001808311610e3257829003601f168201915b505050505081526020016001820160009054906101000a900473ffffffffffffffffffffffffffffffffffffffff1673ffffffffffffffffffffffffffffffffffffffff1673ffffffffffffffffffffffffffffffffffffffff1681526020016001820160149054906101000a900467ffffffffffffffff1667ffffffffffffffff1667ffffffffffffffff16815260200160018201601c9054906101000a900460ff161515151581526020016002820154815250509050919050565b6000601360003373ffffffffffffffffffffffffffffffffffffffff1673ffffffffffffffffffffffffffffffffffffffff1681526020019081526020016000206040518060a0016040529081600082018054610f6890614d68565b80601f0160208091040260200160405190810160405280929190818152602001828054610f9490614d68565b8015610fe15780601f10610fb657610100808354040283529160200191610fe1565b820191906000526020600020905b815481529060010190602001808311610fc457829003601f168201915b505050505081526020016001820160009054906101000a900473ffffffffffffffffffffffffffffffffffffffff1673ffffffffffffffffffffffffffffffffffffffff1673ffffffffffffffffffffffffffffffffffffffff1681526020016001820160149054906101000a900467ffffffffffffffff1667ffffffffffffffff1667ffffffffffffffff16815260200160018201601c9054906101000a900460ff161515151581526020016002820154815250509050600042846110a79190614d05565b90506000151582606001511515036110f4576040517f3bfa637f0000000000000000000000000000000000000000000000000000000081526004016110eb90614f3e565b60405180910390fd5b42811015611137576040517f1653f46400000000000000000000000000000000000000000000000000000000815260040161112e90614faa565b60405180910390fd5b6000601160006008548152602001908152602001600020905087816001019081611161919061516c565b50868160020190816111739190615299565b5060085481600001819055508481600a0181905550858160040181905550338160030160006101000a81548173ffffffffffffffffffffffffffffffffffffffff021916908373ffffffffffffffffffffffffffffffffffffffff160217905550838160060160026101000a81548160ff021916908360058111156111fb576111fa6146e9565b5b0217905550600160095461120f9190614d05565b60098190555060068190806001815401808255809150506001900390600052602060002090600c0201600090919091909150600082015481600001556001820181600101908161125f9190615381565b5060028201816002019081611274919061547f565b506003820160009054906101000a900473ffffffffffffffffffffffffffffffffffffffff168160030160006101000a81548173ffffffffffffffffffffffffffffffffffffffff021916908373ffffffffffffffffffffffffffffffffffffffff16021790555060048201548160040155600582015481600501556006820160009054906101000a900460ff168160060160006101000a81548160ff0219169083151502179055506006820160019054906101000a900460ff168160060160016101000a81548160ff0219169083151502179055506006820160029054906101000a900460ff168160060160026101000a81548160ff02191690836005811115611382576113816146e9565b5b02179055506006820160039054906101000a900460ff168160060160036101000a81548160ff021916908315150217905550600782015481600701556008820154816008015560098201548160090155600a82015481600a0155600b820181600b019080546113f2929190613e01565b5050506001600860008282546114089190614d05565b92505081905550428860405161141e91906155a3565b60405180910390203373ffffffffffffffffffffffffffffffffffffffff167fc3dcab762d52a4a2d2507dd9e3436141e746eb3ba927c89698773a6f24a7456460405160405180910390a45050505050505050565b6060600115156011600084815260200190815260200160002060060160039054906101000a900460ff161515036114e1576040518060400160405280600981526020017f63616e63656c6c656400000000000000000000000000000000000000000000008152509050611569565b600115156011600084815260200190815260200160002060060160009054906101000a900460ff1615150361154d576040518060400160405280600881526020017f617070726f7665640000000000000000000000000000000000000000000000008152509050611569565b604051806060016040528060318152602001615f7f6031913990505b919050565b60008060116000848152602001908152602001600020604051806101e0016040529081600082015481526020016001820180546115aa90614d68565b80601f01602080910402602001604051908101604052809291908181526020018280546115d690614d68565b80156116235780601f106115f857610100808354040283529160200191611623565b820191906000526020600020905b81548152906001019060200180831161160657829003601f168201915b5050505050815260200160028201805461163c90614d68565b80601f016020809104026020016040519081016040528092919081815260200182805461166890614d68565b80156116b55780601f1061168a576101008083540402835291602001916116b5565b820191906000526020600020905b81548152906001019060200180831161169857829003601f168201915b505050505081526020016003820160009054906101000a900473ffffffffffffffffffffffffffffffffffffffff1673ffffffffffffffffffffffffffffffffffffffff1673ffffffffffffffffffffffffffffffffffffffff16815260200160048201548152602001600582015481526020016006820160009054906101000a900460ff161515151581526020016006820160019054906101000a900460ff161515151581526020016006820160029054906101000a900460ff166005811115611783576117826146e9565b5b6005811115611795576117946146e9565b5b81526020016006820160039054906101000a900460ff16151515158152602001600782015481526020016008820154815260200160098201548152602001600a8201548152602001600b820180548060200260200160405190810160405280929190818152602001828054801561186157602002820191906000526020600020905b8160009054906101000a900473ffffffffffffffffffffffffffffffffffffffff1673ffffffffffffffffffffffffffffffffffffffff1681526020019060010190808311611817575b5050505050815250509050806101400151915050919050565b6000600454905090565b6000600954905090565b6000600160009054906101000a900473ffffffffffffffffffffffffffffffffffffffff1673ffffffffffffffffffffffffffffffffffffffff166370a08231306040518263ffffffff1660e01b81526004016118eb9190614be3565b602060405180830381865afa158015611908573d6000803e3d6000fd5b505050506040513d601f19601f8201168201806040525081019061192c91906155cf565b905090565b6000600260009054906101000a900473ffffffffffffffffffffffffffffffffffffffff1673ffffffffffffffffffffffffffffffffffffffff166370a08231306040518263ffffffff1660e01b815260040161198e9190614be3565b602060405180830381865afa1580156119ab573d6000803e3d6000fd5b505050506040513d601f19601f820116820180604052508101906119cf91906155cf565b11611a0f576040517f6676eb1b000000000000000000000000000000000000000000000000000000008152600401611a069061566e565b60405180910390fd5b600c54600260009054906101000a900473ffffffffffffffffffffffffffffffffffffffff1673ffffffffffffffffffffffffffffffffffffffff166370a08231336040518263ffffffff1660e01b8152600401611a6d9190614be3565b602060405180830381865afa158015611a8a573d6000803e3d6000fd5b505050506040513d601f19601f82011682018060405250810190611aae91906155cf565b1115611aef576040517fed6dcad6000000000000000000000000000000000000000000000000000000008152600401611ae690615700565b60405180910390fd5b600c5481600260009054906101000a900473ffffffffffffffffffffffffffffffffffffffff1673ffffffffffffffffffffffffffffffffffffffff166370a08231336040518263ffffffff1660e01b8152600401611b4e9190614be3565b602060405180830381865afa158015611b6b573d6000803e3d6000fd5b505050506040513d601f19601f82011682018060405250810190611b8f91906155cf565b611b999190614d05565b1115611bda576040517fed6dcad6000000000000000000000000000000000000000000000000000000008152600401611bd190615700565b60405180910390fd5b600160009054906101000a900473ffffffffffffffffffffffffffffffffffffffff1673ffffffffffffffffffffffffffffffffffffffff166323b872dd3330670de0b6b3a764000085611c2e9190615720565b6040518463ffffffff1660e01b8152600401611c4c93929190615762565b6020604051808303816000875af1158015611c6b573d6000803e3d6000fd5b505050506040513d601f19601f82011682018060405250810190611c8f9190614ec5565b50600260009054906101000a900473ffffffffffffffffffffffffffffffffffffffff1673ffffffffffffffffffffffffffffffffffffffff166323b872dd3033670de0b6b3a764000085611ce49190615720565b6040518463ffffffff1660e01b8152600401611d0293929190615762565b6020604051808303816000875af1158015611d21573d6000803e3d6000fd5b505050506040513d601f19601f82011682018060405250810190611d459190614ec5565b5034600d6000828254611d589190614d05565b9250508190555050565b60008054906101000a900473ffffffffffffffffffffffffffffffffffffffff1673ffffffffffffffffffffffffffffffffffffffff163373ffffffffffffffffffffffffffffffffffffffff1614611df0576040517f7625245e000000000000000000000000000000000000000000000000000000008152600401611de790614c4a565b60405180910390fd5b60008173ffffffffffffffffffffffffffffffffffffffff166370a08231306040518263ffffffff1660e01b8152600401611e2b9190614be3565b602060405180830381865afa158015611e48573d6000803e3d6000fd5b505050506040513d601f19601f82011682018060405250810190611e6c91906155cf565b90508173ffffffffffffffffffffffffffffffffffffffff1663a9059cbb33836040518363ffffffff1660e01b8152600401611ea9929190615799565b6020604051808303816000875af1158015611ec8573d6000803e3d6000fd5b505050506040513d601f19601f82011682018060405250810190611eec9190614ec5565b505050565b60003403611f34576040517fce2c97c3000000000000000000000000000000000000000000000000000000008152600401611f2b9061580e565b60405180910390fd5b34600d6000828254611f469190614d05565b925050819055507f939e51ac2fd009b158d6344f7e68a83d8d18d9b0cc88cf514aac6aaa9cad2a183334604051611f7e929190615799565b60405180910390a1565b6000601360003373ffffffffffffffffffffffffffffffffffffffff1673ffffffffffffffffffffffffffffffffffffffff1681526020019081526020016000206040518060a0016040529081600082018054611fe490614d68565b80601f016020809104026020016040519081016040528092919081815260200182805461201090614d68565b801561205d5780601f106120325761010080835404028352916020019161205d565b820191906000526020600020905b81548152906001019060200180831161204057829003601f168201915b505050505081526020016001820160009054906101000a900473ffffffffffffffffffffffffffffffffffffffff1673ffffffffffffffffffffffffffffffffffffffff1673ffffffffffffffffffffffffffffffffffffffff1681526020016001820160149054906101000a900467ffffffffffffffff1667ffffffffffffffff1667ffffffffffffffff16815260200160018201601c9054906101000a900460ff161515151581526020016002820154815250509050600015158160600151151503612160576040517f3bfa637f00000000000000000000000000000000000000000000000000000000815260040161215790614f3e565b60405180910390fd5b60011515601260003373ffffffffffffffffffffffffffffffffffffffff1673ffffffffffffffffffffffffffffffffffffffff168152602001908152602001600020600084815260200190815260200160002060009054906101000a900460ff16151503612204576040517f1e3998f70000000000000000000000000000000000000000000000000000000081526004016121fb906158a0565b60405180910390fd5b6000601160008481526020019081526020016000209050670de0b6b3a7640000600260009054906101000a900473ffffffffffffffffffffffffffffffffffffffff1673ffffffffffffffffffffffffffffffffffffffff166370a08231336040518263ffffffff1660e01b815260040161227f9190614be3565b602060405180830381865afa15801561229c573d6000803e3d6000fd5b505050506040513d601f19601f820116820180604052508101906122c091906155cf565b10156122f8576040517f14ffc61300000000000000000000000000000000000000000000000000000000815260040160405180910390fd5b60048054101561233d576040517fc5a7a69d0000000000000000000000000000000000000000000000000000000081526004016123349061590c565b60405180910390fd5b600115158160060160009054906101000a900460ff16151514612395576040517fbcb86b3300000000000000000000000000000000000000000000000000000000815260040161238c90615978565b60405180910390fd5b600115158160060160019054906101000a900460ff161515036123ed576040517f348b0b6f0000000000000000000000000000000000000000000000000000000081526004016123e490615a0a565b60405180910390fd5b60006011600085815260200190815260200160002060030160009054906101000a900473ffffffffffffffffffffffffffffffffffffffff169050600060116000868152602001908152602001600020600a01549050600060116000878152602001908152602001600020600401549050600060116000888152602001908152602001600020600101805461248190614d68565b80601f01602080910402602001604051908101604052809291908181526020018280546124ad90614d68565b80156124fa5780601f106124cf576101008083540402835291602001916124fa565b820191906000526020600020905b8154815290600101906020018083116124dd57829003601f168201915b50505050509050600060116000898152602001908152602001600020600201805461252490614d68565b80601f016020809104026020016040519081016040528092919081815260200182805461255090614d68565b801561259d5780601f106125725761010080835404028352916020019161259d565b820191906000526020600020905b81548152906001019060200180831161258057829003601f168201915b505050505090506000601160008a815260200190815260200160002060060160029054906101000a900460ff169050600187600501546125dd9190614d05565b87600501819055506064601e6004546125f69190615720565b6126009190615a59565b60045461260d9190615a8a565b87600501541061277d5760018760060160016101000a81548160ff02191690831515021790555042856126409190614d05565b87600a01819055506126c0600360009054906101000a900473ffffffffffffffffffffffffffffffffffffffff16600160009054906101000a900473ffffffffffffffffffffffffffffffffffffffff16888c89600560009054906101000a900473ffffffffffffffffffffffffffffffffffffffff168a8a8a8a613c72565b50506000806000806126f4600360009054906101000a900473ffffffffffffffffffffffffffffffffffffffff168e613d13565b93509350935093508073ffffffffffffffffffffffffffffffffffffffff168273ffffffffffffffffffffffffffffffffffffffff168473ffffffffffffffffffffffffffffffffffffffff167fe95e8a2e0df49121ab9e3d869da6d0b9cb5329014025ef1aea078b8a7e86e025876040516127709190614be3565b60405180910390a4505050505b600260009054906101000a900473ffffffffffffffffffffffffffffffffffffffff1673ffffffffffffffffffffffffffffffffffffffff166379cc679033670de0b6b3a76400006040518363ffffffff1660e01b81526004016127e2929190615af9565b600060405180830381600087803b1580156127fc57600080fd5b505af1158015612810573d6000803e3d6000fd5b505050506001601260003373ffffffffffffffffffffffffffffffffffffffff1673ffffffffffffffffffffffffffffffffffffffff16815260200190815260200160002060008b815260200190815260200160002060006101000a81548160ff02191690831515021790555086600b01339080600181540180825580915050600190039060005260206000200160009091909190916101000a81548173ffffffffffffffffffffffffffffffffffffffff021916908373ffffffffffffffffffffffffffffffffffffffff160217905550600187600701546128f39190614d05565b87600701819055506001893373ffffffffffffffffffffffffffffffffffffffff167fadbf79fd0598af47dd5fe925627d0789f9ee64fe5f4f8f6936ac27a05b70adb660405160405180910390a4505050505050505050565b600047905090565b60008054906101000a900473ffffffffffffffffffffffffffffffffffffffff1673ffffffffffffffffffffffffffffffffffffffff163373ffffffffffffffffffffffffffffffffffffffff16146129e2576040517f7625245e0000000000000000000000000000000000000000000000000000000081526004016129d990614e0b565b60405180910390fd5b600073ffffffffffffffffffffffffffffffffffffffff168173ffffffffffffffffffffffffffffffffffffffff1603612a51576040517feac0d389000000000000000000000000000000000000000000000000000000008152600401612a4890615b6e565b60405180910390fd5b806000806101000a81548173ffffffffffffffffffffffffffffffffffffffff021916908373ffffffffffffffffffffffffffffffffffffffff1602179055507f101b8081ff3b56bbf45deb824d86a3b0fd38b7e3dd42421105cf8abe9106db0b3382604051612ac2929190615b8e565b60405180910390a150565b600060116000838152602001908152602001600020600a01549050919050565b60008054906101000a900473ffffffffffffffffffffffffffffffffffffffff1673ffffffffffffffffffffffffffffffffffffffff163373ffffffffffffffffffffffffffffffffffffffff1614612b7b576040517f7625245e000000000000000000000000000000000000000000000000000000008152600401612b7290614c4a565b60405180910390fd5b600115156011600083815260200190815260200160002060060160039054906101000a900460ff16151503612bdc576040517faa58221c00000000000000000000000000000000000000000000000000000000815260040160405180910390fd5b600060116000838152602001908152602001600020600501541115612c36576040517f98d25677000000000000000000000000000000000000000000000000000000008152600401612c2d90615c03565b60405180910390fd5b600480541015612c7b576040517fc5a7a69d000000000000000000000000000000000000000000000000000000008152600401612c729061590c565b60405180910390fd5b60016011600083815260200190815260200160002060060160006101000a81548160ff0219169083151502179055504260116000838152602001908152602001600020600901819055506011600082815260200190815260200160002060090154817fc6a4fd4a703d2a2fe3167ce7f6d62bf96458b7e55042cfaa85d5c7ef3ac56eea60405160405180910390a350565b606060116000838152602001908152602001600020600b01805480602002602001604051908101604052809291908181526020018280548015612da457602002820191906000526020600020905b8160009054906101000a900473ffffffffffffffffffffffffffffffffffffffff1673ffffffffffffffffffffffffffffffffffffffff1681526020019060010190808311612d5a575b50505050509050919050565b60606006805480602002602001604051908101604052809291908181526020016000905b828210156130e157838290600052602060002090600c0201604051806101e001604052908160008201548152602001600182018054612e1290614d68565b80601f0160208091040260200160405190810160405280929190818152602001828054612e3e90614d68565b8015612e8b5780601f10612e6057610100808354040283529160200191612e8b565b820191906000526020600020905b815481529060010190602001808311612e6e57829003601f168201915b50505050508152602001600282018054612ea490614d68565b80601f0160208091040260200160405190810160405280929190818152602001828054612ed090614d68565b8015612f1d5780601f10612ef257610100808354040283529160200191612f1d565b820191906000526020600020905b815481529060010190602001808311612f0057829003601f168201915b505050505081526020016003820160009054906101000a900473ffffffffffffffffffffffffffffffffffffffff1673ffffffffffffffffffffffffffffffffffffffff1673ffffffffffffffffffffffffffffffffffffffff16815260200160048201548152602001600582015481526020016006820160009054906101000a900460ff161515151581526020016006820160019054906101000a900460ff161515151581526020016006820160029054906101000a900460ff166005811115612feb57612fea6146e9565b5b6005811115612ffd57612ffc6146e9565b5b81526020016006820160039054906101000a900460ff16151515158152602001600782015481526020016008820154815260200160098201548152602001600a8201548152602001600b82018054806020026020016040519081016040528092919081815260200182805480156130c957602002820191906000526020600020905b8160009054906101000a900473ffffffffffffffffffffffffffffffffffffffff1673ffffffffffffffffffffffffffffffffffffffff168152602001906001019080831161307f575b50505050508152505081526020019060010190612dd4565b50505050905090565b60008054906101000a900473ffffffffffffffffffffffffffffffffffffffff1673ffffffffffffffffffffffffffffffffffffffff163373ffffffffffffffffffffffffffffffffffffffff1614613178576040517f7625245e00000000000000000000000000000000000000000000000000000000815260040161316f90614c4a565b60405180910390fd5b600115156011600083815260200190815260200160002060060160039054906101000a900460ff161515036131d9576040517faa58221c00000000000000000000000000000000000000000000000000000000815260040160405180910390fd5b600060116000838152602001908152602001600020600501541115613233576040517f98d2567700000000000000000000000000000000000000000000000000000000815260040161322a90615c6f565b60405180910390fd5b6000601160006008548152602001908152602001600020905060018160060160036101000a81548160ff0219169083151502179055504281600801819055508060080154827f5be67b1762c29673dceae3c1de04ecbf702ab0755c93f0fcc8aec5252df5a2b460405160405180910390a35050565b6000601360003373ffffffffffffffffffffffffffffffffffffffff1673ffffffffffffffffffffffffffffffffffffffff168152602001908152602001600020905060001515601460003373ffffffffffffffffffffffffffffffffffffffff1673ffffffffffffffffffffffffffffffffffffffff16815260200190815260200160002060009054906101000a900460ff1615151461337e576040517f08c379a000000000000000000000000000000000000000000000000000000000815260040161337590615cdb565b60405180910390fd5b6001151581600101601c9054906101000a900460ff161515036133d6576040517f36eecf020000000000000000000000000000000000000000000000000000000081526004016133cd90615d47565b60405180910390fd5b6000600260009054906101000a900473ffffffffffffffffffffffffffffffffffffffff1673ffffffffffffffffffffffffffffffffffffffff166370a08231306040518263ffffffff1660e01b81526004016134339190614be3565b602060405180830381865afa158015613450573d6000803e3d6000fd5b505050506040513d601f19601f8201168201806040525081019061347491906155cf565b116134b4576040517f6676eb1b0000000000000000000000000000000000000000000000000000000081526004016134ab9061566e565b60405180910390fd5b6001601460003373ffffffffffffffffffffffffffffffffffffffff1673ffffffffffffffffffffffffffffffffffffffff16815260200190815260200160002060006101000a81548160ff021916908315150217905550600160009054906101000a900473ffffffffffffffffffffffffffffffffffffffff1673ffffffffffffffffffffffffffffffffffffffff166323b872dd3330678ac7230489e800006040518463ffffffff1660e01b815260040161357393929190615d67565b6020604051808303816000875af1158015613592573d6000803e3d6000fd5b505050506040513d601f19601f820116820180604052508101906135b69190614ec5565b50600260009054906101000a900473ffffffffffffffffffffffffffffffffffffffff1673ffffffffffffffffffffffffffffffffffffffff166340c10f1933678ac7230489e800006040518363ffffffff1660e01b815260040161361c929190614e70565b600060405180830381600087803b15801561363657600080fd5b505af115801561364a573d6000803e3d6000fd5b505050508181600001908161365f919061516c565b50338160010160006101000a81548173ffffffffffffffffffffffffffffffffffffffff021916908373ffffffffffffffffffffffffffffffffffffffff160217905550600a60009054906101000a900467ffffffffffffffff168160010160146101000a81548167ffffffffffffffff021916908367ffffffffffffffff160217905550428160020181905550600a600081819054906101000a900467ffffffffffffffff168092919061371390615d9e565b91906101000a81548167ffffffffffffffff021916908367ffffffffffffffff1602179055505060108190806001815401808255809150506001900390600052602060002090600302016000909190919091506000820181600001908161377a9190615381565b506001820160009054906101000a900473ffffffffffffffffffffffffffffffffffffffff168160010160006101000a81548173ffffffffffffffffffffffffffffffffffffffff021916908373ffffffffffffffffffffffffffffffffffffffff1602179055506001820160149054906101000a900467ffffffffffffffff168160010160146101000a81548167ffffffffffffffff021916908367ffffffffffffffff16021790555060018201601c9054906101000a900460ff1681600101601c6101000a81548160ff021916908315150217905550600282015481600201555050423373ffffffffffffffffffffffffffffffffffffffff167f49f8fa5eee2e3f21251c2e968640dcaef35cb9332429eb059bb3cd56ddc2533d60405160405180910390a35050565b6138ae613e53565b60116000838152602001908152602001600020604051806101e0016040529081600082015481526020016001820180546138e790614d68565b80601f016020809104026020016040519081016040528092919081815260200182805461391390614d68565b80156139605780601f1061393557610100808354040283529160200191613960565b820191906000526020600020905b81548152906001019060200180831161394357829003601f168201915b5050505050815260200160028201805461397990614d68565b80601f01602080910402602001604051908101604052809291908181526020018280546139a590614d68565b80156139f25780601f106139c7576101008083540402835291602001916139f2565b820191906000526020600020905b8154815290600101906020018083116139d557829003601f168201915b505050505081526020016003820160009054906101000a900473ffffffffffffffffffffffffffffffffffffffff1673ffffffffffffffffffffffffffffffffffffffff1673ffffffffffffffffffffffffffffffffffffffff16815260200160048201548152602001600582015481526020016006820160009054906101000a900460ff161515151581526020016006820160019054906101000a900460ff161515151581526020016006820160029054906101000a900460ff166005811115613ac057613abf6146e9565b5b6005811115613ad257613ad16146e9565b5b81526020016006820160039054906101000a900460ff16151515158152602001600782015481526020016008820154815260200160098201548152602001600a8201548152602001600b8201805480602002602001604051908101604052809291908181526020018280548015613b9e57602002820191906000526020600020905b8160009054906101000a900473ffffffffffffffffffffffffffffffffffffffff1673ffffffffffffffffffffffffffffffffffffffff1681526020019060010190808311613b54575b5050505050815250509050919050565b60008054906101000a900473ffffffffffffffffffffffffffffffffffffffff1673ffffffffffffffffffffffffffffffffffffffff163373ffffffffffffffffffffffffffffffffffffffff1614613c3c576040517f7625245e000000000000000000000000000000000000000000000000000000008152600401613c3390614e0b565b60405180910390fd5b81600b8190555080600c819055505050565b60008054906101000a900473ffffffffffffffffffffffffffffffffffffffff1681565b6000808b73ffffffffffffffffffffffffffffffffffffffff1663f21af2d98c8c8c8c8c8c8c8c8c6040518a63ffffffff1660e01b8152600401613cbe99989796959493929190615e27565b60408051808303816000875af1158015613cdc573d6000803e3d6000fd5b505050506040513d601f19601f82011682018060405250810190613d009190615ed7565b915091509a509a98505050505050505050565b6000806000808573ffffffffffffffffffffffffffffffffffffffff16632322820f600187613d429190615a8a565b6040518263ffffffff1660e01b8152600401613d5e919061457c565b608060405180830381865afa158015613d7b573d6000803e3d6000fd5b505050506040513d601f19601f82011682018060405250810190613d9f9190615f17565b935093509350935092959194509250565b6040518060a0016040528060608152602001600073ffffffffffffffffffffffffffffffffffffffff168152602001600067ffffffffffffffff168152602001600015158152602001600081525090565b828054828255906000526020600020908101928215613e425760005260206000209182015b82811115613e41578254825591600101919060010190613e26565b5b509050613e4f9190613ef7565b5090565b604051806101e00160405280600081526020016060815260200160608152602001600073ffffffffffffffffffffffffffffffffffffffff168152602001600081526020016000815260200160001515815260200160001515815260200160006005811115613ec557613ec46146e9565b5b815260200160001515815260200160008152602001600081526020016000815260200160008152602001606081525090565b5b80821115613f10576000816000905550600101613ef8565b5090565b6000604051905090565b600080fd5b600080fd5b600073ffffffffffffffffffffffffffffffffffffffff82169050919050565b6000613f5382613f28565b9050919050565b613f6381613f48565b8114613f6e57600080fd5b50565b600081359050613f8081613f5a565b92915050565b600060208284031215613f9c57613f9b613f1e565b5b6000613faa84828501613f71565b91505092915050565b600081519050919050565b600082825260208201905092915050565b6000819050602082019050919050565b600081519050919050565b600082825260208201905092915050565b60005b83811015614019578082015181840152602081019050613ffe565b60008484015250505050565b6000601f19601f8301169050919050565b600061404182613fdf565b61404b8185613fea565b935061405b818560208601613ffb565b61406481614025565b840191505092915050565b61407881613f48565b82525050565b600067ffffffffffffffff82169050919050565b61409b8161407e565b82525050565b60008115159050919050565b6140b6816140a1565b82525050565b6000819050919050565b6140cf816140bc565b82525050565b600060a08301600083015184820360008601526140f28282614036565b9150506020830151614107602086018261406f565b50604083015161411a6040860182614092565b50606083015161412d60608601826140ad565b50608083015161414060808601826140c6565b508091505092915050565b600061415783836140d5565b905092915050565b6000602082019050919050565b600061417782613fb3565b6141818185613fbe565b93508360208202850161419385613fcf565b8060005b858110156141cf57848403895281516141b0858261414b565b94506141bb8361415f565b925060208a01995050600181019050614197565b50829750879550505050505092915050565b600060208201905081810360008301526141fb818461416c565b905092915050565b600060a08301600083015184820360008601526142208282614036565b9150506020830151614235602086018261406f565b5060408301516142486040860182614092565b50606083015161425b60608601826140ad565b50608083015161426e60808601826140c6565b508091505092915050565b600060208201905081810360008301526142938184614203565b905092915050565b600080fd5b600080fd5b7f4e487b7100000000000000000000000000000000000000000000000000000000600052604160045260246000fd5b6142dd82614025565b810181811067ffffffffffffffff821117156142fc576142fb6142a5565b5b80604052505050565b600061430f613f14565b905061431b82826142d4565b919050565b600067ffffffffffffffff82111561433b5761433a6142a5565b5b61434482614025565b9050602081019050919050565b82818337600083830152505050565b600061437361436e84614320565b614305565b90508281526020810184848401111561438f5761438e6142a0565b5b61439a848285614351565b509392505050565b600082601f8301126143b7576143b661429b565b5b81356143c7848260208601614360565b91505092915050565b6143d9816140bc565b81146143e457600080fd5b50565b6000813590506143f6816143d0565b92915050565b6006811061440957600080fd5b50565b60008135905061441b816143fc565b92915050565b600080600080600060a0868803121561443d5761443c613f1e565b5b600086013567ffffffffffffffff81111561445b5761445a613f23565b5b614467888289016143a2565b955050602086013567ffffffffffffffff81111561448857614487613f23565b5b614494888289016143a2565b94505060406144a5888289016143e7565b93505060606144b6888289016143e7565b92505060806144c78882890161440c565b9150509295509295909350565b6000602082840312156144ea576144e9613f1e565b5b60006144f8848285016143e7565b91505092915050565b600082825260208201905092915050565b600061451d82613fdf565b6145278185614501565b9350614537818560208601613ffb565b61454081614025565b840191505092915050565b600060208201905081810360008301526145658184614512565b905092915050565b614576816140bc565b82525050565b6000602082019050614591600083018461456d565b92915050565b600081519050919050565b600082825260208201905092915050565b6000819050602082019050919050565b60006145cf838361406f565b60208301905092915050565b6000602082019050919050565b60006145f382614597565b6145fd81856145a2565b9350614608836145b3565b8060005b8381101561463957815161462088826145c3565b975061462b836145db565b92505060018101905061460c565b5085935050505092915050565b6000602082019050818103600083015261466081846145e8565b905092915050565b600081519050919050565b600082825260208201905092915050565b6000819050602082019050919050565b600081519050919050565b600082825260208201905092915050565b60006146bb82614694565b6146c5818561469f565b93506146d5818560208601613ffb565b6146de81614025565b840191505092915050565b7f4e487b7100000000000000000000000000000000000000000000000000000000600052602160045260246000fd5b60068110614729576147286146e9565b5b50565b600081905061473a82614718565b919050565b600061474a8261472c565b9050919050565b61475a8161473f565b82525050565b600082825260208201905092915050565b600061477c82614597565b6147868185614760565b9350614791836145b3565b8060005b838110156147c25781516147a988826145c3565b97506147b4836145db565b925050600181019050614795565b5085935050505092915050565b60006101e0830160008301516147e860008601826140c6565b50602083015184820360208601526148008282614036565b9150506040830151848203604086015261481a82826146b0565b915050606083015161482f606086018261406f565b50608083015161484260808601826140c6565b5060a083015161485560a08601826140c6565b5060c083015161486860c08601826140ad565b5060e083015161487b60e08601826140ad565b50610100830151614890610100860182614751565b506101208301516148a56101208601826140ad565b506101408301516148ba6101408601826140c6565b506101608301516148cf6101608601826140c6565b506101808301516148e46101808601826140c6565b506101a08301516148f96101a08601826140c6565b506101c08301518482036101c08601526149138282614771565b9150508091505092915050565b600061492c83836147cf565b905092915050565b6000602082019050919050565b600061494c82614668565b6149568185614673565b93508360208202850161496885614684565b8060005b858110156149a457848403895281516149858582614920565b945061499083614934565b925060208a0199505060018101905061496c565b50829750879550505050505092915050565b600060208201905081810360008301526149d08184614941565b905092915050565b6000602082840312156149ee576149ed613f1e565b5b600082013567ffffffffffffffff811115614a0c57614a0b613f23565b5b614a18848285016143a2565b91505092915050565b60006101e083016000830151614a3a60008601826140c6565b5060208301518482036020860152614a528282614036565b91505060408301518482036040860152614a6c82826146b0565b9150506060830151614a81606086018261406f565b506080830151614a9460808601826140c6565b5060a0830151614aa760a08601826140c6565b5060c0830151614aba60c08601826140ad565b5060e0830151614acd60e08601826140ad565b50610100830151614ae2610100860182614751565b50610120830151614af76101208601826140ad565b50610140830151614b0c6101408601826140c6565b50610160830151614b216101608601826140c6565b50610180830151614b366101808601826140c6565b506101a0830151614b4b6101a08601826140c6565b506101c08301518482036101c0860152614b658282614771565b9150508091505092915050565b60006020820190508181036000830152614b8c8184614a21565b905092915050565b60008060408385031215614bab57614baa613f1e565b5b6000614bb9858286016143e7565b9250506020614bca858286016143e7565b9150509250929050565b614bdd81613f48565b82525050565b6000602082019050614bf86000830184614bd4565b92915050565b7f6f6e6c792061646d696e20726571756972656400000000000000000000000000600082015250565b6000614c34601383614501565b9150614c3f82614bfe565b602082019050919050565b60006020820190508181036000830152614c6381614c27565b9050919050565b7f4170706c6963616e7420686173206e6f74206170706c79000000000000000000600082015250565b6000614ca0601783614501565b9150614cab82614c6a565b602082019050919050565b60006020820190508181036000830152614ccf81614c93565b9050919050565b7f4e487b7100000000000000000000000000000000000000000000000000000000600052601160045260246000fd5b6000614d10826140bc565b9150614d1b836140bc565b9250828201905080821115614d3357614d32614cd6565b5b92915050565b7f4e487b7100000000000000000000000000000000000000000000000000000000600052602260045260246000fd5b60006002820490506001821680614d8057607f821691505b602082108103614d9357614d92614d39565b5b50919050565b7f4f6e6c79207468652041646d696e20697320656c696769626c6520746f20636160008201527f6c6c20746869732066756e6374696f6e00000000000000000000000000000000602082015250565b6000614df5603083614501565b9150614e0082614d99565b604082019050919050565b60006020820190508181036000830152614e2481614de8565b9050919050565b6000819050919050565b6000819050919050565b6000614e5a614e55614e5084614e2b565b614e35565b6140bc565b9050919050565b614e6a81614e3f565b82525050565b6000604082019050614e856000830185614bd4565b614e926020830184614e61565b9392505050565b614ea2816140a1565b8114614ead57600080fd5b50565b600081519050614ebf81614e99565b92915050565b600060208284031215614edb57614eda613f1e565b5b6000614ee984828501614eb0565b91505092915050565b7f596f7520617265206e6f742061206d656d626572206f66207468652044414f00600082015250565b6000614f28601f83614501565b9150614f3382614ef2565b602082019050919050565b60006020820190508181036000830152614f5781614f1b565b9050919050565b7f696e76616c696420656e642074696d6500000000000000000000000000000000600082015250565b6000614f94601083614501565b9150614f9f82614f5e565b602082019050919050565b60006020820190508181036000830152614fc381614f87565b9050919050565b60008190508160005260206000209050919050565b60006020601f8301049050919050565b600082821b905092915050565b60006008830261502c7fffffffffffffffffffffffffffffffffffffffffffffffffffffffffffffffff82614fef565b6150368683614fef565b95508019841693508086168417925050509392505050565b600061506961506461505f846140bc565b614e35565b6140bc565b9050919050565b6000819050919050565b6150838361504e565b61509761508f82615070565b848454614ffc565b825550505050565b600090565b6150ac61509f565b6150b781848461507a565b505050565b5b818110156150db576150d06000826150a4565b6001810190506150bd565b5050565b601f821115615120576150f181614fca565b6150fa84614fdf565b81016020851015615109578190505b61511d61511585614fdf565b8301826150bc565b50505b505050565b600082821c905092915050565b600061514360001984600802615125565b1980831691505092915050565b600061515c8383615132565b9150826002028217905092915050565b61517582613fdf565b67ffffffffffffffff81111561518e5761518d6142a5565b5b6151988254614d68565b6151a38282856150df565b600060209050601f8311600181146151d657600084156151c4578287015190505b6151ce8582615150565b865550615236565b601f1984166151e486614fca565b60005b8281101561520c578489015182556001820191506020850194506020810190506151e7565b868310156152295784890151615225601f891682615132565b8355505b6001600288020188555050505b505050505050565b60008190508160005260206000209050919050565b601f821115615294576152658161523e565b61526e84614fdf565b8101602085101561527d578190505b61529161528985614fdf565b8301826150bc565b50505b505050565b6152a282614694565b67ffffffffffffffff8111156152bb576152ba6142a5565b5b6152c58254614d68565b6152d0828285615253565b600060209050601f83116001811461530357600084156152f1578287015190505b6152fb8582615150565b865550615363565b601f1984166153118661523e565b60005b8281101561533957848901518255600182019150602085019450602081019050615314565b868310156153565784890151615352601f891682615132565b8355505b6001600288020188555050505b505050505050565b60008154905061537a81614d68565b9050919050565b81810361538f575050615467565b6153988261536b565b67ffffffffffffffff8111156153b1576153b06142a5565b5b6153bb8254614d68565b6153c68282856150df565b6000601f8311600181146153f557600084156153e3578287015490505b6153ed8582615150565b865550615460565b601f19841661540387614fca565b965061540e86614fca565b60005b8281101561543657848901548255600182019150600185019450602081019050615411565b86831015615453578489015461544f601f891682615132565b8355505b6001600288020188555050505b5050505050505b565b60008154905061547881614d68565b9050919050565b81810361548d575050615565565b61549682615469565b67ffffffffffffffff8111156154af576154ae6142a5565b5b6154b98254614d68565b6154c4828285615253565b6000601f8311600181146154f357600084156154e1578287015490505b6154eb8582615150565b86555061555e565b601f1984166155018761523e565b965061550c8661523e565b60005b828110156155345784890154825560018201915060018501945060208101905061550f565b86831015615551578489015461554d601f891682615132565b8355505b6001600288020188555050505b5050505050505b565b600081905092915050565b600061557d82613fdf565b6155878185615567565b9350615597818560208601613ffb565b80840191505092915050565b60006155af8284615572565b915081905092915050565b6000815190506155c9816143d0565b92915050565b6000602082840312156155e5576155e4613f1e565b5b60006155f3848285016155ba565b91505092915050565b7f4e6f206d6f72652044414f20746f6b656e7320746f2070757263686173652c2060008201527f436f6e746163742041646d696e00000000000000000000000000000000000000602082015250565b6000615658602d83614501565b9150615663826155fc565b604082019050919050565b600060208201905081810360008301526156878161564b565b9050919050565b7f596f75206861766520657863656564656420746865206d6178696d756d20616d60008201527f6f756e74206f662044414f20746f6b656e732072657175697265640000000000602082015250565b60006156ea603b83614501565b91506156f58261568e565b604082019050919050565b60006020820190508181036000830152615719816156dd565b9050919050565b600061572b826140bc565b9150615736836140bc565b9250828202615744816140bc565b9150828204841483151761575b5761575a614cd6565b5b5092915050565b60006060820190506157776000830186614bd4565b6157846020830185614bd4565b615791604083018461456d565b949350505050565b60006040820190506157ae6000830185614bd4565b6157bb602083018461456d565b9392505050565b7f5a65726f206574686572206e6f7420616c6c6f77656400000000000000000000600082015250565b60006157f8601683614501565b9150615803826157c2565b602082019050919050565b60006020820190508181036000830152615827816157eb565b9050919050565b7f596f752063616e277420766f746520666f72207468652073616d652070726f7060008201527f73616c2074776963650000000000000000000000000000000000000000000000602082015250565b600061588a602983614501565b91506158958261582e565b604082019050919050565b600060208201905081810360008301526158b98161587d565b9050919050565b7f44616f206d656d6265727320617265206e6f7420656e6f756768000000000000600082015250565b60006158f6601a83614501565b9150615901826158c0565b602082019050919050565b60006020820190508181036000830152615925816158e9565b9050919050565b7f70726f706f73616c2069732079657420746f20626520617070726f7665640000600082015250565b6000615962601e83614501565b915061596d8261592c565b602082019050919050565b6000602082019050818103600083015261599181615955565b9050919050565b7f51756f72756d20686173206265656e20726561636865642c205468616e6b207960008201527f6f75000000000000000000000000000000000000000000000000000000000000602082015250565b60006159f4602283614501565b91506159ff82615998565b604082019050919050565b60006020820190508181036000830152615a23816159e7565b9050919050565b7f4e487b7100000000000000000000000000000000000000000000000000000000600052601260045260246000fd5b6000615a64826140bc565b9150615a6f836140bc565b925082615a7f57615a7e615a2a565b5b828204905092915050565b6000615a95826140bc565b9150615aa0836140bc565b9250828203905081811115615ab857615ab7614cd6565b5b92915050565b6000819050919050565b6000615ae3615ade615ad984615abe565b614e35565b6140bc565b9050919050565b615af381615ac8565b82525050565b6000604082019050615b0e6000830185614bd4565b615b1b6020830184615aea565b9392505050565b7f7a65726f2061646472657373206973206e6f7420616c6c6f7765640000000000600082015250565b6000615b58601b83614501565b9150615b6382615b22565b602082019050919050565b60006020820190508181036000830152615b8781615b4b565b9050919050565b6000604082019050615ba36000830185614bd4565b615bb06020830184614bd4565b9392505050565b7f43616e277420617070726f766520616e206163746976652070726f706f73616c600082015250565b6000615bed602083614501565b9150615bf882615bb7565b602082019050919050565b60006020820190508181036000830152615c1c81615be0565b9050919050565b7f43616e27742063616e63656c20616e206163746976652070726f706f73616c00600082015250565b6000615c59601f83614501565b9150615c6482615c23565b602082019050919050565b60006020820190508181036000830152615c8881615c4c565b9050919050565b7f616c7265616479206a6f696e6564000000000000000000000000000000000000600082015250565b6000615cc5600e83614501565b9150615cd082615c8f565b602082019050919050565b60006020820190508181036000830152615cf481615cb8565b9050919050565b7f596f752063616e2774206a6f696e207477696365000000000000000000000000600082015250565b6000615d31601483614501565b9150615d3c82615cfb565b602082019050919050565b60006020820190508181036000830152615d6081615d24565b9050919050565b6000606082019050615d7c6000830186614bd4565b615d896020830185614bd4565b615d966040830184614e61565b949350505050565b6000615da98261407e565b915067ffffffffffffffff8203615dc357615dc2614cd6565b5b600182019050919050565b600082825260208201905092915050565b6000615dea82614694565b615df48185615dce565b9350615e04818560208601613ffb565b615e0d81614025565b840191505092915050565b615e218161473f565b82525050565b600061012082019050615e3d600083018c614bd4565b615e4a602083018b614bd4565b615e57604083018a61456d565b615e64606083018961456d565b615e716080830188614bd4565b615e7e60a083018761456d565b81810360c0830152615e908186614512565b905081810360e0830152615ea48185615ddf565b9050615eb4610100830184615e18565b9a9950505050505050505050565b600081519050615ed181613f5a565b92915050565b60008060408385031215615eee57615eed613f1e565b5b6000615efc85828601615ec2565b9250506020615f0d85828601615ec2565b9150509250929050565b60008060008060808587031215615f3157615f30613f1e565b5b6000615f3f87828801615ec2565b9450506020615f5087828801615ec2565b9350506040615f6187828801615ec2565b9250506060615f7287828801615ec2565b9150509295919450925056fe70656e64696e67207265766965772c20636865636b206261636b206c61746572206f7220636f6e746163742061646d696ea2646970667358221220e0f9c0cde5514bb4d27edfd04f785e37c8de5e4299684dac6b777b5eb14c158c64736f6c63430008110033",
  "linkReferences": {},
  "deployedLinkReferences": {}
}