{
  "_format": "hh-sol-artifact-1",
  "contractName": "DAO",
  "sourceName": "contracts/DAO.sol",
  "abi": [
    {
      "inputs": [
        {
          "internalType": "address",
          "name": "_DAOtokenAddress",
          "type": "address"
        },
        {
          "internalType": "address",
          "name": "_USDC",
          "type": "address"
        },
        {
          "internalType": "address",
          "name": "_crowdFundFactoryaddr",
          "type": "address"
        },
        {
          "internalType": "address",
          "name": "_nft",
          "type": "address"
        }
      ],
      "stateMutability": "nonpayable",
      "type": "constructor"
    },
    {
      "inputs": [
        {
          "internalType": "string",
          "name": "",
          "type": "string"
        }
      ],
      "name": "AlreadyJoined",
      "type": "error"
    },
    {
      "inputs": [
        {
          "internalType": "string",
          "name": "",
          "type": "string"
        }
      ],
      "name": "AlreadyVoted",
      "type": "error"
    },
    {
      "inputs": [
        {
          "internalType": "string",
          "name": "",
          "type": "string"
        }
      ],
      "name": "ContractNotFunded",
      "type": "error"
    },
    {
      "inputs": [
        {
          "internalType": "uint256",
          "name": "amountInputed",
          "type": "uint256"
        },
        {
          "internalType": "uint256",
          "name": "amountExpected",
          "type": "uint256"
        }
      ],
      "name": "EtherNotSufficient",
      "type": "error"
    },
    {
      "inputs": [
        {
          "internalType": "uint256",
          "name": "amountAvailable",
          "type": "uint256"
        },
        {
          "internalType": "uint256",
          "name": "amountExpected",
          "type": "uint256"
        }
      ],
      "name": "InsufficientToken",
      "type": "error"
    },
    {
      "inputs": [
        {
          "internalType": "string",
          "name": "",
          "type": "string"
        }
      ],
      "name": "NotAdmin",
      "type": "error"
    },
    {
      "inputs": [
        {
          "internalType": "string",
          "name": "",
          "type": "string"
        }
      ],
      "name": "NotEligible",
      "type": "error"
    },
    {
      "inputs": [
        {
          "internalType": "string",
          "name": "",
          "type": "string"
        }
      ],
      "name": "ProposalNotApproved",
      "type": "error"
    },
    {
      "inputs": [
        {
          "internalType": "string",
          "name": "",
          "type": "string"
        }
      ],
      "name": "TooMuch",
      "type": "error"
    },
    {
      "inputs": [
        {
          "internalType": "uint256",
          "name": "amountAvailable",
          "type": "uint256"
        },
        {
          "internalType": "uint256",
          "name": "amountExpected",
          "type": "uint256"
        }
      ],
      "name": "ToomuchToken",
      "type": "error"
    },
    {
      "inputs": [
        {
          "internalType": "string",
          "name": "",
          "type": "string"
        }
      ],
      "name": "ZeroAddress",
      "type": "error"
    },
    {
      "inputs": [
        {
          "internalType": "string",
          "name": "",
          "type": "string"
        }
      ],
      "name": "ZeroEther",
      "type": "error"
    },
    {
      "inputs": [
        {
          "internalType": "string",
          "name": "",
          "type": "string"
        }
      ],
      "name": "ZeroToken",
      "type": "error"
    },
    {
      "inputs": [
        {
          "internalType": "string",
          "name": "",
          "type": "string"
        }
      ],
      "name": "crowdFundCreated",
      "type": "error"
    },
    {
      "inputs": [],
      "name": "insufficientToken",
      "type": "error"
    },
    {
      "inputs": [
        {
          "internalType": "string",
          "name": "",
          "type": "string"
        }
      ],
      "name": "invalidTime",
      "type": "error"
    },
    {
      "inputs": [
        {
          "internalType": "string",
          "name": "",
          "type": "string"
        }
      ],
      "name": "n0tEnoughDaoMembers",
      "type": "error"
    },
    {
      "inputs": [],
      "name": "proposalAlreadyCancelled",
      "type": "error"
    },
    {
      "inputs": [
        {
          "internalType": "string",
          "name": "",
          "type": "string"
        }
      ],
      "name": "votingAlreadyStarted",
      "type": "error"
    },
    {
      "anonymous": false,
      "inputs": [
        {
          "indexed": false,
          "internalType": "address",
          "name": "oldAdmin",
          "type": "address"
        },
        {
          "indexed": false,
          "internalType": "address",
          "name": "newAdmin",
          "type": "address"
        }
      ],
      "name": "AdminUpdated",
      "type": "event"
    },
    {
      "anonymous": false,
      "inputs": [
        {
          "indexed": false,
          "internalType": "address",
          "name": "depositor",
          "type": "address"
        },
        {
          "indexed": false,
          "internalType": "uint256",
          "name": "amountDeposited",
          "type": "uint256"
        }
      ],
      "name": "EtherDeposited",
      "type": "event"
    },
    {
      "anonymous": false,
      "inputs": [
        {
          "indexed": true,
          "internalType": "address",
          "name": "member",
          "type": "address"
        },
        {
          "indexed": true,
          "internalType": "uint256",
          "name": "time",
          "type": "uint256"
        }
      ],
      "name": "Joined",
      "type": "event"
    },
    {
      "anonymous": false,
      "inputs": [
        {
          "indexed": true,
          "internalType": "uint256",
          "name": "_proposalID",
          "type": "uint256"
        },
        {
          "indexed": true,
          "internalType": "uint256",
          "name": "ApproveTime",
          "type": "uint256"
        }
      ],
      "name": "ProposalApproved",
      "type": "event"
    },
    {
      "anonymous": false,
      "inputs": [
        {
          "indexed": true,
          "internalType": "uint256",
          "name": "_proposalID",
          "type": "uint256"
        },
        {
          "indexed": true,
          "internalType": "uint256",
          "name": "cancellationTime",
          "type": "uint256"
        }
      ],
      "name": "ProposalCancelled",
      "type": "event"
    },
    {
      "anonymous": false,
      "inputs": [
        {
          "indexed": true,
          "internalType": "address",
          "name": "propInitiator",
          "type": "address"
        },
        {
          "indexed": true,
          "internalType": "string",
          "name": "topic",
          "type": "string"
        },
        {
          "indexed": true,
          "internalType": "uint256",
          "name": "time",
          "type": "uint256"
        }
      ],
      "name": "ProposalCreated",
      "type": "event"
    },
    {
      "anonymous": false,
      "inputs": [
        {
          "indexed": true,
          "internalType": "address",
          "name": "voter",
          "type": "address"
        },
        {
          "indexed": true,
          "internalType": "uint256",
          "name": "proposalID",
          "type": "uint256"
        },
        {
          "indexed": true,
          "internalType": "uint256",
          "name": "voteP",
          "type": "uint256"
        }
      ],
      "name": "ProposalVoted",
      "type": "event"
    },
    {
      "anonymous": false,
      "inputs": [
        {
          "indexed": false,
          "internalType": "address",
          "name": "_USDC",
          "type": "address"
        },
        {
          "indexed": true,
          "internalType": "address",
          "name": "manager",
          "type": "address"
        },
        {
          "indexed": true,
          "internalType": "address",
          "name": "crowdFundAddr",
          "type": "address"
        },
        {
          "indexed": true,
          "internalType": "address",
          "name": "owner",
          "type": "address"
        }
      ],
      "name": "newCrowdfundDetails",
      "type": "event"
    },
    {
      "stateMutability": "payable",
      "type": "fallback"
    },
    {
      "inputs": [],
      "name": "Admin",
      "outputs": [
        {
          "internalType": "address",
          "name": "",
          "type": "address"
        }
      ],
      "stateMutability": "view",
      "type": "function"
    },
    {
      "inputs": [
        {
          "internalType": "address",
          "name": "_memberAddress",
          "type": "address"
        }
      ],
      "name": "approveApplicant",
      "outputs": [],
      "stateMutability": "nonpayable",
      "type": "function"
    },
    {
      "inputs": [
        {
          "internalType": "uint256",
          "name": "_proposalID",
          "type": "uint256"
        }
      ],
      "name": "approveProposal",
      "outputs": [],
      "stateMutability": "nonpayable",
      "type": "function"
    },
    {
      "inputs": [
        {
          "internalType": "uint256",
          "name": "_proposalID",
          "type": "uint256"
        }
      ],
      "name": "cancelProposal",
      "outputs": [],
      "stateMutability": "nonpayable",
      "type": "function"
    },
    {
      "inputs": [
        {
          "internalType": "address",
          "name": "newAdmin",
          "type": "address"
        }
      ],
      "name": "changeAdmin",
      "outputs": [],
      "stateMutability": "nonpayable",
      "type": "function"
    },
    {
      "inputs": [],
      "name": "contractBalance",
      "outputs": [
        {
          "internalType": "uint256",
          "name": "",
          "type": "uint256"
        }
      ],
      "stateMutability": "view",
      "type": "function"
    },
    {
      "inputs": [
        {
          "internalType": "string",
          "name": "_topic",
          "type": "string"
        },
        {
          "internalType": "string",
          "name": "_description",
          "type": "string"
        },
        {
          "internalType": "uint256",
          "name": "amount",
          "type": "uint256"
        },
        {
          "internalType": "uint256",
          "name": "_deadline",
          "type": "uint256"
        }
      ],
      "name": "createProposal",
      "outputs": [],
      "stateMutability": "nonpayable",
      "type": "function"
    },
    {
      "inputs": [],
      "name": "depositIntoDAO",
      "outputs": [],
      "stateMutability": "payable",
      "type": "function"
    },
    {
      "inputs": [],
      "name": "getAllProposalCount",
      "outputs": [
        {
          "internalType": "uint256",
          "name": "",
          "type": "uint256"
        }
      ],
      "stateMutability": "view",
      "type": "function"
    },
    {
      "inputs": [],
      "name": "getAllProposals",
      "outputs": [
        {
          "components": [
            {
              "internalType": "uint256",
              "name": "proposalID",
              "type": "uint256"
            },
            {
              "internalType": "string",
              "name": "topic",
              "type": "string"
            },
            {
              "internalType": "bytes",
              "name": "description",
              "type": "bytes"
            },
            {
              "internalType": "address",
              "name": "proposalInitiator",
              "type": "address"
            },
            {
              "internalType": "uint256",
              "name": "amountProposed",
              "type": "uint256"
            },
            {
              "internalType": "uint256",
              "name": "votes",
              "type": "uint256"
            },
            {
              "internalType": "bool",
              "name": "approved",
              "type": "bool"
            },
            {
              "internalType": "bool",
              "name": "created",
              "type": "bool"
            },
            {
              "internalType": "bool",
              "name": "cancelled",
              "type": "bool"
            },
            {
              "internalType": "uint256",
              "name": "totalVoteCount",
              "type": "uint256"
            },
            {
              "internalType": "uint256",
              "name": "cancellationTime",
              "type": "uint256"
            },
            {
              "internalType": "uint256",
              "name": "approvedTime",
              "type": "uint256"
            },
            {
              "internalType": "uint256",
              "name": "deadline",
              "type": "uint256"
            },
            {
              "internalType": "address[]",
              "name": "voters",
              "type": "address[]"
            }
          ],
          "internalType": "struct DAO.Proposals[]",
          "name": "Pl",
          "type": "tuple[]"
        }
      ],
      "stateMutability": "view",
      "type": "function"
    },
    {
      "inputs": [
        {
          "internalType": "uint256",
          "name": "_proposalID",
          "type": "uint256"
        }
      ],
      "name": "getAllVoters",
      "outputs": [
        {
          "internalType": "address[]",
          "name": "",
          "type": "address[]"
        }
      ],
      "stateMutability": "view",
      "type": "function"
    },
    {
      "inputs": [],
      "name": "getDAOMemberCount",
      "outputs": [
        {
          "internalType": "uint256",
          "name": "",
          "type": "uint256"
        }
      ],
      "stateMutability": "view",
      "type": "function"
    },
    {
      "inputs": [
        {
          "internalType": "uint256",
          "name": "_proposalId",
          "type": "uint256"
        }
      ],
      "name": "getProposalDeadline",
      "outputs": [
        {
          "internalType": "uint256",
          "name": "",
          "type": "uint256"
        }
      ],
      "stateMutability": "view",
      "type": "function"
    },
    {
      "inputs": [
        {
          "internalType": "uint256",
          "name": "_proposalID",
          "type": "uint256"
        }
      ],
      "name": "getProposalStatus",
      "outputs": [
        {
          "internalType": "string",
          "name": "",
          "type": "string"
        }
      ],
      "stateMutability": "view",
      "type": "function"
    },
    {
      "inputs": [
        {
          "internalType": "string",
          "name": "_name",
          "type": "string"
        }
      ],
      "name": "joinDAO",
      "outputs": [],
      "stateMutability": "nonpayable",
      "type": "function"
    },
    {
      "inputs": [
        {
          "internalType": "uint256",
          "name": "_minimumrequiredDAOTokenAmount",
          "type": "uint256"
        },
        {
          "internalType": "uint256",
          "name": "_maximumrequiredDAOTokenAmount",
          "type": "uint256"
        }
      ],
      "name": "minandmaxDAOtokenrequired",
      "outputs": [],
      "stateMutability": "nonpayable",
      "type": "function"
    },
    {
      "inputs": [
        {
          "internalType": "uint256",
          "name": "tokenAmount",
          "type": "uint256"
        }
      ],
      "name": "purchaseDAOToken",
      "outputs": [],
      "stateMutability": "payable",
      "type": "function"
    },
    {
      "inputs": [
        {
          "internalType": "address",
          "name": "_memberAddress",
          "type": "address"
        }
      ],
      "name": "rejectApplicant",
      "outputs": [],
      "stateMutability": "nonpayable",
      "type": "function"
    },
    {
      "inputs": [],
      "name": "showAllDAOMemberDetails",
      "outputs": [
        {
          "components": [
            {
              "internalType": "string",
              "name": "name",
              "type": "string"
            },
            {
              "internalType": "address",
              "name": "memberAddress",
              "type": "address"
            },
            {
              "internalType": "uint64",
              "name": "memberID",
              "type": "uint64"
            },
            {
              "internalType": "bool",
              "name": "joined",
              "type": "bool"
            },
            {
              "internalType": "uint256",
              "name": "timeJoined",
              "type": "uint256"
            }
          ],
          "internalType": "struct DAO.DAOMemberInfo[]",
          "name": "memberInfo",
          "type": "tuple[]"
        }
      ],
      "stateMutability": "view",
      "type": "function"
    },
    {
      "inputs": [
        {
          "internalType": "address",
          "name": "tokenAddress",
          "type": "address"
        }
      ],
      "name": "transferLockedToken",
      "outputs": [],
      "stateMutability": "nonpayable",
      "type": "function"
    },
    {
      "inputs": [],
      "name": "usdcBalance",
      "outputs": [
        {
          "internalType": "uint256",
          "name": "",
          "type": "uint256"
        }
      ],
      "stateMutability": "view",
      "type": "function"
    },
    {
      "inputs": [
        {
          "internalType": "address",
          "name": "memberAddr",
          "type": "address"
        }
      ],
      "name": "viewDAOMemberInfo",
      "outputs": [
        {
          "components": [
            {
              "internalType": "string",
              "name": "name",
              "type": "string"
            },
            {
              "internalType": "address",
              "name": "memberAddress",
              "type": "address"
            },
            {
              "internalType": "uint64",
              "name": "memberID",
              "type": "uint64"
            },
            {
              "internalType": "bool",
              "name": "joined",
              "type": "bool"
            },
            {
              "internalType": "uint256",
              "name": "timeJoined",
              "type": "uint256"
            }
          ],
          "internalType": "struct DAO.DAOMemberInfo",
          "name": "",
          "type": "tuple"
        }
      ],
      "stateMutability": "view",
      "type": "function"
    },
    {
      "inputs": [
        {
          "internalType": "uint256",
          "name": "prosalID",
          "type": "uint256"
        }
      ],
      "name": "viewProposal",
      "outputs": [
        {
          "components": [
            {
              "internalType": "uint256",
              "name": "proposalID",
              "type": "uint256"
            },
            {
              "internalType": "string",
              "name": "topic",
              "type": "string"
            },
            {
              "internalType": "bytes",
              "name": "description",
              "type": "bytes"
            },
            {
              "internalType": "address",
              "name": "proposalInitiator",
              "type": "address"
            },
            {
              "internalType": "uint256",
              "name": "amountProposed",
              "type": "uint256"
            },
            {
              "internalType": "uint256",
              "name": "votes",
              "type": "uint256"
            },
            {
              "internalType": "bool",
              "name": "approved",
              "type": "bool"
            },
            {
              "internalType": "bool",
              "name": "created",
              "type": "bool"
            },
            {
              "internalType": "bool",
              "name": "cancelled",
              "type": "bool"
            },
            {
              "internalType": "uint256",
              "name": "totalVoteCount",
              "type": "uint256"
            },
            {
              "internalType": "uint256",
              "name": "cancellationTime",
              "type": "uint256"
            },
            {
              "internalType": "uint256",
              "name": "approvedTime",
              "type": "uint256"
            },
            {
              "internalType": "uint256",
              "name": "deadline",
              "type": "uint256"
            },
            {
              "internalType": "address[]",
              "name": "voters",
              "type": "address[]"
            }
          ],
          "internalType": "struct DAO.Proposals",
          "name": "",
          "type": "tuple"
        }
      ],
      "stateMutability": "view",
      "type": "function"
    },
    {
      "inputs": [
        {
          "internalType": "uint256",
          "name": "ID",
          "type": "uint256"
        }
      ],
      "name": "voteCount",
      "outputs": [
        {
          "internalType": "uint256",
          "name": "",
          "type": "uint256"
        }
      ],
      "stateMutability": "view",
      "type": "function"
    },
    {
      "inputs": [
        {
          "internalType": "uint256",
          "name": "prosalID",
          "type": "uint256"
        }
      ],
      "name": "voteProposal",
      "outputs": [],
      "stateMutability": "nonpayable",
      "type": "function"
    },
    {
      "stateMutability": "payable",
      "type": "receive"
    }
  ],
  "bytecode": "0x608060405260016008556001600a60006101000a81548167ffffffffffffffff021916908367ffffffffffffffff1602179055503480156200004057600080fd5b5060405162005e0e38038062005e0e83398181016040528101906200006691906200021e565b83600260006101000a81548173ffffffffffffffffffffffffffffffffffffffff021916908373ffffffffffffffffffffffffffffffffffffffff160217905550336000806101000a81548173ffffffffffffffffffffffffffffffffffffffff021916908373ffffffffffffffffffffffffffffffffffffffff16021790555082600160006101000a81548173ffffffffffffffffffffffffffffffffffffffff021916908373ffffffffffffffffffffffffffffffffffffffff16021790555081600360006101000a81548173ffffffffffffffffffffffffffffffffffffffff021916908373ffffffffffffffffffffffffffffffffffffffff16021790555080600560006101000a81548173ffffffffffffffffffffffffffffffffffffffff021916908373ffffffffffffffffffffffffffffffffffffffff1602179055505050505062000290565b600080fd5b600073ffffffffffffffffffffffffffffffffffffffff82169050919050565b6000620001e682620001b9565b9050919050565b620001f881620001d9565b81146200020457600080fd5b50565b6000815190506200021881620001ed565b92915050565b600080600080608085870312156200023b576200023a620001b4565b5b60006200024b8782880162000207565b94505060206200025e8782880162000207565b9350506040620002718782880162000207565b9250506060620002848782880162000207565b91505092959194509250565b615b6e80620002a06000396000f3fe60806040526004361061016a5760003560e01c80637ea34527116100d1578063bff3375e1161008a578063e179e46f11610064578063e179e46f14610514578063e3fec1d01461053d578063ec2bbc791461057a578063ff1b636d146105a357610171565b8063bff3375e14610483578063cceb68f5146104c0578063e0a8f6f5146104eb57610171565b80637ea3452714610396578063807896d5146103a05780638b7afe2e146103c95780638f283970146103f45780638f3632001461041d57806398951b561461045a57610171565b8063575fcdf811610123578063575fcdf8146102a75780636b5e1766146102d257806371b9acf0146102fb57806373688e561461032657806376c63958146103515780637db41eae1461036d57610171565b80631292a282146101735780631e6a6c7e1461019c578063273f868e146101c757806329b8bdc4146101f0578063401853b71461022d5780634fc8a20d1461026a57610171565b3661017157005b005b34801561017f57600080fd5b5061019a60048036038101906101959190613c67565b6105ce565b005b3480156101a857600080fd5b506101b16107b7565b6040516101be9190613ec2565b60405180910390f35b3480156101d357600080fd5b506101ee60048036038101906101e99190613c67565b610955565b005b3480156101fc57600080fd5b5061021760048036038101906102129190613c67565b610c5e565b6040516102249190613f5a565b60405180910390f35b34801561023957600080fd5b50610254600480360381019061024f9190613fa8565b610df6565b604051610261919061401f565b60405180910390f35b34801561027657600080fd5b50610291600480360381019061028c9190613fa8565b610ef1565b60405161029e9190614050565b60405180910390f35b3480156102b357600080fd5b506102bc6111c2565b6040516102c99190614050565b60405180910390f35b3480156102de57600080fd5b506102f960048036038101906102f491906141a0565b6111cc565b005b34801561030757600080fd5b506103106116c9565b60405161031d9190614050565b60405180910390f35b34801561033257600080fd5b5061033b6116d3565b6040516103489190614050565b60405180910390f35b61036b60048036038101906103669190613fa8565b611776565b005b34801561037957600080fd5b50610394600480360381019061038f9190613c67565b611ba7565b005b61039e611d36565b005b3480156103ac57600080fd5b506103c760048036038101906103c29190613fa8565b611dcd565b005b3480156103d557600080fd5b506103de6126c2565b6040516103eb9190614050565b60405180910390f35b34801561040057600080fd5b5061041b60048036038101906104169190613c67565b6126ca565b005b34801561042957600080fd5b50610444600480360381019061043f9190613fa8565b612843565b6040516104519190614050565b60405180910390f35b34801561046657600080fd5b50610481600480360381019061047c9190613fa8565b612863565b005b34801561048f57600080fd5b506104aa60048036038101906104a59190613fa8565b612a82565b6040516104b791906142ee565b60405180910390f35b3480156104cc57600080fd5b506104d5612b26565b6040516104e291906145d2565b60405180910390f35b3480156104f757600080fd5b50610512600480360381019061050d9190613fa8565b612e25565b005b34801561052057600080fd5b5061053b600480360381019061053691906145f4565b612fe3565b005b34801561054957600080fd5b50610564600480360381019061055f9190613fa8565b6135e1565b6040516105719190614779565b60405180910390f35b34801561058657600080fd5b506105a1600480360381019061059c919061479b565b6138ae565b005b3480156105af57600080fd5b506105b861394e565b6040516105c591906147ea565b60405180910390f35b60008054906101000a900473ffffffffffffffffffffffffffffffffffffffff1673ffffffffffffffffffffffffffffffffffffffff163373ffffffffffffffffffffffffffffffffffffffff161461065c576040517f7625245e00000000000000000000000000000000000000000000000000000000815260040161065390614851565b60405180910390fd5b6000601360008373ffffffffffffffffffffffffffffffffffffffff1673ffffffffffffffffffffffffffffffffffffffff16815260200190815260200160002060020154036106e1576040517f08c379a00000000000000000000000000000000000000000000000000000000081526004016106d8906148bd565b60405180910390fd5b6001601360008373ffffffffffffffffffffffffffffffffffffffff1673ffffffffffffffffffffffffffffffffffffffff168152602001908152602001600020600101601c6101000a81548160ff021916908315150217905550600160045461074b919061490c565b600481905550600f339080600181540180825580915050600190039060005260206000200160009091909190916101000a81548173ffffffffffffffffffffffffffffffffffffffff021916908373ffffffffffffffffffffffffffffffffffffffff16021790555050565b60606010805480602002602001604051908101604052809291908181526020016000905b8282101561094c57838290600052602060002090600302016040518060a001604052908160008201805461080e9061496f565b80601f016020809104026020016040519081016040528092919081815260200182805461083a9061496f565b80156108875780601f1061085c57610100808354040283529160200191610887565b820191906000526020600020905b81548152906001019060200180831161086a57829003601f168201915b505050505081526020016001820160009054906101000a900473ffffffffffffffffffffffffffffffffffffffff1673ffffffffffffffffffffffffffffffffffffffff1673ffffffffffffffffffffffffffffffffffffffff1681526020016001820160149054906101000a900467ffffffffffffffff1667ffffffffffffffff1667ffffffffffffffff16815260200160018201601c9054906101000a900460ff16151515158152602001600282015481525050815260200190600101906107db565b50505050905090565b60008054906101000a900473ffffffffffffffffffffffffffffffffffffffff1673ffffffffffffffffffffffffffffffffffffffff163373ffffffffffffffffffffffffffffffffffffffff16146109e3576040517f7625245e0000000000000000000000000000000000000000000000000000000081526004016109da90614851565b60405180910390fd5b6000601360008373ffffffffffffffffffffffffffffffffffffffff1673ffffffffffffffffffffffffffffffffffffffff1681526020019081526020016000206002015403610a68576040517f08c379a0000000000000000000000000000000000000000000000000000000008152600401610a5f906148bd565b60405180910390fd5b6000601360008373ffffffffffffffffffffffffffffffffffffffff1673ffffffffffffffffffffffffffffffffffffffff168152602001908152602001600020600101601c6101000a81548160ff0219169083151502179055506000601460008373ffffffffffffffffffffffffffffffffffffffff1673ffffffffffffffffffffffffffffffffffffffff16815260200190815260200160002060006101000a81548160ff021916908315150217905550600160009054906101000a900473ffffffffffffffffffffffffffffffffffffffff1673ffffffffffffffffffffffffffffffffffffffff1663a9059cbb82678ac7230489e800006040518363ffffffff1660e01b8152600401610b809291906149e5565b6020604051808303816000875af1158015610b9f573d6000803e3d6000fd5b505050506040513d601f19601f82011682018060405250810190610bc39190614a3a565b50600260009054906101000a900473ffffffffffffffffffffffffffffffffffffffff1673ffffffffffffffffffffffffffffffffffffffff166379cc679082678ac7230489e800006040518363ffffffff1660e01b8152600401610c299291906149e5565b600060405180830381600087803b158015610c4357600080fd5b505af1158015610c57573d6000803e3d6000fd5b5050505050565b610c66613aaa565b601360008373ffffffffffffffffffffffffffffffffffffffff1673ffffffffffffffffffffffffffffffffffffffff1681526020019081526020016000206040518060a0016040529081600082018054610cc09061496f565b80601f0160208091040260200160405190810160405280929190818152602001828054610cec9061496f565b8015610d395780601f10610d0e57610100808354040283529160200191610d39565b820191906000526020600020905b815481529060010190602001808311610d1c57829003601f168201915b505050505081526020016001820160009054906101000a900473ffffffffffffffffffffffffffffffffffffffff1673ffffffffffffffffffffffffffffffffffffffff1673ffffffffffffffffffffffffffffffffffffffff1681526020016001820160149054906101000a900467ffffffffffffffff1667ffffffffffffffff1667ffffffffffffffff16815260200160018201601c9054906101000a900460ff161515151581526020016002820154815250509050919050565b6060600115156011600084815260200190815260200160002060060160029054906101000a900460ff16151503610e64576040518060400160405280600981526020017f63616e63656c6c656400000000000000000000000000000000000000000000008152509050610eec565b600115156011600084815260200190815260200160002060060160009054906101000a900460ff16151503610ed0576040518060400160405280600881526020017f617070726f7665640000000000000000000000000000000000000000000000008152509050610eec565b604051806060016040528060318152602001615b086031913990505b919050565b60008060116000848152602001908152602001600020604051806101c001604052908160008201548152602001600182018054610f2d9061496f565b80601f0160208091040260200160405190810160405280929190818152602001828054610f599061496f565b8015610fa65780601f10610f7b57610100808354040283529160200191610fa6565b820191906000526020600020905b815481529060010190602001808311610f8957829003601f168201915b50505050508152602001600282018054610fbf9061496f565b80601f0160208091040260200160405190810160405280929190818152602001828054610feb9061496f565b80156110385780601f1061100d57610100808354040283529160200191611038565b820191906000526020600020905b81548152906001019060200180831161101b57829003601f168201915b505050505081526020016003820160009054906101000a900473ffffffffffffffffffffffffffffffffffffffff1673ffffffffffffffffffffffffffffffffffffffff1673ffffffffffffffffffffffffffffffffffffffff16815260200160048201548152602001600582015481526020016006820160009054906101000a900460ff161515151581526020016006820160019054906101000a900460ff161515151581526020016006820160029054906101000a900460ff16151515158152602001600782015481526020016008820154815260200160098201548152602001600a8201548152602001600b82018054806020026020016040519081016040528092919081815260200182805480156111a957602002820191906000526020600020905b8160009054906101000a900473ffffffffffffffffffffffffffffffffffffffff1673ffffffffffffffffffffffffffffffffffffffff168152602001906001019080831161115f575b5050505050815250509050806101200151915050919050565b6000600454905090565b6000601360003373ffffffffffffffffffffffffffffffffffffffff1673ffffffffffffffffffffffffffffffffffffffff1681526020019081526020016000206040518060a00160405290816000820180546112289061496f565b80601f01602080910402602001604051908101604052809291908181526020018280546112549061496f565b80156112a15780601f10611276576101008083540402835291602001916112a1565b820191906000526020600020905b81548152906001019060200180831161128457829003601f168201915b505050505081526020016001820160009054906101000a900473ffffffffffffffffffffffffffffffffffffffff1673ffffffffffffffffffffffffffffffffffffffff1673ffffffffffffffffffffffffffffffffffffffff1681526020016001820160149054906101000a900467ffffffffffffffff1667ffffffffffffffff1667ffffffffffffffff16815260200160018201601c9054906101000a900460ff16151515158152602001600282015481525050905060004283611367919061490c565b90506000151582606001511515036113b4576040517f3bfa637f0000000000000000000000000000000000000000000000000000000081526004016113ab90614ab3565b60405180910390fd5b428110156113f7576040517f1653f4640000000000000000000000000000000000000000000000000000000081526004016113ee90614b1f565b60405180910390fd5b60006011600060085481526020019081526020016000209050868160010190816114219190614ce1565b50858160020190816114339190614e0e565b5060085481600001819055508381600a0181905550848160040181905550338160030160006101000a81548173ffffffffffffffffffffffffffffffffffffffff021916908373ffffffffffffffffffffffffffffffffffffffff16021790555060016009546114a3919061490c565b60098190555060068190806001815401808255809150506001900390600052602060002090600c020160009091909190915060008201548160000155600182018160010190816114f39190614ef6565b50600282018160020190816115089190614ff4565b506003820160009054906101000a900473ffffffffffffffffffffffffffffffffffffffff168160030160006101000a81548173ffffffffffffffffffffffffffffffffffffffff021916908373ffffffffffffffffffffffffffffffffffffffff16021790555060048201548160040155600582015481600501556006820160009054906101000a900460ff168160060160006101000a81548160ff0219169083151502179055506006820160019054906101000a900460ff168160060160016101000a81548160ff0219169083151502179055506006820160029054906101000a900460ff168160060160026101000a81548160ff021916908315150217905550600782015481600701556008820154816008015560098201548160090155600a82015481600a0155600b820181600b01908054611649929190613afb565b50505060016008600082825461165f919061490c565b9250508190555042876040516116759190615118565b60405180910390203373ffffffffffffffffffffffffffffffffffffffff167fc3dcab762d52a4a2d2507dd9e3436141e746eb3ba927c89698773a6f24a7456460405160405180910390a450505050505050565b6000600954905090565b6000600160009054906101000a900473ffffffffffffffffffffffffffffffffffffffff1673ffffffffffffffffffffffffffffffffffffffff166370a08231306040518263ffffffff1660e01b815260040161173091906147ea565b602060405180830381865afa15801561174d573d6000803e3d6000fd5b505050506040513d601f19601f820116820180604052508101906117719190615144565b905090565b6000600260009054906101000a900473ffffffffffffffffffffffffffffffffffffffff1673ffffffffffffffffffffffffffffffffffffffff166370a08231306040518263ffffffff1660e01b81526004016117d391906147ea565b602060405180830381865afa1580156117f0573d6000803e3d6000fd5b505050506040513d601f19601f820116820180604052508101906118149190615144565b11611854576040517f6676eb1b00000000000000000000000000000000000000000000000000000000815260040161184b906151e3565b60405180910390fd5b600c54600260009054906101000a900473ffffffffffffffffffffffffffffffffffffffff1673ffffffffffffffffffffffffffffffffffffffff166370a08231336040518263ffffffff1660e01b81526004016118b291906147ea565b602060405180830381865afa1580156118cf573d6000803e3d6000fd5b505050506040513d601f19601f820116820180604052508101906118f39190615144565b1115611934576040517fed6dcad600000000000000000000000000000000000000000000000000000000815260040161192b90615275565b60405180910390fd5b600c5481600260009054906101000a900473ffffffffffffffffffffffffffffffffffffffff1673ffffffffffffffffffffffffffffffffffffffff166370a08231336040518263ffffffff1660e01b815260040161199391906147ea565b602060405180830381865afa1580156119b0573d6000803e3d6000fd5b505050506040513d601f19601f820116820180604052508101906119d49190615144565b6119de919061490c565b1115611a1f576040517fed6dcad6000000000000000000000000000000000000000000000000000000008152600401611a1690615275565b60405180910390fd5b600160009054906101000a900473ffffffffffffffffffffffffffffffffffffffff1673ffffffffffffffffffffffffffffffffffffffff166323b872dd3330670de0b6b3a764000085611a739190615295565b6040518463ffffffff1660e01b8152600401611a91939291906152d7565b6020604051808303816000875af1158015611ab0573d6000803e3d6000fd5b505050506040513d601f19601f82011682018060405250810190611ad49190614a3a565b50600260009054906101000a900473ffffffffffffffffffffffffffffffffffffffff1673ffffffffffffffffffffffffffffffffffffffff166323b872dd3033670de0b6b3a764000085611b299190615295565b6040518463ffffffff1660e01b8152600401611b47939291906152d7565b6020604051808303816000875af1158015611b66573d6000803e3d6000fd5b505050506040513d601f19601f82011682018060405250810190611b8a9190614a3a565b5034600d6000828254611b9d919061490c565b9250508190555050565b60008054906101000a900473ffffffffffffffffffffffffffffffffffffffff1673ffffffffffffffffffffffffffffffffffffffff163373ffffffffffffffffffffffffffffffffffffffff1614611c35576040517f7625245e000000000000000000000000000000000000000000000000000000008152600401611c2c90614851565b60405180910390fd5b60008173ffffffffffffffffffffffffffffffffffffffff166370a08231306040518263ffffffff1660e01b8152600401611c7091906147ea565b602060405180830381865afa158015611c8d573d6000803e3d6000fd5b505050506040513d601f19601f82011682018060405250810190611cb19190615144565b90508173ffffffffffffffffffffffffffffffffffffffff1663a9059cbb33836040518363ffffffff1660e01b8152600401611cee92919061530e565b6020604051808303816000875af1158015611d0d573d6000803e3d6000fd5b505050506040513d601f19601f82011682018060405250810190611d319190614a3a565b505050565b60003403611d79576040517fce2c97c3000000000000000000000000000000000000000000000000000000008152600401611d7090615383565b60405180910390fd5b34600d6000828254611d8b919061490c565b925050819055507f939e51ac2fd009b158d6344f7e68a83d8d18d9b0cc88cf514aac6aaa9cad2a183334604051611dc392919061530e565b60405180910390a1565b6000601360003373ffffffffffffffffffffffffffffffffffffffff1673ffffffffffffffffffffffffffffffffffffffff1681526020019081526020016000206040518060a0016040529081600082018054611e299061496f565b80601f0160208091040260200160405190810160405280929190818152602001828054611e559061496f565b8015611ea25780601f10611e7757610100808354040283529160200191611ea2565b820191906000526020600020905b815481529060010190602001808311611e8557829003601f168201915b505050505081526020016001820160009054906101000a900473ffffffffffffffffffffffffffffffffffffffff1673ffffffffffffffffffffffffffffffffffffffff1673ffffffffffffffffffffffffffffffffffffffff1681526020016001820160149054906101000a900467ffffffffffffffff1667ffffffffffffffff1667ffffffffffffffff16815260200160018201601c9054906101000a900460ff161515151581526020016002820154815250509050600015158160600151151503611fa5576040517f3bfa637f000000000000000000000000000000000000000000000000000000008152600401611f9c90614ab3565b60405180910390fd5b60011515601260003373ffffffffffffffffffffffffffffffffffffffff1673ffffffffffffffffffffffffffffffffffffffff168152602001908152602001600020600084815260200190815260200160002060009054906101000a900460ff16151503612049576040517f1e3998f700000000000000000000000000000000000000000000000000000000815260040161204090615415565b60405180910390fd5b6000601160008481526020019081526020016000209050670de0b6b3a7640000600260009054906101000a900473ffffffffffffffffffffffffffffffffffffffff1673ffffffffffffffffffffffffffffffffffffffff166370a08231336040518263ffffffff1660e01b81526004016120c491906147ea565b602060405180830381865afa1580156120e1573d6000803e3d6000fd5b505050506040513d601f19601f820116820180604052508101906121059190615144565b101561213d576040517f14ffc61300000000000000000000000000000000000000000000000000000000815260040160405180910390fd5b600480541015612182576040517fc5a7a69d00000000000000000000000000000000000000000000000000000000815260040161217990615481565b60405180910390fd5b600115158160060160009054906101000a900460ff161515146121da576040517fbcb86b330000000000000000000000000000000000000000000000000000000081526004016121d1906154ed565b60405180910390fd5b600115158160060160019054906101000a900460ff16151503612232576040517f348b0b6f0000000000000000000000000000000000000000000000000000000081526004016122299061557f565b60405180910390fd5b60006011600085815260200190815260200160002060030160009054906101000a900473ffffffffffffffffffffffffffffffffffffffff169050600060116000868152602001908152602001600020600a0154905060006011600087815260200190815260200160002060040154905060006011600088815260200190815260200160002060010180546122c69061496f565b80601f01602080910402602001604051908101604052809291908181526020018280546122f29061496f565b801561233f5780601f106123145761010080835404028352916020019161233f565b820191906000526020600020905b81548152906001019060200180831161232257829003601f168201915b5050505050905060018560050154612357919061490c565b85600501819055506064601e6004546123709190615295565b61237a91906155ce565b60045461238791906155ff565b8560050154106124f55760018560060160016101000a81548160ff02191690831515021790555042836123ba919061490c565b85600a0181905550612438600360009054906101000a900473ffffffffffffffffffffffffffffffffffffffff16600160009054906101000a900473ffffffffffffffffffffffffffffffffffffffff16868a87600560009054906101000a900473ffffffffffffffffffffffffffffffffffffffff168888613972565b505060008060008061246c600360009054906101000a900473ffffffffffffffffffffffffffffffffffffffff168c613a0d565b93509350935093508073ffffffffffffffffffffffffffffffffffffffff168273ffffffffffffffffffffffffffffffffffffffff168473ffffffffffffffffffffffffffffffffffffffff167fe95e8a2e0df49121ab9e3d869da6d0b9cb5329014025ef1aea078b8a7e86e025876040516124e891906147ea565b60405180910390a4505050505b600260009054906101000a900473ffffffffffffffffffffffffffffffffffffffff1673ffffffffffffffffffffffffffffffffffffffff166379cc679033670de0b6b3a76400006040518363ffffffff1660e01b815260040161255a92919061566e565b600060405180830381600087803b15801561257457600080fd5b505af1158015612588573d6000803e3d6000fd5b505050506001601260003373ffffffffffffffffffffffffffffffffffffffff1673ffffffffffffffffffffffffffffffffffffffff168152602001908152602001600020600089815260200190815260200160002060006101000a81548160ff02191690831515021790555084600b01339080600181540180825580915050600190039060005260206000200160009091909190916101000a81548173ffffffffffffffffffffffffffffffffffffffff021916908373ffffffffffffffffffffffffffffffffffffffff1602179055506001856007015461266b919061490c565b85600701819055506001873373ffffffffffffffffffffffffffffffffffffffff167fadbf79fd0598af47dd5fe925627d0789f9ee64fe5f4f8f6936ac27a05b70adb660405160405180910390a450505050505050565b600047905090565b60008054906101000a900473ffffffffffffffffffffffffffffffffffffffff1673ffffffffffffffffffffffffffffffffffffffff163373ffffffffffffffffffffffffffffffffffffffff1614612758576040517f7625245e00000000000000000000000000000000000000000000000000000000815260040161274f90615709565b60405180910390fd5b600073ffffffffffffffffffffffffffffffffffffffff168173ffffffffffffffffffffffffffffffffffffffff16036127c7576040517feac0d3890000000000000000000000000000000000000000000000000000000081526004016127be90615775565b60405180910390fd5b806000806101000a81548173ffffffffffffffffffffffffffffffffffffffff021916908373ffffffffffffffffffffffffffffffffffffffff1602179055507f101b8081ff3b56bbf45deb824d86a3b0fd38b7e3dd42421105cf8abe9106db0b3382604051612838929190615795565b60405180910390a150565b600060116000838152602001908152602001600020600a01549050919050565b60008054906101000a900473ffffffffffffffffffffffffffffffffffffffff1673ffffffffffffffffffffffffffffffffffffffff163373ffffffffffffffffffffffffffffffffffffffff16146128f1576040517f7625245e0000000000000000000000000000000000000000000000000000000081526004016128e890614851565b60405180910390fd5b600115156011600083815260200190815260200160002060060160029054906101000a900460ff16151503612952576040517faa58221c00000000000000000000000000000000000000000000000000000000815260040160405180910390fd5b6000601160008381526020019081526020016000206005015411156129ac576040517f98d256770000000000000000000000000000000000000000000000000000000081526004016129a39061580a565b60405180910390fd5b6004805410156129f1576040517fc5a7a69d0000000000000000000000000000000000000000000000000000000081526004016129e890615481565b60405180910390fd5b60016011600083815260200190815260200160002060060160006101000a81548160ff0219169083151502179055504260116000838152602001908152602001600020600901819055506011600082815260200190815260200160002060090154817fc6a4fd4a703d2a2fe3167ce7f6d62bf96458b7e55042cfaa85d5c7ef3ac56eea60405160405180910390a350565b606060116000838152602001908152602001600020600b01805480602002602001604051908101604052809291908181526020018280548015612b1a57602002820191906000526020600020905b8160009054906101000a900473ffffffffffffffffffffffffffffffffffffffff1673ffffffffffffffffffffffffffffffffffffffff1681526020019060010190808311612ad0575b50505050509050919050565b60606006805480602002602001604051908101604052809291908181526020016000905b82821015612e1c57838290600052602060002090600c0201604051806101c001604052908160008201548152602001600182018054612b889061496f565b80601f0160208091040260200160405190810160405280929190818152602001828054612bb49061496f565b8015612c015780601f10612bd657610100808354040283529160200191612c01565b820191906000526020600020905b815481529060010190602001808311612be457829003601f168201915b50505050508152602001600282018054612c1a9061496f565b80601f0160208091040260200160405190810160405280929190818152602001828054612c469061496f565b8015612c935780601f10612c6857610100808354040283529160200191612c93565b820191906000526020600020905b815481529060010190602001808311612c7657829003601f168201915b505050505081526020016003820160009054906101000a900473ffffffffffffffffffffffffffffffffffffffff1673ffffffffffffffffffffffffffffffffffffffff1673ffffffffffffffffffffffffffffffffffffffff16815260200160048201548152602001600582015481526020016006820160009054906101000a900460ff161515151581526020016006820160019054906101000a900460ff161515151581526020016006820160029054906101000a900460ff16151515158152602001600782015481526020016008820154815260200160098201548152602001600a8201548152602001600b8201805480602002602001604051908101604052809291908181526020018280548015612e0457602002820191906000526020600020905b8160009054906101000a900473ffffffffffffffffffffffffffffffffffffffff1673ffffffffffffffffffffffffffffffffffffffff1681526020019060010190808311612dba575b50505050508152505081526020019060010190612b4a565b50505050905090565b60008054906101000a900473ffffffffffffffffffffffffffffffffffffffff1673ffffffffffffffffffffffffffffffffffffffff163373ffffffffffffffffffffffffffffffffffffffff1614612eb3576040517f7625245e000000000000000000000000000000000000000000000000000000008152600401612eaa90614851565b60405180910390fd5b600115156011600083815260200190815260200160002060060160029054906101000a900460ff16151503612f14576040517faa58221c00000000000000000000000000000000000000000000000000000000815260040160405180910390fd5b600060116000838152602001908152602001600020600501541115612f6e576040517f98d25677000000000000000000000000000000000000000000000000000000008152600401612f6590615876565b60405180910390fd5b6000601160006008548152602001908152602001600020905060018160060160026101000a81548160ff0219169083151502179055504281600801819055508060080154827f5be67b1762c29673dceae3c1de04ecbf702ab0755c93f0fcc8aec5252df5a2b460405160405180910390a35050565b6000601360003373ffffffffffffffffffffffffffffffffffffffff1673ffffffffffffffffffffffffffffffffffffffff168152602001908152602001600020905060001515601460003373ffffffffffffffffffffffffffffffffffffffff1673ffffffffffffffffffffffffffffffffffffffff16815260200190815260200160002060009054906101000a900460ff161515146130b9576040517f08c379a00000000000000000000000000000000000000000000000000000000081526004016130b0906158e2565b60405180910390fd5b6001151581600101601c9054906101000a900460ff16151503613111576040517f36eecf020000000000000000000000000000000000000000000000000000000081526004016131089061594e565b60405180910390fd5b6000600260009054906101000a900473ffffffffffffffffffffffffffffffffffffffff1673ffffffffffffffffffffffffffffffffffffffff166370a08231306040518263ffffffff1660e01b815260040161316e91906147ea565b602060405180830381865afa15801561318b573d6000803e3d6000fd5b505050506040513d601f19601f820116820180604052508101906131af9190615144565b116131ef576040517f6676eb1b0000000000000000000000000000000000000000000000000000000081526004016131e6906151e3565b60405180910390fd5b6001601460003373ffffffffffffffffffffffffffffffffffffffff1673ffffffffffffffffffffffffffffffffffffffff16815260200190815260200160002060006101000a81548160ff021916908315150217905550600160009054906101000a900473ffffffffffffffffffffffffffffffffffffffff1673ffffffffffffffffffffffffffffffffffffffff166323b872dd3330678ac7230489e800006040518463ffffffff1660e01b81526004016132ae9392919061596e565b6020604051808303816000875af11580156132cd573d6000803e3d6000fd5b505050506040513d601f19601f820116820180604052508101906132f19190614a3a565b50600260009054906101000a900473ffffffffffffffffffffffffffffffffffffffff1673ffffffffffffffffffffffffffffffffffffffff166340c10f1933678ac7230489e800006040518363ffffffff1660e01b81526004016133579291906149e5565b600060405180830381600087803b15801561337157600080fd5b505af1158015613385573d6000803e3d6000fd5b505050508181600001908161339a9190614ce1565b50338160010160006101000a81548173ffffffffffffffffffffffffffffffffffffffff021916908373ffffffffffffffffffffffffffffffffffffffff160217905550600a60009054906101000a900467ffffffffffffffff168160010160146101000a81548167ffffffffffffffff021916908367ffffffffffffffff160217905550428160020181905550600a600081819054906101000a900467ffffffffffffffff168092919061344e906159a5565b91906101000a81548167ffffffffffffffff021916908367ffffffffffffffff160217905550506010819080600181540180825580915050600190039060005260206000209060030201600090919091909150600082018160000190816134b59190614ef6565b506001820160009054906101000a900473ffffffffffffffffffffffffffffffffffffffff168160010160006101000a81548173ffffffffffffffffffffffffffffffffffffffff021916908373ffffffffffffffffffffffffffffffffffffffff1602179055506001820160149054906101000a900467ffffffffffffffff168160010160146101000a81548167ffffffffffffffff021916908367ffffffffffffffff16021790555060018201601c9054906101000a900460ff1681600101601c6101000a81548160ff021916908315150217905550600282015481600201555050423373ffffffffffffffffffffffffffffffffffffffff167f49f8fa5eee2e3f21251c2e968640dcaef35cb9332429eb059bb3cd56ddc2533d60405160405180910390a35050565b6135e9613b4d565b60116000838152602001908152602001600020604051806101c0016040529081600082015481526020016001820180546136229061496f565b80601f016020809104026020016040519081016040528092919081815260200182805461364e9061496f565b801561369b5780601f106136705761010080835404028352916020019161369b565b820191906000526020600020905b81548152906001019060200180831161367e57829003601f168201915b505050505081526020016002820180546136b49061496f565b80601f01602080910402602001604051908101604052809291908181526020018280546136e09061496f565b801561372d5780601f106137025761010080835404028352916020019161372d565b820191906000526020600020905b81548152906001019060200180831161371057829003601f168201915b505050505081526020016003820160009054906101000a900473ffffffffffffffffffffffffffffffffffffffff1673ffffffffffffffffffffffffffffffffffffffff1673ffffffffffffffffffffffffffffffffffffffff16815260200160048201548152602001600582015481526020016006820160009054906101000a900460ff161515151581526020016006820160019054906101000a900460ff161515151581526020016006820160029054906101000a900460ff16151515158152602001600782015481526020016008820154815260200160098201548152602001600a8201548152602001600b820180548060200260200160405190810160405280929190818152602001828054801561389e57602002820191906000526020600020905b8160009054906101000a900473ffffffffffffffffffffffffffffffffffffffff1673ffffffffffffffffffffffffffffffffffffffff1681526020019060010190808311613854575b5050505050815250509050919050565b60008054906101000a900473ffffffffffffffffffffffffffffffffffffffff1673ffffffffffffffffffffffffffffffffffffffff163373ffffffffffffffffffffffffffffffffffffffff161461393c576040517f7625245e00000000000000000000000000000000000000000000000000000000815260040161393390615709565b60405180910390fd5b81600b8190555080600c819055505050565b60008054906101000a900473ffffffffffffffffffffffffffffffffffffffff1681565b6000808973ffffffffffffffffffffffffffffffffffffffff16635ef825cb8a8a8a8a8a8a8a6040518863ffffffff1660e01b81526004016139ba97969594939291906159d5565b60408051808303816000875af11580156139d8573d6000803e3d6000fd5b505050506040513d601f19601f820116820180604052508101906139fc9190615a60565b915091509850989650505050505050565b6000806000808573ffffffffffffffffffffffffffffffffffffffff16632322820f600187613a3c91906155ff565b6040518263ffffffff1660e01b8152600401613a589190614050565b608060405180830381865afa158015613a75573d6000803e3d6000fd5b505050506040513d601f19601f82011682018060405250810190613a999190615aa0565b935093509350935092959194509250565b6040518060a0016040528060608152602001600073ffffffffffffffffffffffffffffffffffffffff168152602001600067ffffffffffffffff168152602001600015158152602001600081525090565b828054828255906000526020600020908101928215613b3c5760005260206000209182015b82811115613b3b578254825591600101919060010190613b20565b5b509050613b499190613bd8565b5090565b604051806101c00160405280600081526020016060815260200160608152602001600073ffffffffffffffffffffffffffffffffffffffff168152602001600081526020016000815260200160001515815260200160001515815260200160001515815260200160008152602001600081526020016000815260200160008152602001606081525090565b5b80821115613bf1576000816000905550600101613bd9565b5090565b6000604051905090565b600080fd5b600080fd5b600073ffffffffffffffffffffffffffffffffffffffff82169050919050565b6000613c3482613c09565b9050919050565b613c4481613c29565b8114613c4f57600080fd5b50565b600081359050613c6181613c3b565b92915050565b600060208284031215613c7d57613c7c613bff565b5b6000613c8b84828501613c52565b91505092915050565b600081519050919050565b600082825260208201905092915050565b6000819050602082019050919050565b600081519050919050565b600082825260208201905092915050565b60005b83811015613cfa578082015181840152602081019050613cdf565b60008484015250505050565b6000601f19601f8301169050919050565b6000613d2282613cc0565b613d2c8185613ccb565b9350613d3c818560208601613cdc565b613d4581613d06565b840191505092915050565b613d5981613c29565b82525050565b600067ffffffffffffffff82169050919050565b613d7c81613d5f565b82525050565b60008115159050919050565b613d9781613d82565b82525050565b6000819050919050565b613db081613d9d565b82525050565b600060a0830160008301518482036000860152613dd38282613d17565b9150506020830151613de86020860182613d50565b506040830151613dfb6040860182613d73565b506060830151613e0e6060860182613d8e565b506080830151613e216080860182613da7565b508091505092915050565b6000613e388383613db6565b905092915050565b6000602082019050919050565b6000613e5882613c94565b613e628185613c9f565b935083602082028501613e7485613cb0565b8060005b85811015613eb05784840389528151613e918582613e2c565b9450613e9c83613e40565b925060208a01995050600181019050613e78565b50829750879550505050505092915050565b60006020820190508181036000830152613edc8184613e4d565b905092915050565b600060a0830160008301518482036000860152613f018282613d17565b9150506020830151613f166020860182613d50565b506040830151613f296040860182613d73565b506060830151613f3c6060860182613d8e565b506080830151613f4f6080860182613da7565b508091505092915050565b60006020820190508181036000830152613f748184613ee4565b905092915050565b613f8581613d9d565b8114613f9057600080fd5b50565b600081359050613fa281613f7c565b92915050565b600060208284031215613fbe57613fbd613bff565b5b6000613fcc84828501613f93565b91505092915050565b600082825260208201905092915050565b6000613ff182613cc0565b613ffb8185613fd5565b935061400b818560208601613cdc565b61401481613d06565b840191505092915050565b600060208201905081810360008301526140398184613fe6565b905092915050565b61404a81613d9d565b82525050565b60006020820190506140656000830184614041565b92915050565b600080fd5b600080fd5b7f4e487b7100000000000000000000000000000000000000000000000000000000600052604160045260246000fd5b6140ad82613d06565b810181811067ffffffffffffffff821117156140cc576140cb614075565b5b80604052505050565b60006140df613bf5565b90506140eb82826140a4565b919050565b600067ffffffffffffffff82111561410b5761410a614075565b5b61411482613d06565b9050602081019050919050565b82818337600083830152505050565b600061414361413e846140f0565b6140d5565b90508281526020810184848401111561415f5761415e614070565b5b61416a848285614121565b509392505050565b600082601f8301126141875761418661406b565b5b8135614197848260208601614130565b91505092915050565b600080600080608085870312156141ba576141b9613bff565b5b600085013567ffffffffffffffff8111156141d8576141d7613c04565b5b6141e487828801614172565b945050602085013567ffffffffffffffff81111561420557614204613c04565b5b61421187828801614172565b935050604061422287828801613f93565b925050606061423387828801613f93565b91505092959194509250565b600081519050919050565b600082825260208201905092915050565b6000819050602082019050919050565b60006142778383613d50565b60208301905092915050565b6000602082019050919050565b600061429b8261423f565b6142a5818561424a565b93506142b08361425b565b8060005b838110156142e15781516142c8888261426b565b97506142d383614283565b9250506001810190506142b4565b5085935050505092915050565b600060208201905081810360008301526143088184614290565b905092915050565b600081519050919050565b600082825260208201905092915050565b6000819050602082019050919050565b600081519050919050565b600082825260208201905092915050565b60006143638261433c565b61436d8185614347565b935061437d818560208601613cdc565b61438681613d06565b840191505092915050565b600082825260208201905092915050565b60006143ad8261423f565b6143b78185614391565b93506143c28361425b565b8060005b838110156143f35781516143da888261426b565b97506143e583614283565b9250506001810190506143c6565b5085935050505092915050565b60006101c0830160008301516144196000860182613da7565b50602083015184820360208601526144318282613d17565b9150506040830151848203604086015261444b8282614358565b91505060608301516144606060860182613d50565b5060808301516144736080860182613da7565b5060a083015161448660a0860182613da7565b5060c083015161449960c0860182613d8e565b5060e08301516144ac60e0860182613d8e565b506101008301516144c1610100860182613d8e565b506101208301516144d6610120860182613da7565b506101408301516144eb610140860182613da7565b50610160830151614500610160860182613da7565b50610180830151614515610180860182613da7565b506101a08301518482036101a086015261452f82826143a2565b9150508091505092915050565b60006145488383614400565b905092915050565b6000602082019050919050565b600061456882614310565b614572818561431b565b9350836020820285016145848561432c565b8060005b858110156145c057848403895281516145a1858261453c565b94506145ac83614550565b925060208a01995050600181019050614588565b50829750879550505050505092915050565b600060208201905081810360008301526145ec818461455d565b905092915050565b60006020828403121561460a57614609613bff565b5b600082013567ffffffffffffffff81111561462857614627613c04565b5b61463484828501614172565b91505092915050565b60006101c0830160008301516146566000860182613da7565b506020830151848203602086015261466e8282613d17565b915050604083015184820360408601526146888282614358565b915050606083015161469d6060860182613d50565b5060808301516146b06080860182613da7565b5060a08301516146c360a0860182613da7565b5060c08301516146d660c0860182613d8e565b5060e08301516146e960e0860182613d8e565b506101008301516146fe610100860182613d8e565b50610120830151614713610120860182613da7565b50610140830151614728610140860182613da7565b5061016083015161473d610160860182613da7565b50610180830151614752610180860182613da7565b506101a08301518482036101a086015261476c82826143a2565b9150508091505092915050565b60006020820190508181036000830152614793818461463d565b905092915050565b600080604083850312156147b2576147b1613bff565b5b60006147c085828601613f93565b92505060206147d185828601613f93565b9150509250929050565b6147e481613c29565b82525050565b60006020820190506147ff60008301846147db565b92915050565b7f6f6e6c792061646d696e20726571756972656400000000000000000000000000600082015250565b600061483b601383613fd5565b915061484682614805565b602082019050919050565b6000602082019050818103600083015261486a8161482e565b9050919050565b7f4170706c6963616e7420686173206e6f74206170706c79000000000000000000600082015250565b60006148a7601783613fd5565b91506148b282614871565b602082019050919050565b600060208201905081810360008301526148d68161489a565b9050919050565b7f4e487b7100000000000000000000000000000000000000000000000000000000600052601160045260246000fd5b600061491782613d9d565b915061492283613d9d565b925082820190508082111561493a576149396148dd565b5b92915050565b7f4e487b7100000000000000000000000000000000000000000000000000000000600052602260045260246000fd5b6000600282049050600182168061498757607f821691505b60208210810361499a57614999614940565b5b50919050565b6000819050919050565b6000819050919050565b60006149cf6149ca6149c5846149a0565b6149aa565b613d9d565b9050919050565b6149df816149b4565b82525050565b60006040820190506149fa60008301856147db565b614a0760208301846149d6565b9392505050565b614a1781613d82565b8114614a2257600080fd5b50565b600081519050614a3481614a0e565b92915050565b600060208284031215614a5057614a4f613bff565b5b6000614a5e84828501614a25565b91505092915050565b7f596f7520617265206e6f742061206d656d626572206f66207468652044414f00600082015250565b6000614a9d601f83613fd5565b9150614aa882614a67565b602082019050919050565b60006020820190508181036000830152614acc81614a90565b9050919050565b7f696e76616c696420656e642074696d6500000000000000000000000000000000600082015250565b6000614b09601083613fd5565b9150614b1482614ad3565b602082019050919050565b60006020820190508181036000830152614b3881614afc565b9050919050565b60008190508160005260206000209050919050565b60006020601f8301049050919050565b600082821b905092915050565b600060088302614ba17fffffffffffffffffffffffffffffffffffffffffffffffffffffffffffffffff82614b64565b614bab8683614b64565b95508019841693508086168417925050509392505050565b6000614bde614bd9614bd484613d9d565b6149aa565b613d9d565b9050919050565b6000819050919050565b614bf883614bc3565b614c0c614c0482614be5565b848454614b71565b825550505050565b600090565b614c21614c14565b614c2c818484614bef565b505050565b5b81811015614c5057614c45600082614c19565b600181019050614c32565b5050565b601f821115614c9557614c6681614b3f565b614c6f84614b54565b81016020851015614c7e578190505b614c92614c8a85614b54565b830182614c31565b50505b505050565b600082821c905092915050565b6000614cb860001984600802614c9a565b1980831691505092915050565b6000614cd18383614ca7565b9150826002028217905092915050565b614cea82613cc0565b67ffffffffffffffff811115614d0357614d02614075565b5b614d0d825461496f565b614d18828285614c54565b600060209050601f831160018114614d4b5760008415614d39578287015190505b614d438582614cc5565b865550614dab565b601f198416614d5986614b3f565b60005b82811015614d8157848901518255600182019150602085019450602081019050614d5c565b86831015614d9e5784890151614d9a601f891682614ca7565b8355505b6001600288020188555050505b505050505050565b60008190508160005260206000209050919050565b601f821115614e0957614dda81614db3565b614de384614b54565b81016020851015614df2578190505b614e06614dfe85614b54565b830182614c31565b50505b505050565b614e178261433c565b67ffffffffffffffff811115614e3057614e2f614075565b5b614e3a825461496f565b614e45828285614dc8565b600060209050601f831160018114614e785760008415614e66578287015190505b614e708582614cc5565b865550614ed8565b601f198416614e8686614db3565b60005b82811015614eae57848901518255600182019150602085019450602081019050614e89565b86831015614ecb5784890151614ec7601f891682614ca7565b8355505b6001600288020188555050505b505050505050565b600081549050614eef8161496f565b9050919050565b818103614f04575050614fdc565b614f0d82614ee0565b67ffffffffffffffff811115614f2657614f25614075565b5b614f30825461496f565b614f3b828285614c54565b6000601f831160018114614f6a5760008415614f58578287015490505b614f628582614cc5565b865550614fd5565b601f198416614f7887614b3f565b9650614f8386614b3f565b60005b82811015614fab57848901548255600182019150600185019450602081019050614f86565b86831015614fc85784890154614fc4601f891682614ca7565b8355505b6001600288020188555050505b5050505050505b565b600081549050614fed8161496f565b9050919050565b8181036150025750506150da565b61500b82614fde565b67ffffffffffffffff81111561502457615023614075565b5b61502e825461496f565b615039828285614dc8565b6000601f8311600181146150685760008415615056578287015490505b6150608582614cc5565b8655506150d3565b601f19841661507687614db3565b965061508186614db3565b60005b828110156150a957848901548255600182019150600185019450602081019050615084565b868310156150c657848901546150c2601f891682614ca7565b8355505b6001600288020188555050505b5050505050505b565b600081905092915050565b60006150f282613cc0565b6150fc81856150dc565b935061510c818560208601613cdc565b80840191505092915050565b600061512482846150e7565b915081905092915050565b60008151905061513e81613f7c565b92915050565b60006020828403121561515a57615159613bff565b5b60006151688482850161512f565b91505092915050565b7f4e6f206d6f72652044414f20746f6b656e7320746f2070757263686173652c2060008201527f436f6e746163742041646d696e00000000000000000000000000000000000000602082015250565b60006151cd602d83613fd5565b91506151d882615171565b604082019050919050565b600060208201905081810360008301526151fc816151c0565b9050919050565b7f596f75206861766520657863656564656420746865206d6178696d756d20616d60008201527f6f756e74206f662044414f20746f6b656e732072657175697265640000000000602082015250565b600061525f603b83613fd5565b915061526a82615203565b604082019050919050565b6000602082019050818103600083015261528e81615252565b9050919050565b60006152a082613d9d565b91506152ab83613d9d565b92508282026152b981613d9d565b915082820484148315176152d0576152cf6148dd565b5b5092915050565b60006060820190506152ec60008301866147db565b6152f960208301856147db565b6153066040830184614041565b949350505050565b600060408201905061532360008301856147db565b6153306020830184614041565b9392505050565b7f5a65726f206574686572206e6f7420616c6c6f77656400000000000000000000600082015250565b600061536d601683613fd5565b915061537882615337565b602082019050919050565b6000602082019050818103600083015261539c81615360565b9050919050565b7f596f752063616e277420766f746520666f72207468652073616d652070726f7060008201527f73616c2074776963650000000000000000000000000000000000000000000000602082015250565b60006153ff602983613fd5565b915061540a826153a3565b604082019050919050565b6000602082019050818103600083015261542e816153f2565b9050919050565b7f44616f206d656d6265727320617265206e6f7420656e6f756768000000000000600082015250565b600061546b601a83613fd5565b915061547682615435565b602082019050919050565b6000602082019050818103600083015261549a8161545e565b9050919050565b7f70726f706f73616c2069732079657420746f20626520617070726f7665640000600082015250565b60006154d7601e83613fd5565b91506154e2826154a1565b602082019050919050565b60006020820190508181036000830152615506816154ca565b9050919050565b7f51756f72756d20686173206265656e20726561636865642c205468616e6b207960008201527f6f75000000000000000000000000000000000000000000000000000000000000602082015250565b6000615569602283613fd5565b91506155748261550d565b604082019050919050565b600060208201905081810360008301526155988161555c565b9050919050565b7f4e487b7100000000000000000000000000000000000000000000000000000000600052601260045260246000fd5b60006155d982613d9d565b91506155e483613d9d565b9250826155f4576155f361559f565b5b828204905092915050565b600061560a82613d9d565b915061561583613d9d565b925082820390508181111561562d5761562c6148dd565b5b92915050565b6000819050919050565b600061565861565361564e84615633565b6149aa565b613d9d565b9050919050565b6156688161563d565b82525050565b600060408201905061568360008301856147db565b615690602083018461565f565b9392505050565b7f4f6e6c79207468652041646d696e20697320656c696769626c6520746f20636160008201527f6c6c20746869732066756e6374696f6e00000000000000000000000000000000602082015250565b60006156f3603083613fd5565b91506156fe82615697565b604082019050919050565b60006020820190508181036000830152615722816156e6565b9050919050565b7f7a65726f2061646472657373206973206e6f7420616c6c6f7765640000000000600082015250565b600061575f601b83613fd5565b915061576a82615729565b602082019050919050565b6000602082019050818103600083015261578e81615752565b9050919050565b60006040820190506157aa60008301856147db565b6157b760208301846147db565b9392505050565b7f43616e277420617070726f766520616e206163746976652070726f706f73616c600082015250565b60006157f4602083613fd5565b91506157ff826157be565b602082019050919050565b60006020820190508181036000830152615823816157e7565b9050919050565b7f43616e27742063616e63656c20616e206163746976652070726f706f73616c00600082015250565b6000615860601f83613fd5565b915061586b8261582a565b602082019050919050565b6000602082019050818103600083015261588f81615853565b9050919050565b7f616c7265616479206a6f696e6564000000000000000000000000000000000000600082015250565b60006158cc600e83613fd5565b91506158d782615896565b602082019050919050565b600060208201905081810360008301526158fb816158bf565b9050919050565b7f596f752063616e2774206a6f696e207477696365000000000000000000000000600082015250565b6000615938601483613fd5565b915061594382615902565b602082019050919050565b600060208201905081810360008301526159678161592b565b9050919050565b600060608201905061598360008301866147db565b61599060208301856147db565b61599d60408301846149d6565b949350505050565b60006159b082613d5f565b915067ffffffffffffffff82036159ca576159c96148dd565b5b600182019050919050565b600060e0820190506159ea600083018a6147db565b6159f760208301896147db565b615a046040830188614041565b615a116060830187614041565b615a1e60808301866147db565b615a2b60a0830185614041565b81810360c0830152615a3d8184613fe6565b905098975050505050505050565b600081519050615a5a81613c3b565b92915050565b60008060408385031215615a7757615a76613bff565b5b6000615a8585828601615a4b565b9250506020615a9685828601615a4b565b9150509250929050565b60008060008060808587031215615aba57615ab9613bff565b5b6000615ac887828801615a4b565b9450506020615ad987828801615a4b565b9350506040615aea87828801615a4b565b9250506060615afb87828801615a4b565b9150509295919450925056fe70656e64696e67207265766965772c20636865636b206261636b206c61746572206f7220636f6e746163742061646d696ea26469706673582212205cfc1f7614ae8f887ec418c68ae227cd3c0ef60506b551e89393d9dce856237664736f6c63430008110033",
  "linkReferences": {},
  "deployedLinkReferences": {}
}