{
  "_format": "hh-sol-artifact-1",
  "contractName": "SUSDC",
  "sourceName": "contracts/SUSDC.sol",
  "abi": [
    {
      "inputs": [],
      "stateMutability": "nonpayable",
      "type": "constructor"
    },
    {
      "anonymous": false,
      "inputs": [
        {
          "indexed": true,
          "internalType": "address",
          "name": "owner",
          "type": "address"
        },
        {
          "indexed": true,
          "internalType": "address",
          "name": "spender",
          "type": "address"
        },
        {
          "indexed": false,
          "internalType": "uint256",
          "name": "value",
          "type": "uint256"
        }
      ],
      "name": "Approval",
      "type": "event"
    },
    {
      "anonymous": false,
      "inputs": [
        {
          "indexed": true,
          "internalType": "address",
          "name": "previousOwner",
          "type": "address"
        },
        {
          "indexed": true,
          "internalType": "address",
          "name": "newOwner",
          "type": "address"
        }
      ],
      "name": "OwnershipTransferred",
      "type": "event"
    },
    {
      "anonymous": false,
      "inputs": [
        {
          "indexed": true,
          "internalType": "address",
          "name": "from",
          "type": "address"
        },
        {
          "indexed": true,
          "internalType": "address",
          "name": "to",
          "type": "address"
        },
        {
          "indexed": false,
          "internalType": "uint256",
          "name": "value",
          "type": "uint256"
        }
      ],
      "name": "Transfer",
      "type": "event"
    },
    {
      "inputs": [
        {
          "internalType": "address",
          "name": "owner",
          "type": "address"
        },
        {
          "internalType": "address",
          "name": "spender",
          "type": "address"
        }
      ],
      "name": "allowance",
      "outputs": [
        {
          "internalType": "uint256",
          "name": "",
          "type": "uint256"
        }
      ],
      "stateMutability": "view",
      "type": "function"
    },
    {
      "inputs": [
        {
          "internalType": "address",
          "name": "spender",
          "type": "address"
        },
        {
          "internalType": "uint256",
          "name": "amount",
          "type": "uint256"
        }
      ],
      "name": "approve",
      "outputs": [
        {
          "internalType": "bool",
          "name": "",
          "type": "bool"
        }
      ],
      "stateMutability": "nonpayable",
      "type": "function"
    },
    {
      "inputs": [
        {
          "internalType": "address",
          "name": "account",
          "type": "address"
        }
      ],
      "name": "balanceOf",
      "outputs": [
        {
          "internalType": "uint256",
          "name": "",
          "type": "uint256"
        }
      ],
      "stateMutability": "view",
      "type": "function"
    },
    {
      "inputs": [],
      "name": "decimals",
      "outputs": [
        {
          "internalType": "uint8",
          "name": "",
          "type": "uint8"
        }
      ],
      "stateMutability": "view",
      "type": "function"
    },
    {
      "inputs": [
        {
          "internalType": "address",
          "name": "spender",
          "type": "address"
        },
        {
          "internalType": "uint256",
          "name": "subtractedValue",
          "type": "uint256"
        }
      ],
      "name": "decreaseAllowance",
      "outputs": [
        {
          "internalType": "bool",
          "name": "",
          "type": "bool"
        }
      ],
      "stateMutability": "nonpayable",
      "type": "function"
    },
    {
      "inputs": [
        {
          "internalType": "address",
          "name": "spender",
          "type": "address"
        },
        {
          "internalType": "uint256",
          "name": "addedValue",
          "type": "uint256"
        }
      ],
      "name": "increaseAllowance",
      "outputs": [
        {
          "internalType": "bool",
          "name": "",
          "type": "bool"
        }
      ],
      "stateMutability": "nonpayable",
      "type": "function"
    },
    {
      "inputs": [],
      "name": "name",
      "outputs": [
        {
          "internalType": "string",
          "name": "",
          "type": "string"
        }
      ],
      "stateMutability": "view",
      "type": "function"
    },
    {
      "inputs": [],
      "name": "owner",
      "outputs": [
        {
          "internalType": "address",
          "name": "",
          "type": "address"
        }
      ],
      "stateMutability": "view",
      "type": "function"
    },
    {
      "inputs": [],
      "name": "renounceOwnership",
      "outputs": [],
      "stateMutability": "nonpayable",
      "type": "function"
    },
    {
      "inputs": [],
      "name": "symbol",
      "outputs": [
        {
          "internalType": "string",
          "name": "",
          "type": "string"
        }
      ],
      "stateMutability": "view",
      "type": "function"
    },
    {
      "inputs": [],
      "name": "totalSupply",
      "outputs": [
        {
          "internalType": "uint256",
          "name": "",
          "type": "uint256"
        }
      ],
      "stateMutability": "view",
      "type": "function"
    },
    {
      "inputs": [
        {
          "internalType": "address",
          "name": "to",
          "type": "address"
        },
        {
          "internalType": "uint256",
          "name": "amount",
          "type": "uint256"
        }
      ],
      "name": "transfer",
      "outputs": [
        {
          "internalType": "bool",
          "name": "",
          "type": "bool"
        }
      ],
      "stateMutability": "nonpayable",
      "type": "function"
    },
    {
      "inputs": [
        {
          "internalType": "address",
          "name": "from",
          "type": "address"
        },
        {
          "internalType": "address",
          "name": "to",
          "type": "address"
        },
        {
          "internalType": "uint256",
          "name": "amount",
          "type": "uint256"
        }
      ],
      "name": "transferFrom",
      "outputs": [
        {
          "internalType": "bool",
          "name": "",
          "type": "bool"
        }
      ],
      "stateMutability": "nonpayable",
      "type": "function"
    },
    {
      "inputs": [
        {
          "internalType": "address",
          "name": "_to",
          "type": "address"
        },
        {
          "internalType": "uint256",
          "name": "amount",
          "type": "uint256"
        }
      ],
      "name": "transferFromContract",
      "outputs": [],
      "stateMutability": "nonpayable",
      "type": "function"
    },
    {
      "inputs": [
        {
          "internalType": "address",
          "name": "newOwner",
          "type": "address"
        }
      ],
      "name": "transferOwnership",
      "outputs": [],
      "stateMutability": "nonpayable",
      "type": "function"
    }
  ],
  "bytecode": "0x60806040523480156200001157600080fd5b506040518060400160405280600581526020017f73555344430000000000000000000000000000000000000000000000000000008152506040518060400160405280600581526020017f735553444300000000000000000000000000000000000000000000000000000081525081600390816200008f9190620005d0565b508060049081620000a19190620005d0565b505050620000c4620000b86200010860201b60201c565b6200011060201b60201c565b6200010230620000d9620001d660201b60201c565b600a620000e7919062000847565b6103e8620000f6919062000898565b620001df60201b60201c565b620009cf565b600033905090565b6000600560009054906101000a900473ffffffffffffffffffffffffffffffffffffffff16905081600560006101000a81548173ffffffffffffffffffffffffffffffffffffffff021916908373ffffffffffffffffffffffffffffffffffffffff1602179055508173ffffffffffffffffffffffffffffffffffffffff168173ffffffffffffffffffffffffffffffffffffffff167f8be0079c531659141344cd1fd0a4f28419497f9722a3daafe3b4186f6b6457e060405160405180910390a35050565b60006012905090565b600073ffffffffffffffffffffffffffffffffffffffff168273ffffffffffffffffffffffffffffffffffffffff160362000251576040517f08c379a0000000000000000000000000000000000000000000000000000000008152600401620002489062000944565b60405180910390fd5b62000265600083836200034c60201b60201c565b806002600082825462000279919062000966565b92505081905550806000808473ffffffffffffffffffffffffffffffffffffffff1673ffffffffffffffffffffffffffffffffffffffff168152602001908152602001600020600082825401925050819055508173ffffffffffffffffffffffffffffffffffffffff16600073ffffffffffffffffffffffffffffffffffffffff167fddf252ad1be2c89b69c2b068fc378daa952ba7f163c4a11628f55a4df523b3ef836040516200032c9190620009b2565b60405180910390a362000348600083836200035160201b60201c565b5050565b505050565b505050565b600081519050919050565b7f4e487b7100000000000000000000000000000000000000000000000000000000600052604160045260246000fd5b7f4e487b7100000000000000000000000000000000000000000000000000000000600052602260045260246000fd5b60006002820490506001821680620003d857607f821691505b602082108103620003ee57620003ed62000390565b5b50919050565b60008190508160005260206000209050919050565b60006020601f8301049050919050565b600082821b905092915050565b600060088302620004587fffffffffffffffffffffffffffffffffffffffffffffffffffffffffffffffff8262000419565b62000464868362000419565b95508019841693508086168417925050509392505050565b6000819050919050565b6000819050919050565b6000620004b1620004ab620004a5846200047c565b62000486565b6200047c565b9050919050565b6000819050919050565b620004cd8362000490565b620004e5620004dc82620004b8565b84845462000426565b825550505050565b600090565b620004fc620004ed565b62000509818484620004c2565b505050565b5b81811015620005315762000525600082620004f2565b6001810190506200050f565b5050565b601f82111562000580576200054a81620003f4565b620005558462000409565b8101602085101562000565578190505b6200057d620005748562000409565b8301826200050e565b50505b505050565b600082821c905092915050565b6000620005a56000198460080262000585565b1980831691505092915050565b6000620005c0838362000592565b9150826002028217905092915050565b620005db8262000356565b67ffffffffffffffff811115620005f757620005f662000361565b5b620006038254620003bf565b6200061082828562000535565b600060209050601f83116001811462000648576000841562000633578287015190505b6200063f8582620005b2565b865550620006af565b601f1984166200065886620003f4565b60005b8281101562000682578489015182556001820191506020850194506020810190506200065b565b86831015620006a257848901516200069e601f89168262000592565b8355505b6001600288020188555050505b505050505050565b7f4e487b7100000000000000000000000000000000000000000000000000000000600052601160045260246000fd5b60008160011c9050919050565b6000808291508390505b600185111562000745578086048111156200071d576200071c620006b7565b5b60018516156200072d5780820291505b80810290506200073d85620006e6565b9450620006fd565b94509492505050565b60008262000760576001905062000833565b8162000770576000905062000833565b81600181146200078957600281146200079457620007ca565b600191505062000833565b60ff841115620007a957620007a8620006b7565b5b8360020a915084821115620007c357620007c2620006b7565b5b5062000833565b5060208310610133831016604e8410600b8410161715620008045782820a905083811115620007fe57620007fd620006b7565b5b62000833565b620008138484846001620006f3565b925090508184048111156200082d576200082c620006b7565b5b81810290505b9392505050565b600060ff82169050919050565b600062000854826200047c565b915062000861836200083a565b9250620008907fffffffffffffffffffffffffffffffffffffffffffffffffffffffffffffffff84846200074e565b905092915050565b6000620008a5826200047c565b9150620008b2836200047c565b9250828202620008c2816200047c565b91508282048414831517620008dc57620008db620006b7565b5b5092915050565b600082825260208201905092915050565b7f45524332303a206d696e7420746f20746865207a65726f206164647265737300600082015250565b60006200092c601f83620008e3565b91506200093982620008f4565b602082019050919050565b600060208201905081810360008301526200095f816200091d565b9050919050565b600062000973826200047c565b915062000980836200047c565b92508282019050808211156200099b576200099a620006b7565b5b92915050565b620009ac816200047c565b82525050565b6000602082019050620009c96000830184620009a1565b92915050565b61170280620009df6000396000f3fe608060405234801561001057600080fd5b50600436106100f55760003560e01c806370a0823111610097578063a457c2d711610066578063a457c2d714610276578063a9059cbb146102a6578063dd62ed3e146102d6578063f2fde38b14610306576100f5565b806370a0823114610200578063715018a6146102305780638da5cb5b1461023a57806395d89b4114610258576100f5565b80631a88f306116100d35780631a88f3061461016657806323b872dd14610182578063313ce567146101b257806339509351146101d0576100f5565b806306fdde03146100fa578063095ea7b31461011857806318160ddd14610148575b600080fd5b610102610322565b60405161010f9190610e25565b60405180910390f35b610132600480360381019061012d9190610ee0565b6103b4565b60405161013f9190610f3b565b60405180910390f35b6101506103d7565b60405161015d9190610f65565b60405180910390f35b610180600480360381019061017b9190610ee0565b6103e1565b005b61019c60048036038101906101979190610f80565b610449565b6040516101a99190610f3b565b60405180910390f35b6101ba610478565b6040516101c79190610fef565b60405180910390f35b6101ea60048036038101906101e59190610ee0565b610481565b6040516101f79190610f3b565b60405180910390f35b61021a6004803603810190610215919061100a565b6104b8565b6040516102279190610f65565b60405180910390f35b610238610500565b005b610242610514565b60405161024f9190611046565b60405180910390f35b61026061053e565b60405161026d9190610e25565b60405180910390f35b610290600480360381019061028b9190610ee0565b6105d0565b60405161029d9190610f3b565b60405180910390f35b6102c060048036038101906102bb9190610ee0565b610647565b6040516102cd9190610f3b565b60405180910390f35b6102f060048036038101906102eb9190611061565b61066a565b6040516102fd9190610f65565b60405180910390f35b610320600480360381019061031b919061100a565b6106f1565b005b606060038054610331906110d0565b80601f016020809104026020016040519081016040528092919081815260200182805461035d906110d0565b80156103aa5780601f1061037f576101008083540402835291602001916103aa565b820191906000526020600020905b81548152906001019060200180831161038d57829003601f168201915b5050505050905090565b6000806103bf610774565b90506103cc81858561077c565b600191505092915050565b6000600254905090565b6103e9610945565b60006103f4306104b8565b905081811015610439576040517f08c379a000000000000000000000000000000000000000000000000000000000815260040161043090611173565b60405180910390fd5b6104443084846109c3565b505050565b600080610454610774565b9050610461858285610c39565b61046c8585856109c3565b60019150509392505050565b60006012905090565b60008061048c610774565b90506104ad81858561049e858961066a565b6104a891906111c2565b61077c565b600191505092915050565b60008060008373ffffffffffffffffffffffffffffffffffffffff1673ffffffffffffffffffffffffffffffffffffffff168152602001908152602001600020549050919050565b610508610945565b6105126000610cc5565b565b6000600560009054906101000a900473ffffffffffffffffffffffffffffffffffffffff16905090565b60606004805461054d906110d0565b80601f0160208091040260200160405190810160405280929190818152602001828054610579906110d0565b80156105c65780601f1061059b576101008083540402835291602001916105c6565b820191906000526020600020905b8154815290600101906020018083116105a957829003601f168201915b5050505050905090565b6000806105db610774565b905060006105e9828661066a565b90508381101561062e576040517f08c379a000000000000000000000000000000000000000000000000000000000815260040161062590611268565b60405180910390fd5b61063b828686840361077c565b60019250505092915050565b600080610652610774565b905061065f8185856109c3565b600191505092915050565b6000600160008473ffffffffffffffffffffffffffffffffffffffff1673ffffffffffffffffffffffffffffffffffffffff16815260200190815260200160002060008373ffffffffffffffffffffffffffffffffffffffff1673ffffffffffffffffffffffffffffffffffffffff16815260200190815260200160002054905092915050565b6106f9610945565b600073ffffffffffffffffffffffffffffffffffffffff168173ffffffffffffffffffffffffffffffffffffffff1603610768576040517f08c379a000000000000000000000000000000000000000000000000000000000815260040161075f906112fa565b60405180910390fd5b61077181610cc5565b50565b600033905090565b600073ffffffffffffffffffffffffffffffffffffffff168373ffffffffffffffffffffffffffffffffffffffff16036107eb576040517f08c379a00000000000000000000000000000000000000000000000000000000081526004016107e29061138c565b60405180910390fd5b600073ffffffffffffffffffffffffffffffffffffffff168273ffffffffffffffffffffffffffffffffffffffff160361085a576040517f08c379a00000000000000000000000000000000000000000000000000000000081526004016108519061141e565b60405180910390fd5b80600160008573ffffffffffffffffffffffffffffffffffffffff1673ffffffffffffffffffffffffffffffffffffffff16815260200190815260200160002060008473ffffffffffffffffffffffffffffffffffffffff1673ffffffffffffffffffffffffffffffffffffffff168152602001908152602001600020819055508173ffffffffffffffffffffffffffffffffffffffff168373ffffffffffffffffffffffffffffffffffffffff167f8c5be1e5ebec7d5bd14f71427d1e84f3dd0314c0f7b2291e5b200ac8c7c3b925836040516109389190610f65565b60405180910390a3505050565b61094d610774565b73ffffffffffffffffffffffffffffffffffffffff1661096b610514565b73ffffffffffffffffffffffffffffffffffffffff16146109c1576040517f08c379a00000000000000000000000000000000000000000000000000000000081526004016109b89061148a565b60405180910390fd5b565b600073ffffffffffffffffffffffffffffffffffffffff168373ffffffffffffffffffffffffffffffffffffffff1603610a32576040517f08c379a0000000000000000000000000000000000000000000000000000000008152600401610a299061151c565b60405180910390fd5b600073ffffffffffffffffffffffffffffffffffffffff168273ffffffffffffffffffffffffffffffffffffffff1603610aa1576040517f08c379a0000000000000000000000000000000000000000000000000000000008152600401610a98906115ae565b60405180910390fd5b610aac838383610d8b565b60008060008573ffffffffffffffffffffffffffffffffffffffff1673ffffffffffffffffffffffffffffffffffffffff16815260200190815260200160002054905081811015610b32576040517f08c379a0000000000000000000000000000000000000000000000000000000008152600401610b2990611640565b60405180910390fd5b8181036000808673ffffffffffffffffffffffffffffffffffffffff1673ffffffffffffffffffffffffffffffffffffffff16815260200190815260200160002081905550816000808573ffffffffffffffffffffffffffffffffffffffff1673ffffffffffffffffffffffffffffffffffffffff168152602001908152602001600020600082825401925050819055508273ffffffffffffffffffffffffffffffffffffffff168473ffffffffffffffffffffffffffffffffffffffff167fddf252ad1be2c89b69c2b068fc378daa952ba7f163c4a11628f55a4df523b3ef84604051610c209190610f65565b60405180910390a3610c33848484610d90565b50505050565b6000610c45848461066a565b90507fffffffffffffffffffffffffffffffffffffffffffffffffffffffffffffffff8114610cbf5781811015610cb1576040517f08c379a0000000000000000000000000000000000000000000000000000000008152600401610ca8906116ac565b60405180910390fd5b610cbe848484840361077c565b5b50505050565b6000600560009054906101000a900473ffffffffffffffffffffffffffffffffffffffff16905081600560006101000a81548173ffffffffffffffffffffffffffffffffffffffff021916908373ffffffffffffffffffffffffffffffffffffffff1602179055508173ffffffffffffffffffffffffffffffffffffffff168173ffffffffffffffffffffffffffffffffffffffff167f8be0079c531659141344cd1fd0a4f28419497f9722a3daafe3b4186f6b6457e060405160405180910390a35050565b505050565b505050565b600081519050919050565b600082825260208201905092915050565b60005b83811015610dcf578082015181840152602081019050610db4565b60008484015250505050565b6000601f19601f8301169050919050565b6000610df782610d95565b610e018185610da0565b9350610e11818560208601610db1565b610e1a81610ddb565b840191505092915050565b60006020820190508181036000830152610e3f8184610dec565b905092915050565b600080fd5b600073ffffffffffffffffffffffffffffffffffffffff82169050919050565b6000610e7782610e4c565b9050919050565b610e8781610e6c565b8114610e9257600080fd5b50565b600081359050610ea481610e7e565b92915050565b6000819050919050565b610ebd81610eaa565b8114610ec857600080fd5b50565b600081359050610eda81610eb4565b92915050565b60008060408385031215610ef757610ef6610e47565b5b6000610f0585828601610e95565b9250506020610f1685828601610ecb565b9150509250929050565b60008115159050919050565b610f3581610f20565b82525050565b6000602082019050610f506000830184610f2c565b92915050565b610f5f81610eaa565b82525050565b6000602082019050610f7a6000830184610f56565b92915050565b600080600060608486031215610f9957610f98610e47565b5b6000610fa786828701610e95565b9350506020610fb886828701610e95565b9250506040610fc986828701610ecb565b9150509250925092565b600060ff82169050919050565b610fe981610fd3565b82525050565b60006020820190506110046000830184610fe0565b92915050565b6000602082840312156110205761101f610e47565b5b600061102e84828501610e95565b91505092915050565b61104081610e6c565b82525050565b600060208201905061105b6000830184611037565b92915050565b6000806040838503121561107857611077610e47565b5b600061108685828601610e95565b925050602061109785828601610e95565b9150509250929050565b7f4e487b7100000000000000000000000000000000000000000000000000000000600052602260045260246000fd5b600060028204905060018216806110e857607f821691505b6020821081036110fb576110fa6110a1565b5b50919050565b7f596f7520617265207472616e7366657272696e67206d6f7265207468616e207460008201527f686520616d6f756e7420617661696c61626c6521000000000000000000000000602082015250565b600061115d603483610da0565b915061116882611101565b604082019050919050565b6000602082019050818103600083015261118c81611150565b9050919050565b7f4e487b7100000000000000000000000000000000000000000000000000000000600052601160045260246000fd5b60006111cd82610eaa565b91506111d883610eaa565b92508282019050808211156111f0576111ef611193565b5b92915050565b7f45524332303a2064656372656173656420616c6c6f77616e63652062656c6f7760008201527f207a65726f000000000000000000000000000000000000000000000000000000602082015250565b6000611252602583610da0565b915061125d826111f6565b604082019050919050565b6000602082019050818103600083015261128181611245565b9050919050565b7f4f776e61626c653a206e6577206f776e657220697320746865207a65726f206160008201527f6464726573730000000000000000000000000000000000000000000000000000602082015250565b60006112e4602683610da0565b91506112ef82611288565b604082019050919050565b60006020820190508181036000830152611313816112d7565b9050919050565b7f45524332303a20617070726f76652066726f6d20746865207a65726f2061646460008201527f7265737300000000000000000000000000000000000000000000000000000000602082015250565b6000611376602483610da0565b91506113818261131a565b604082019050919050565b600060208201905081810360008301526113a581611369565b9050919050565b7f45524332303a20617070726f766520746f20746865207a65726f20616464726560008201527f7373000000000000000000000000000000000000000000000000000000000000602082015250565b6000611408602283610da0565b9150611413826113ac565b604082019050919050565b60006020820190508181036000830152611437816113fb565b9050919050565b7f4f776e61626c653a2063616c6c6572206973206e6f7420746865206f776e6572600082015250565b6000611474602083610da0565b915061147f8261143e565b602082019050919050565b600060208201905081810360008301526114a381611467565b9050919050565b7f45524332303a207472616e736665722066726f6d20746865207a65726f20616460008201527f6472657373000000000000000000000000000000000000000000000000000000602082015250565b6000611506602583610da0565b9150611511826114aa565b604082019050919050565b60006020820190508181036000830152611535816114f9565b9050919050565b7f45524332303a207472616e7366657220746f20746865207a65726f206164647260008201527f6573730000000000000000000000000000000000000000000000000000000000602082015250565b6000611598602383610da0565b91506115a38261153c565b604082019050919050565b600060208201905081810360008301526115c78161158b565b9050919050565b7f45524332303a207472616e7366657220616d6f756e742065786365656473206260008201527f616c616e63650000000000000000000000000000000000000000000000000000602082015250565b600061162a602683610da0565b9150611635826115ce565b604082019050919050565b600060208201905081810360008301526116598161161d565b9050919050565b7f45524332303a20696e73756666696369656e7420616c6c6f77616e6365000000600082015250565b6000611696601d83610da0565b91506116a182611660565b602082019050919050565b600060208201905081810360008301526116c581611689565b905091905056fea264697066735822122015b51c2d38d09cae6c3d9ad6e30cb1378e4feb8f590779a0c9328e80a4bc7fee64736f6c63430008110033",
  "linkReferences": {},
  "deployedLinkReferences": {}
}