{
  "_format": "hh-sol-artifact-1",
  "contractName": "SUSDC",
  "sourceName": "contracts/SUSDC.sol",
  "abi": [
    {
      "inputs": [],
      "stateMutability": "nonpayable",
      "type": "constructor"
    },
    {
      "anonymous": false,
      "inputs": [
        {
          "indexed": true,
          "internalType": "address",
          "name": "owner",
          "type": "address"
        },
        {
          "indexed": true,
          "internalType": "address",
          "name": "spender",
          "type": "address"
        },
        {
          "indexed": false,
          "internalType": "uint256",
          "name": "value",
          "type": "uint256"
        }
      ],
      "name": "Approval",
      "type": "event"
    },
    {
      "anonymous": false,
      "inputs": [
        {
          "indexed": true,
          "internalType": "address",
          "name": "previousOwner",
          "type": "address"
        },
        {
          "indexed": true,
          "internalType": "address",
          "name": "newOwner",
          "type": "address"
        }
      ],
      "name": "OwnershipTransferred",
      "type": "event"
    },
    {
      "anonymous": false,
      "inputs": [
        {
          "indexed": true,
          "internalType": "address",
          "name": "from",
          "type": "address"
        },
        {
          "indexed": true,
          "internalType": "address",
          "name": "to",
          "type": "address"
        },
        {
          "indexed": false,
          "internalType": "uint256",
          "name": "value",
          "type": "uint256"
        }
      ],
      "name": "Transfer",
      "type": "event"
    },
    {
      "inputs": [
        {
          "internalType": "address",
          "name": "owner",
          "type": "address"
        },
        {
          "internalType": "address",
          "name": "spender",
          "type": "address"
        }
      ],
      "name": "allowance",
      "outputs": [
        {
          "internalType": "uint256",
          "name": "",
          "type": "uint256"
        }
      ],
      "stateMutability": "view",
      "type": "function"
    },
    {
      "inputs": [
        {
          "internalType": "address",
          "name": "spender",
          "type": "address"
        },
        {
          "internalType": "uint256",
          "name": "amount",
          "type": "uint256"
        }
      ],
      "name": "approve",
      "outputs": [
        {
          "internalType": "bool",
          "name": "",
          "type": "bool"
        }
      ],
      "stateMutability": "nonpayable",
      "type": "function"
    },
    {
      "inputs": [
        {
          "internalType": "address",
          "name": "account",
          "type": "address"
        }
      ],
      "name": "balanceOf",
      "outputs": [
        {
          "internalType": "uint256",
          "name": "",
          "type": "uint256"
        }
      ],
      "stateMutability": "view",
      "type": "function"
    },
    {
      "inputs": [],
      "name": "decimals",
      "outputs": [
        {
          "internalType": "uint8",
          "name": "",
          "type": "uint8"
        }
      ],
      "stateMutability": "view",
      "type": "function"
    },
    {
      "inputs": [
        {
          "internalType": "address",
          "name": "spender",
          "type": "address"
        },
        {
          "internalType": "uint256",
          "name": "subtractedValue",
          "type": "uint256"
        }
      ],
      "name": "decreaseAllowance",
      "outputs": [
        {
          "internalType": "bool",
          "name": "",
          "type": "bool"
        }
      ],
      "stateMutability": "nonpayable",
      "type": "function"
    },
    {
      "inputs": [
        {
          "internalType": "address",
          "name": "spender",
          "type": "address"
        },
        {
          "internalType": "uint256",
          "name": "addedValue",
          "type": "uint256"
        }
      ],
      "name": "increaseAllowance",
      "outputs": [
        {
          "internalType": "bool",
          "name": "",
          "type": "bool"
        }
      ],
      "stateMutability": "nonpayable",
      "type": "function"
    },
    {
      "inputs": [],
      "name": "mintMoreToken",
      "outputs": [],
      "stateMutability": "nonpayable",
      "type": "function"
    },
    {
      "inputs": [],
      "name": "name",
      "outputs": [
        {
          "internalType": "string",
          "name": "",
          "type": "string"
        }
      ],
      "stateMutability": "view",
      "type": "function"
    },
    {
      "inputs": [],
      "name": "owner",
      "outputs": [
        {
          "internalType": "address",
          "name": "",
          "type": "address"
        }
      ],
      "stateMutability": "view",
      "type": "function"
    },
    {
      "inputs": [],
      "name": "renounceOwnership",
      "outputs": [],
      "stateMutability": "nonpayable",
      "type": "function"
    },
    {
      "inputs": [],
      "name": "symbol",
      "outputs": [
        {
          "internalType": "string",
          "name": "",
          "type": "string"
        }
      ],
      "stateMutability": "view",
      "type": "function"
    },
    {
      "inputs": [],
      "name": "totalSupply",
      "outputs": [
        {
          "internalType": "uint256",
          "name": "",
          "type": "uint256"
        }
      ],
      "stateMutability": "view",
      "type": "function"
    },
    {
      "inputs": [
        {
          "internalType": "address",
          "name": "to",
          "type": "address"
        },
        {
          "internalType": "uint256",
          "name": "amount",
          "type": "uint256"
        }
      ],
      "name": "transfer",
      "outputs": [
        {
          "internalType": "bool",
          "name": "",
          "type": "bool"
        }
      ],
      "stateMutability": "nonpayable",
      "type": "function"
    },
    {
      "inputs": [
        {
          "internalType": "address",
          "name": "from",
          "type": "address"
        },
        {
          "internalType": "address",
          "name": "to",
          "type": "address"
        },
        {
          "internalType": "uint256",
          "name": "amount",
          "type": "uint256"
        }
      ],
      "name": "transferFrom",
      "outputs": [
        {
          "internalType": "bool",
          "name": "",
          "type": "bool"
        }
      ],
      "stateMutability": "nonpayable",
      "type": "function"
    },
    {
      "inputs": [
        {
          "internalType": "address",
          "name": "_to",
          "type": "address"
        },
        {
          "internalType": "uint256",
          "name": "amount",
          "type": "uint256"
        }
      ],
      "name": "transferFromContract",
      "outputs": [],
      "stateMutability": "nonpayable",
      "type": "function"
    },
    {
      "inputs": [
        {
          "internalType": "address",
          "name": "newOwner",
          "type": "address"
        }
      ],
      "name": "transferOwnership",
      "outputs": [],
      "stateMutability": "nonpayable",
      "type": "function"
    }
  ],
  "bytecode": "0x60806040523480156200001157600080fd5b506040518060400160405280600581526020017f53555344430000000000000000000000000000000000000000000000000000008152506040518060400160405280600581526020017f535553444300000000000000000000000000000000000000000000000000000081525081600390816200008f9190620005d0565b508060049081620000a19190620005d0565b505050620000c4620000b86200010860201b60201c565b6200011060201b60201c565b6200010230620000d9620001d660201b60201c565b600a620000e7919062000847565b612710620000f6919062000898565b620001df60201b60201c565b620009cf565b600033905090565b6000600560009054906101000a900473ffffffffffffffffffffffffffffffffffffffff16905081600560006101000a81548173ffffffffffffffffffffffffffffffffffffffff021916908373ffffffffffffffffffffffffffffffffffffffff1602179055508173ffffffffffffffffffffffffffffffffffffffff168173ffffffffffffffffffffffffffffffffffffffff167f8be0079c531659141344cd1fd0a4f28419497f9722a3daafe3b4186f6b6457e060405160405180910390a35050565b60006012905090565b600073ffffffffffffffffffffffffffffffffffffffff168273ffffffffffffffffffffffffffffffffffffffff160362000251576040517f08c379a0000000000000000000000000000000000000000000000000000000008152600401620002489062000944565b60405180910390fd5b62000265600083836200034c60201b60201c565b806002600082825462000279919062000966565b92505081905550806000808473ffffffffffffffffffffffffffffffffffffffff1673ffffffffffffffffffffffffffffffffffffffff168152602001908152602001600020600082825401925050819055508173ffffffffffffffffffffffffffffffffffffffff16600073ffffffffffffffffffffffffffffffffffffffff167fddf252ad1be2c89b69c2b068fc378daa952ba7f163c4a11628f55a4df523b3ef836040516200032c9190620009b2565b60405180910390a362000348600083836200035160201b60201c565b5050565b505050565b505050565b600081519050919050565b7f4e487b7100000000000000000000000000000000000000000000000000000000600052604160045260246000fd5b7f4e487b7100000000000000000000000000000000000000000000000000000000600052602260045260246000fd5b60006002820490506001821680620003d857607f821691505b602082108103620003ee57620003ed62000390565b5b50919050565b60008190508160005260206000209050919050565b60006020601f8301049050919050565b600082821b905092915050565b600060088302620004587fffffffffffffffffffffffffffffffffffffffffffffffffffffffffffffffff8262000419565b62000464868362000419565b95508019841693508086168417925050509392505050565b6000819050919050565b6000819050919050565b6000620004b1620004ab620004a5846200047c565b62000486565b6200047c565b9050919050565b6000819050919050565b620004cd8362000490565b620004e5620004dc82620004b8565b84845462000426565b825550505050565b600090565b620004fc620004ed565b62000509818484620004c2565b505050565b5b81811015620005315762000525600082620004f2565b6001810190506200050f565b5050565b601f82111562000580576200054a81620003f4565b620005558462000409565b8101602085101562000565578190505b6200057d620005748562000409565b8301826200050e565b50505b505050565b600082821c905092915050565b6000620005a56000198460080262000585565b1980831691505092915050565b6000620005c0838362000592565b9150826002028217905092915050565b620005db8262000356565b67ffffffffffffffff811115620005f757620005f662000361565b5b620006038254620003bf565b6200061082828562000535565b600060209050601f83116001811462000648576000841562000633578287015190505b6200063f8582620005b2565b865550620006af565b601f1984166200065886620003f4565b60005b8281101562000682578489015182556001820191506020850194506020810190506200065b565b86831015620006a257848901516200069e601f89168262000592565b8355505b6001600288020188555050505b505050505050565b7f4e487b7100000000000000000000000000000000000000000000000000000000600052601160045260246000fd5b60008160011c9050919050565b6000808291508390505b600185111562000745578086048111156200071d576200071c620006b7565b5b60018516156200072d5780820291505b80810290506200073d85620006e6565b9450620006fd565b94509492505050565b60008262000760576001905062000833565b8162000770576000905062000833565b81600181146200078957600281146200079457620007ca565b600191505062000833565b60ff841115620007a957620007a8620006b7565b5b8360020a915084821115620007c357620007c2620006b7565b5b5062000833565b5060208310610133831016604e8410600b8410161715620008045782820a905083811115620007fe57620007fd620006b7565b5b62000833565b620008138484846001620006f3565b925090508184048111156200082d576200082c620006b7565b5b81810290505b9392505050565b600060ff82169050919050565b600062000854826200047c565b915062000861836200083a565b9250620008907fffffffffffffffffffffffffffffffffffffffffffffffffffffffffffffffff84846200074e565b905092915050565b6000620008a5826200047c565b9150620008b2836200047c565b9250828202620008c2816200047c565b91508282048414831517620008dc57620008db620006b7565b5b5092915050565b600082825260208201905092915050565b7f45524332303a206d696e7420746f20746865207a65726f206164647265737300600082015250565b60006200092c601f83620008e3565b91506200093982620008f4565b602082019050919050565b600060208201905081810360008301526200095f816200091d565b9050919050565b600062000973826200047c565b915062000980836200047c565b92508282019050808211156200099b576200099a620006b7565b5b92915050565b620009ac816200047c565b82525050565b6000602082019050620009c96000830184620009a1565b92915050565b611acd80620009df6000396000f3fe608060405234801561001057600080fd5b50600436106101005760003560e01c8063715018a611610097578063a9059cbb11610066578063a9059cbb146102b1578063dd62ed3e146102e1578063ed5e7a9b14610311578063f2fde38b1461031b57610100565b8063715018a61461023b5780638da5cb5b1461024557806395d89b4114610263578063a457c2d71461028157610100565b806323b872dd116100d357806323b872dd1461018d578063313ce567146101bd57806339509351146101db57806370a082311461020b57610100565b806306fdde0314610105578063095ea7b31461012357806318160ddd146101535780631a88f30614610171575b600080fd5b61010d610337565b60405161011a9190610fc4565b60405180910390f35b61013d6004803603810190610138919061107f565b6103c9565b60405161014a91906110da565b60405180910390f35b61015b6103ec565b6040516101689190611104565b60405180910390f35b61018b6004803603810190610186919061107f565b6103f6565b005b6101a760048036038101906101a2919061111f565b61045e565b6040516101b491906110da565b60405180910390f35b6101c561048d565b6040516101d2919061118e565b60405180910390f35b6101f560048036038101906101f0919061107f565b610496565b60405161020291906110da565b60405180910390f35b610225600480360381019061022091906111a9565b6104cd565b6040516102329190611104565b60405180910390f35b610243610515565b005b61024d610529565b60405161025a91906111e5565b60405180910390f35b61026b610553565b6040516102789190610fc4565b60405180910390f35b61029b6004803603810190610296919061107f565b6105e5565b6040516102a891906110da565b60405180910390f35b6102cb60048036038101906102c6919061107f565b61065c565b6040516102d891906110da565b60405180910390f35b6102fb60048036038101906102f69190611200565b61067f565b6040516103089190611104565b60405180910390f35b610319610706565b005b610335600480360381019061033091906111a9565b61073a565b005b6060600380546103469061126f565b80601f01602080910402602001604051908101604052809291908181526020018280546103729061126f565b80156103bf5780601f10610394576101008083540402835291602001916103bf565b820191906000526020600020905b8154815290600101906020018083116103a257829003601f168201915b5050505050905090565b6000806103d46107bd565b90506103e18185856107c5565b600191505092915050565b6000600254905090565b6103fe61098e565b6000610409306104cd565b90508181101561044e576040517f08c379a000000000000000000000000000000000000000000000000000000000815260040161044590611312565b60405180910390fd5b610459308484610a0c565b505050565b6000806104696107bd565b9050610476858285610c82565b610481858585610a0c565b60019150509392505050565b60006012905090565b6000806104a16107bd565b90506104c28185856104b3858961067f565b6104bd9190611361565b6107c5565b600191505092915050565b60008060008373ffffffffffffffffffffffffffffffffffffffff1673ffffffffffffffffffffffffffffffffffffffff168152602001908152602001600020549050919050565b61051d61098e565b6105276000610d0e565b565b6000600560009054906101000a900473ffffffffffffffffffffffffffffffffffffffff16905090565b6060600480546105629061126f565b80601f016020809104026020016040519081016040528092919081815260200182805461058e9061126f565b80156105db5780601f106105b0576101008083540402835291602001916105db565b820191906000526020600020905b8154815290600101906020018083116105be57829003601f168201915b5050505050905090565b6000806105f06107bd565b905060006105fe828661067f565b905083811015610643576040517f08c379a000000000000000000000000000000000000000000000000000000000815260040161063a90611407565b60405180910390fd5b61065082868684036107c5565b60019250505092915050565b6000806106676107bd565b9050610674818585610a0c565b600191505092915050565b6000600160008473ffffffffffffffffffffffffffffffffffffffff1673ffffffffffffffffffffffffffffffffffffffff16815260200190815260200160002060008373ffffffffffffffffffffffffffffffffffffffff1673ffffffffffffffffffffffffffffffffffffffff16815260200190815260200160002054905092915050565b61070e61098e565b6107383061071a61048d565b600a610726919061155a565b61271061073391906115a5565b610dd4565b565b61074261098e565b600073ffffffffffffffffffffffffffffffffffffffff168173ffffffffffffffffffffffffffffffffffffffff16036107b1576040517f08c379a00000000000000000000000000000000000000000000000000000000081526004016107a890611659565b60405180910390fd5b6107ba81610d0e565b50565b600033905090565b600073ffffffffffffffffffffffffffffffffffffffff168373ffffffffffffffffffffffffffffffffffffffff1603610834576040517f08c379a000000000000000000000000000000000000000000000000000000000815260040161082b906116eb565b60405180910390fd5b600073ffffffffffffffffffffffffffffffffffffffff168273ffffffffffffffffffffffffffffffffffffffff16036108a3576040517f08c379a000000000000000000000000000000000000000000000000000000000815260040161089a9061177d565b60405180910390fd5b80600160008573ffffffffffffffffffffffffffffffffffffffff1673ffffffffffffffffffffffffffffffffffffffff16815260200190815260200160002060008473ffffffffffffffffffffffffffffffffffffffff1673ffffffffffffffffffffffffffffffffffffffff168152602001908152602001600020819055508173ffffffffffffffffffffffffffffffffffffffff168373ffffffffffffffffffffffffffffffffffffffff167f8c5be1e5ebec7d5bd14f71427d1e84f3dd0314c0f7b2291e5b200ac8c7c3b925836040516109819190611104565b60405180910390a3505050565b6109966107bd565b73ffffffffffffffffffffffffffffffffffffffff166109b4610529565b73ffffffffffffffffffffffffffffffffffffffff1614610a0a576040517f08c379a0000000000000000000000000000000000000000000000000000000008152600401610a01906117e9565b60405180910390fd5b565b600073ffffffffffffffffffffffffffffffffffffffff168373ffffffffffffffffffffffffffffffffffffffff1603610a7b576040517f08c379a0000000000000000000000000000000000000000000000000000000008152600401610a729061187b565b60405180910390fd5b600073ffffffffffffffffffffffffffffffffffffffff168273ffffffffffffffffffffffffffffffffffffffff1603610aea576040517f08c379a0000000000000000000000000000000000000000000000000000000008152600401610ae19061190d565b60405180910390fd5b610af5838383610f2a565b60008060008573ffffffffffffffffffffffffffffffffffffffff1673ffffffffffffffffffffffffffffffffffffffff16815260200190815260200160002054905081811015610b7b576040517f08c379a0000000000000000000000000000000000000000000000000000000008152600401610b729061199f565b60405180910390fd5b8181036000808673ffffffffffffffffffffffffffffffffffffffff1673ffffffffffffffffffffffffffffffffffffffff16815260200190815260200160002081905550816000808573ffffffffffffffffffffffffffffffffffffffff1673ffffffffffffffffffffffffffffffffffffffff168152602001908152602001600020600082825401925050819055508273ffffffffffffffffffffffffffffffffffffffff168473ffffffffffffffffffffffffffffffffffffffff167fddf252ad1be2c89b69c2b068fc378daa952ba7f163c4a11628f55a4df523b3ef84604051610c699190611104565b60405180910390a3610c7c848484610f2f565b50505050565b6000610c8e848461067f565b90507fffffffffffffffffffffffffffffffffffffffffffffffffffffffffffffffff8114610d085781811015610cfa576040517f08c379a0000000000000000000000000000000000000000000000000000000008152600401610cf190611a0b565b60405180910390fd5b610d0784848484036107c5565b5b50505050565b6000600560009054906101000a900473ffffffffffffffffffffffffffffffffffffffff16905081600560006101000a81548173ffffffffffffffffffffffffffffffffffffffff021916908373ffffffffffffffffffffffffffffffffffffffff1602179055508173ffffffffffffffffffffffffffffffffffffffff168173ffffffffffffffffffffffffffffffffffffffff167f8be0079c531659141344cd1fd0a4f28419497f9722a3daafe3b4186f6b6457e060405160405180910390a35050565b600073ffffffffffffffffffffffffffffffffffffffff168273ffffffffffffffffffffffffffffffffffffffff1603610e43576040517f08c379a0000000000000000000000000000000000000000000000000000000008152600401610e3a90611a77565b60405180910390fd5b610e4f60008383610f2a565b8060026000828254610e619190611361565b92505081905550806000808473ffffffffffffffffffffffffffffffffffffffff1673ffffffffffffffffffffffffffffffffffffffff168152602001908152602001600020600082825401925050819055508173ffffffffffffffffffffffffffffffffffffffff16600073ffffffffffffffffffffffffffffffffffffffff167fddf252ad1be2c89b69c2b068fc378daa952ba7f163c4a11628f55a4df523b3ef83604051610f129190611104565b60405180910390a3610f2660008383610f2f565b5050565b505050565b505050565b600081519050919050565b600082825260208201905092915050565b60005b83811015610f6e578082015181840152602081019050610f53565b60008484015250505050565b6000601f19601f8301169050919050565b6000610f9682610f34565b610fa08185610f3f565b9350610fb0818560208601610f50565b610fb981610f7a565b840191505092915050565b60006020820190508181036000830152610fde8184610f8b565b905092915050565b600080fd5b600073ffffffffffffffffffffffffffffffffffffffff82169050919050565b600061101682610feb565b9050919050565b6110268161100b565b811461103157600080fd5b50565b6000813590506110438161101d565b92915050565b6000819050919050565b61105c81611049565b811461106757600080fd5b50565b60008135905061107981611053565b92915050565b6000806040838503121561109657611095610fe6565b5b60006110a485828601611034565b92505060206110b58582860161106a565b9150509250929050565b60008115159050919050565b6110d4816110bf565b82525050565b60006020820190506110ef60008301846110cb565b92915050565b6110fe81611049565b82525050565b600060208201905061111960008301846110f5565b92915050565b60008060006060848603121561113857611137610fe6565b5b600061114686828701611034565b935050602061115786828701611034565b92505060406111688682870161106a565b9150509250925092565b600060ff82169050919050565b61118881611172565b82525050565b60006020820190506111a3600083018461117f565b92915050565b6000602082840312156111bf576111be610fe6565b5b60006111cd84828501611034565b91505092915050565b6111df8161100b565b82525050565b60006020820190506111fa60008301846111d6565b92915050565b6000806040838503121561121757611216610fe6565b5b600061122585828601611034565b925050602061123685828601611034565b9150509250929050565b7f4e487b7100000000000000000000000000000000000000000000000000000000600052602260045260246000fd5b6000600282049050600182168061128757607f821691505b60208210810361129a57611299611240565b5b50919050565b7f596f7520617265207472616e7366657272696e67206d6f7265207468616e207460008201527f686520616d6f756e7420617661696c61626c6521000000000000000000000000602082015250565b60006112fc603483610f3f565b9150611307826112a0565b604082019050919050565b6000602082019050818103600083015261132b816112ef565b9050919050565b7f4e487b7100000000000000000000000000000000000000000000000000000000600052601160045260246000fd5b600061136c82611049565b915061137783611049565b925082820190508082111561138f5761138e611332565b5b92915050565b7f45524332303a2064656372656173656420616c6c6f77616e63652062656c6f7760008201527f207a65726f000000000000000000000000000000000000000000000000000000602082015250565b60006113f1602583610f3f565b91506113fc82611395565b604082019050919050565b60006020820190508181036000830152611420816113e4565b9050919050565b60008160011c9050919050565b6000808291508390505b600185111561147e5780860481111561145a57611459611332565b5b60018516156114695780820291505b808102905061147785611427565b945061143e565b94509492505050565b6000826114975760019050611553565b816114a55760009050611553565b81600181146114bb57600281146114c5576114f4565b6001915050611553565b60ff8411156114d7576114d6611332565b5b8360020a9150848211156114ee576114ed611332565b5b50611553565b5060208310610133831016604e8410600b84101617156115295782820a90508381111561152457611523611332565b5b611553565b6115368484846001611434565b9250905081840481111561154d5761154c611332565b5b81810290505b9392505050565b600061156582611049565b915061157083611172565b925061159d7fffffffffffffffffffffffffffffffffffffffffffffffffffffffffffffffff8484611487565b905092915050565b60006115b082611049565b91506115bb83611049565b92508282026115c981611049565b915082820484148315176115e0576115df611332565b5b5092915050565b7f4f776e61626c653a206e6577206f776e657220697320746865207a65726f206160008201527f6464726573730000000000000000000000000000000000000000000000000000602082015250565b6000611643602683610f3f565b915061164e826115e7565b604082019050919050565b6000602082019050818103600083015261167281611636565b9050919050565b7f45524332303a20617070726f76652066726f6d20746865207a65726f2061646460008201527f7265737300000000000000000000000000000000000000000000000000000000602082015250565b60006116d5602483610f3f565b91506116e082611679565b604082019050919050565b60006020820190508181036000830152611704816116c8565b9050919050565b7f45524332303a20617070726f766520746f20746865207a65726f20616464726560008201527f7373000000000000000000000000000000000000000000000000000000000000602082015250565b6000611767602283610f3f565b91506117728261170b565b604082019050919050565b600060208201905081810360008301526117968161175a565b9050919050565b7f4f776e61626c653a2063616c6c6572206973206e6f7420746865206f776e6572600082015250565b60006117d3602083610f3f565b91506117de8261179d565b602082019050919050565b60006020820190508181036000830152611802816117c6565b9050919050565b7f45524332303a207472616e736665722066726f6d20746865207a65726f20616460008201527f6472657373000000000000000000000000000000000000000000000000000000602082015250565b6000611865602583610f3f565b915061187082611809565b604082019050919050565b6000602082019050818103600083015261189481611858565b9050919050565b7f45524332303a207472616e7366657220746f20746865207a65726f206164647260008201527f6573730000000000000000000000000000000000000000000000000000000000602082015250565b60006118f7602383610f3f565b91506119028261189b565b604082019050919050565b60006020820190508181036000830152611926816118ea565b9050919050565b7f45524332303a207472616e7366657220616d6f756e742065786365656473206260008201527f616c616e63650000000000000000000000000000000000000000000000000000602082015250565b6000611989602683610f3f565b91506119948261192d565b604082019050919050565b600060208201905081810360008301526119b88161197c565b9050919050565b7f45524332303a20696e73756666696369656e7420616c6c6f77616e6365000000600082015250565b60006119f5601d83610f3f565b9150611a00826119bf565b602082019050919050565b60006020820190508181036000830152611a24816119e8565b9050919050565b7f45524332303a206d696e7420746f20746865207a65726f206164647265737300600082015250565b6000611a61601f83610f3f565b9150611a6c82611a2b565b602082019050919050565b60006020820190508181036000830152611a9081611a54565b905091905056fea26469706673582212209fe54fab62a0dfafdadb96c9715fc9f1929947f62a10f8e844d483e5056c9aaa64736f6c63430008110033",
  "linkReferences": {},
  "deployedLinkReferences": {}
}