{
  "_format": "hh-sol-artifact-1",
  "contractName": "usdcMinting",
  "sourceName": "contracts/mintingContract.sol",
  "abi": [
    {
      "inputs": [
        {
          "internalType": "address",
          "name": "_susdAddress",
          "type": "address"
        }
      ],
      "stateMutability": "nonpayable",
      "type": "constructor"
    },
    {
      "inputs": [
        {
          "internalType": "string",
          "name": "",
          "type": "string"
        }
      ],
      "name": "insufficient",
      "type": "error"
    },
    {
      "inputs": [
        {
          "internalType": "string",
          "name": "",
          "type": "string"
        }
      ],
      "name": "minted",
      "type": "error"
    },
    {
      "anonymous": false,
      "inputs": [
        {
          "indexed": true,
          "internalType": "address",
          "name": "_newTokenAddress",
          "type": "address"
        }
      ],
      "name": "addressChanged",
      "type": "event"
    },
    {
      "anonymous": false,
      "inputs": [
        {
          "indexed": true,
          "internalType": "address",
          "name": "minter",
          "type": "address"
        },
        {
          "indexed": true,
          "internalType": "uint256",
          "name": "amount",
          "type": "uint256"
        },
        {
          "indexed": false,
          "internalType": "uint256",
          "name": "timeOfminting",
          "type": "uint256"
        }
      ],
      "name": "mintedSuccefully",
      "type": "event"
    },
    {
      "inputs": [],
      "name": "bal",
      "outputs": [
        {
          "internalType": "uint256",
          "name": "",
          "type": "uint256"
        }
      ],
      "stateMutability": "view",
      "type": "function"
    },
    {
      "inputs": [
        {
          "internalType": "uint256",
          "name": "_amount",
          "type": "uint256"
        }
      ],
      "name": "changeAmount",
      "outputs": [],
      "stateMutability": "nonpayable",
      "type": "function"
    },
    {
      "inputs": [
        {
          "internalType": "address",
          "name": "_newTokenAddress",
          "type": "address"
        }
      ],
      "name": "changeTokenAddress",
      "outputs": [],
      "stateMutability": "nonpayable",
      "type": "function"
    },
    {
      "inputs": [],
      "name": "mintToken",
      "outputs": [],
      "stateMutability": "nonpayable",
      "type": "function"
    }
  ],
  "bytecode": "0x6080604052678ac7230489e8000060025534801561001c57600080fd5b50604051610b5b380380610b5b833981810160405281019061003e9190610128565b806000806101000a81548173ffffffffffffffffffffffffffffffffffffffff021916908373ffffffffffffffffffffffffffffffffffffffff16021790555033600160006101000a81548173ffffffffffffffffffffffffffffffffffffffff021916908373ffffffffffffffffffffffffffffffffffffffff16021790555050610155565b600080fd5b600073ffffffffffffffffffffffffffffffffffffffff82169050919050565b60006100f5826100ca565b9050919050565b610105816100ea565b811461011057600080fd5b50565b600081519050610122816100fc565b92915050565b60006020828403121561013e5761013d6100c5565b5b600061014c84828501610113565b91505092915050565b6109f7806101646000396000f3fe608060405234801561001057600080fd5b506004361061004c5760003560e01c80632004ffd9146100515780633d79d1c81461005b5780635c32051614610079578063c9cda91f14610095575b600080fd5b6100596100b1565b005b610063610374565b604051610070919061066e565b60405180910390f35b610093600480360381019061008e91906106ba565b6104a5565b005b6100af60048036038101906100aa9190610745565b61053f565b005b60011515600360003373ffffffffffffffffffffffffffffffffffffffff1673ffffffffffffffffffffffffffffffffffffffff16815260200190815260200160002060009054906101000a900460ff16151503610144576040517f6a247daa00000000000000000000000000000000000000000000000000000000815260040161013b906107cf565b60405180910390fd5b60025460008054906101000a900473ffffffffffffffffffffffffffffffffffffffff1673ffffffffffffffffffffffffffffffffffffffff166370a08231306040518263ffffffff1660e01b81526004016101a091906107fe565b602060405180830381865afa1580156101bd573d6000803e3d6000fd5b505050506040513d601f19601f820116820180604052508101906101e1919061082e565b1015610222576040517f1f3c3082000000000000000000000000000000000000000000000000000000008152600401610219906108a7565b60405180910390fd5b6001600360003373ffffffffffffffffffffffffffffffffffffffff1673ffffffffffffffffffffffffffffffffffffffff16815260200190815260200160002060006101000a81548160ff02191690831515021790555060008054906101000a900473ffffffffffffffffffffffffffffffffffffffff1673ffffffffffffffffffffffffffffffffffffffff1663a9059cbb336002546040518363ffffffff1660e01b81526004016102d79291906108c7565b6020604051808303816000875af11580156102f6573d6000803e3d6000fd5b505050506040513d601f19601f8201168201806040525081019061031a9190610928565b5067d02ab486cedc00003373ffffffffffffffffffffffffffffffffffffffff167f8d61934832bc8fd9f377322d930bcc4a2bbfac7cea0349dd688a58ee29ee7a8c4260405161036a919061066e565b60405180910390a3565b60003373ffffffffffffffffffffffffffffffffffffffff16600160009054906101000a900473ffffffffffffffffffffffffffffffffffffffff1673ffffffffffffffffffffffffffffffffffffffff1614610406576040517f08c379a00000000000000000000000000000000000000000000000000000000081526004016103fd906109a1565b60405180910390fd5b60008054906101000a900473ffffffffffffffffffffffffffffffffffffffff1673ffffffffffffffffffffffffffffffffffffffff166370a08231306040518263ffffffff1660e01b815260040161045f91906107fe565b602060405180830381865afa15801561047c573d6000803e3d6000fd5b505050506040513d601f19601f820116820180604052508101906104a0919061082e565b905090565b3373ffffffffffffffffffffffffffffffffffffffff16600160009054906101000a900473ffffffffffffffffffffffffffffffffffffffff1673ffffffffffffffffffffffffffffffffffffffff1614610535576040517f08c379a000000000000000000000000000000000000000000000000000000000815260040161052c906109a1565b60405180910390fd5b8060028190555050565b3373ffffffffffffffffffffffffffffffffffffffff16600160009054906101000a900473ffffffffffffffffffffffffffffffffffffffff1673ffffffffffffffffffffffffffffffffffffffff16146105cf576040517f08c379a00000000000000000000000000000000000000000000000000000000081526004016105c6906109a1565b60405180910390fd5b806000806101000a81548173ffffffffffffffffffffffffffffffffffffffff021916908373ffffffffffffffffffffffffffffffffffffffff1602179055508073ffffffffffffffffffffffffffffffffffffffff167f5ebc306ab0c5b358cd5cd41c6c8b69be48d6136bb674b53071e4aceaf182026a60405160405180910390a250565b6000819050919050565b61066881610655565b82525050565b6000602082019050610683600083018461065f565b92915050565b600080fd5b61069781610655565b81146106a257600080fd5b50565b6000813590506106b48161068e565b92915050565b6000602082840312156106d0576106cf610689565b5b60006106de848285016106a5565b91505092915050565b600073ffffffffffffffffffffffffffffffffffffffff82169050919050565b6000610712826106e7565b9050919050565b61072281610707565b811461072d57600080fd5b50565b60008135905061073f81610719565b92915050565b60006020828403121561075b5761075a610689565b5b600061076984828501610730565b91505092915050565b600082825260208201905092915050565b7f416c7265616479204d696e746564000000000000000000000000000000000000600082015250565b60006107b9600e83610772565b91506107c482610783565b602082019050919050565b600060208201905081810360008301526107e8816107ac565b9050919050565b6107f881610707565b82525050565b600060208201905061081360008301846107ef565b92915050565b6000815190506108288161068e565b92915050565b60006020828403121561084457610843610689565b5b600061085284828501610819565b91505092915050565b7f696e73756666696369656e7420636f6e74726163742062616c616e6365000000600082015250565b6000610891601d83610772565b915061089c8261085b565b602082019050919050565b600060208201905081810360008301526108c081610884565b9050919050565b60006040820190506108dc60008301856107ef565b6108e9602083018461065f565b9392505050565b60008115159050919050565b610905816108f0565b811461091057600080fd5b50565b600081519050610922816108fc565b92915050565b60006020828403121561093e5761093d610689565b5b600061094c84828501610913565b91505092915050565b7f6e6f7420617574686f72697a6564000000000000000000000000000000000000600082015250565b600061098b600e83610772565b915061099682610955565b602082019050919050565b600060208201905081810360008301526109ba8161097e565b905091905056fea264697066735822122027ff2ea6baaea9ddfdc90cc1c822142a9bf694288f7ceec3dd8507909895186f64736f6c63430008110033",
  "linkReferences": {},
  "deployedLinkReferences": {}
}