{
  "_format": "hh-sol-artifact-1",
  "contractName": "usdcMinting",
  "sourceName": "contracts/mintingContract.sol",
  "abi": [
    {
      "inputs": [
        {
          "internalType": "address",
          "name": "_susdAddress",
          "type": "address"
        }
      ],
      "stateMutability": "nonpayable",
      "type": "constructor"
    },
    {
      "inputs": [
        {
          "internalType": "string",
          "name": "",
          "type": "string"
        }
      ],
      "name": "insufficient",
      "type": "error"
    },
    {
      "inputs": [
        {
          "internalType": "string",
          "name": "",
          "type": "string"
        }
      ],
      "name": "minted",
      "type": "error"
    },
    {
      "anonymous": false,
      "inputs": [
        {
          "indexed": true,
          "internalType": "address",
          "name": "_newTokenAddress",
          "type": "address"
        }
      ],
      "name": "addressChanged",
      "type": "event"
    },
    {
      "anonymous": false,
      "inputs": [
        {
          "indexed": true,
          "internalType": "address",
          "name": "minter",
          "type": "address"
        },
        {
          "indexed": true,
          "internalType": "uint256",
          "name": "amount",
          "type": "uint256"
        },
        {
          "indexed": false,
          "internalType": "uint256",
          "name": "timeOfminting",
          "type": "uint256"
        }
      ],
      "name": "mintedSuccefully",
      "type": "event"
    },
    {
      "inputs": [],
      "name": "bal",
      "outputs": [
        {
          "internalType": "uint256",
          "name": "",
          "type": "uint256"
        }
      ],
      "stateMutability": "view",
      "type": "function"
    },
    {
      "inputs": [
        {
          "internalType": "address",
          "name": "_newTokenAddress",
          "type": "address"
        }
      ],
      "name": "changeTokenAddress",
      "outputs": [],
      "stateMutability": "nonpayable",
      "type": "function"
    },
    {
      "inputs": [],
      "name": "mintToken",
      "outputs": [],
      "stateMutability": "nonpayable",
      "type": "function"
    }
  ],
  "bytecode": "0x608060405234801561001057600080fd5b50604051610a56380380610a568339818101604052810190610032919061011c565b806000806101000a81548173ffffffffffffffffffffffffffffffffffffffff021916908373ffffffffffffffffffffffffffffffffffffffff16021790555033600160006101000a81548173ffffffffffffffffffffffffffffffffffffffff021916908373ffffffffffffffffffffffffffffffffffffffff16021790555050610149565b600080fd5b600073ffffffffffffffffffffffffffffffffffffffff82169050919050565b60006100e9826100be565b9050919050565b6100f9816100de565b811461010457600080fd5b50565b600081519050610116816100f0565b92915050565b600060208284031215610132576101316100b9565b5b600061014084828501610107565b91505092915050565b6108fe806101586000396000f3fe608060405234801561001057600080fd5b50600436106100415760003560e01c80632004ffd9146100465780633d79d1c814610050578063c9cda91f1461006e575b600080fd5b61004e61008a565b005b610058610357565b60405161006591906105b7565b60405180910390f35b61008860048036038101906100839190610635565b610488565b005b60011515600260003373ffffffffffffffffffffffffffffffffffffffff1673ffffffffffffffffffffffffffffffffffffffff16815260200190815260200160002060009054906101000a900460ff1615150361011d576040517f6a247daa000000000000000000000000000000000000000000000000000000008152600401610114906106bf565b60405180910390fd5b6000678ac7230489e8000090508060008054906101000a900473ffffffffffffffffffffffffffffffffffffffff1673ffffffffffffffffffffffffffffffffffffffff166370a08231306040518263ffffffff1660e01b815260040161018491906106ee565b602060405180830381865afa1580156101a1573d6000803e3d6000fd5b505050506040513d601f19601f820116820180604052508101906101c59190610735565b1015610206576040517f1f3c30820000000000000000000000000000000000000000000000000000000081526004016101fd906107ae565b60405180910390fd5b6001600260003373ffffffffffffffffffffffffffffffffffffffff1673ffffffffffffffffffffffffffffffffffffffff16815260200190815260200160002060006101000a81548160ff02191690831515021790555060008054906101000a900473ffffffffffffffffffffffffffffffffffffffff1673ffffffffffffffffffffffffffffffffffffffff1663a9059cbb33836040518363ffffffff1660e01b81526004016102b99291906107ce565b6020604051808303816000875af11580156102d8573d6000803e3d6000fd5b505050506040513d601f19601f820116820180604052508101906102fc919061082f565b50678ac7230489e800003373ffffffffffffffffffffffffffffffffffffffff167f8d61934832bc8fd9f377322d930bcc4a2bbfac7cea0349dd688a58ee29ee7a8c4260405161034c91906105b7565b60405180910390a350565b60003373ffffffffffffffffffffffffffffffffffffffff16600160009054906101000a900473ffffffffffffffffffffffffffffffffffffffff1673ffffffffffffffffffffffffffffffffffffffff16146103e9576040517f08c379a00000000000000000000000000000000000000000000000000000000081526004016103e0906108a8565b60405180910390fd5b60008054906101000a900473ffffffffffffffffffffffffffffffffffffffff1673ffffffffffffffffffffffffffffffffffffffff166370a08231306040518263ffffffff1660e01b815260040161044291906106ee565b602060405180830381865afa15801561045f573d6000803e3d6000fd5b505050506040513d601f19601f820116820180604052508101906104839190610735565b905090565b3373ffffffffffffffffffffffffffffffffffffffff16600160009054906101000a900473ffffffffffffffffffffffffffffffffffffffff1673ffffffffffffffffffffffffffffffffffffffff1614610518576040517f08c379a000000000000000000000000000000000000000000000000000000000815260040161050f906108a8565b60405180910390fd5b806000806101000a81548173ffffffffffffffffffffffffffffffffffffffff021916908373ffffffffffffffffffffffffffffffffffffffff1602179055508073ffffffffffffffffffffffffffffffffffffffff167f5ebc306ab0c5b358cd5cd41c6c8b69be48d6136bb674b53071e4aceaf182026a60405160405180910390a250565b6000819050919050565b6105b18161059e565b82525050565b60006020820190506105cc60008301846105a8565b92915050565b600080fd5b600073ffffffffffffffffffffffffffffffffffffffff82169050919050565b6000610602826105d7565b9050919050565b610612816105f7565b811461061d57600080fd5b50565b60008135905061062f81610609565b92915050565b60006020828403121561064b5761064a6105d2565b5b600061065984828501610620565b91505092915050565b600082825260208201905092915050565b7f416c7265616479204d696e746564000000000000000000000000000000000000600082015250565b60006106a9600e83610662565b91506106b482610673565b602082019050919050565b600060208201905081810360008301526106d88161069c565b9050919050565b6106e8816105f7565b82525050565b600060208201905061070360008301846106df565b92915050565b6107128161059e565b811461071d57600080fd5b50565b60008151905061072f81610709565b92915050565b60006020828403121561074b5761074a6105d2565b5b600061075984828501610720565b91505092915050565b7f696e73756666696369656e7420636f6e74726163742062616c616e6365000000600082015250565b6000610798601d83610662565b91506107a382610762565b602082019050919050565b600060208201905081810360008301526107c78161078b565b9050919050565b60006040820190506107e360008301856106df565b6107f060208301846105a8565b9392505050565b60008115159050919050565b61080c816107f7565b811461081757600080fd5b50565b60008151905061082981610803565b92915050565b600060208284031215610845576108446105d2565b5b60006108538482850161081a565b91505092915050565b7f6e6f7420617574686f72697a6564000000000000000000000000000000000000600082015250565b6000610892600e83610662565b915061089d8261085c565b602082019050919050565b600060208201905081810360008301526108c181610885565b905091905056fea26469706673582212209764b8fe87a8dfdf3e1238f2068bc5d0a36ab27e073fee7c1d34c47384fb377864736f6c63430008110033",
  "linkReferences": {},
  "deployedLinkReferences": {}
}